{"abi":[{"inputs":[{"internalType":"uint256","name":"minimum","type":"uint256"},{"internalType":"address","name":"creator","type":"address"}],"stateMutability":"nonpayable","type":"constructor"},{"anonymous":false,"inputs":[{"indexed":true,"internalType":"address","name":"contributor","type":"address"},{"indexed":false,"internalType":"uint256","name":"amount","type":"uint256"}],"name":"ContributionReceived","type":"event"},{"anonymous":false,"inputs":[{"indexed":true,"internalType":"address","name":"contributor","type":"address"},{"components":[{"internalType":"bool","name":"complete","type":"bool"},{"internalType":"uint128","name":"approvalCount","type":"uint128"},{"internalType":"uint128","name":"value","type":"uint128"},{"internalType":"address payable","name":"recipient","type":"address"},{"internalType":"string","name":"description","type":"string"}],"indexed":false,"internalType":"struct Campaign.Request","name":"request","type":"tuple"}],"name":"RequestApproved","type":"event"},{"anonymous":false,"inputs":[{"indexed":true,"internalType":"address","name":"creator","type":"address"}],"name":"RequestCreated","type":"event"},{"anonymous":false,"inputs":[{"indexed":true,"internalType":"address","name":"manager","type":"address"},{"components":[{"internalType":"bool","name":"complete","type":"bool"},{"internalType":"uint128","name":"approvalCount","type":"uint128"},{"internalType":"uint128","name":"value","type":"uint128"},{"internalType":"address payable","name":"recipient","type":"address"},{"internalType":"string","name":"description","type":"string"}],"indexed":false,"internalType":"struct Campaign.Request","name":"request","type":"tuple"}],"name":"RequestFinalized","type":"event"},{"inputs":[{"internalType":"uint256","name":"index","type":"uint256"}],"name":"approveRequest","outputs":[],"stateMutability":"nonpayable","type":"function"},{"inputs":[],"name":"contribute","outputs":[],"stateMutability":"payable","type":"function"},{"inputs":[],"name":"contributorCount","outputs":[{"internalType":"uint256","name":"","type":"uint256"}],"stateMutability":"view","type":"function"},{"inputs":[{"internalType":"address","name":"contributor","type":"address"},{"internalType":"uint256","name":"index","type":"uint256"}],"name":"contributorHasApproved","outputs":[{"internalType":"bool","name":"","type":"bool"}],"stateMutability":"view","type":"function"},{"inputs":[{"internalType":"string","name":"description","type":"string"},{"internalType":"uint128","name":"value","type":"uint128"},{"internalType":"address payable","name":"recipient","type":"address"}],"name":"createRequest","outputs":[],"stateMutability":"nonpayable","type":"function"},{"inputs":[{"internalType":"uint256","name":"index","type":"uint256"}],"name":"finalizeRequest","outputs":[],"stateMutability":"payable","type":"function"},{"inputs":[],"name":"getRequestsCount","outputs":[{"internalType":"uint256","name":"","type":"uint256"}],"stateMutability":"view","type":"function"},{"inputs":[],"name":"getSummary","outputs":[{"internalType":"uint256","name":"","type":"uint256"},{"internalType":"uint256","name":"","type":"uint256"},{"internalType":"uint256","name":"","type":"uint256"},{"internalType":"uint256","name":"","type":"uint256"},{"internalType":"address","name":"","type":"address"}],"stateMutability":"view","type":"function"},{"inputs":[{"internalType":"address","name":"contributor","type":"address"}],"name":"isContributor","outputs":[{"internalType":"bool","name":"","type":"bool"}],"stateMutability":"view","type":"function"},{"inputs":[],"name":"manager","outputs":[{"internalType":"address","name":"","type":"address"}],"stateMutability":"view","type":"function"},{"inputs":[],"name":"minimumContribution","outputs":[{"internalType":"uint256","name":"","type":"uint256"}],"stateMutability":"view","type":"function"},{"inputs":[{"internalType":"uint256","name":"","type":"uint256"}],"name":"requests","outputs":[{"internalType":"bool","name":"complete","type":"bool"},{"internalType":"uint128","name":"approvalCount","type":"uint128"},{"internalType":"uint128","name":"value","type":"uint128"},{"internalType":"address payable","name":"recipient","type":"address"},{"internalType":"string","name":"description","type":"string"}],"stateMutability":"view","type":"function"}],"devdoc":{"kind":"dev","methods":{},"version":1},"evm":{"assembly":"    /* \"Campaign.sol\":979:6584  contract Campaign {... */\n  mstore(0x40, 0x80)\n    /* \"Campaign.sol\":2680:2880  constructor(uint minimum, address creator) {... */\n  callvalue\n  dup1\n  iszero\n  tag_1\n  jumpi\n  revert(0x00, 0x00)\ntag_1:\n  pop\n  mload(0x40)\n  sub(codesize, bytecodeSize)\n  dup1\n  bytecodeSize\n  dup4\n  codecopy\n  dup2\n  dup2\n  add\n  0x40\n  mstore\n  dup2\n  add\n  swap1\n  tag_2\n  swap2\n  swap1\n  tag_3\n  jump\t// in\ntag_2:\n    /* \"Campaign.sol\":2751:2752  0 */\n  0x00\n    /* \"Campaign.sol\":2741:2748  minimum */\n  dup3\n    /* \"Campaign.sol\":2741:2752  minimum > 0 */\n  gt\n    /* \"Campaign.sol\":2733:2807  require(minimum > 0, \"Minimum contribution value must be greater than 0.\") */\n  tag_6\n  jumpi\n  mload(0x40)\n  0x08c379a000000000000000000000000000000000000000000000000000000000\n  dup2\n  mstore\n  0x04\n  add\n  tag_7\n  swap1\n  tag_8\n  jump\t// in\ntag_7:\n  mload(0x40)\n  dup1\n  swap2\n  sub\n  swap1\n  revert\ntag_6:\n    /* \"Campaign.sol\":2827:2834  creator */\n  dup1\n    /* \"Campaign.sol\":2817:2824  manager */\n  0x00\n  0x00\n    /* \"Campaign.sol\":2817:2834  manager = creator */\n  0x0100\n  exp\n  dup2\n  sload\n  dup2\n  0xffffffffffffffffffffffffffffffffffffffff\n  mul\n  not\n  and\n  swap1\n  dup4\n  0xffffffffffffffffffffffffffffffffffffffff\n  and\n  mul\n  or\n  swap1\n  sstore\n  pop\n    /* \"Campaign.sol\":2866:2873  minimum */\n  dup2\n    /* \"Campaign.sol\":2844:2863  minimumContribution */\n  0x01\n    /* \"Campaign.sol\":2844:2873  minimumContribution = minimum */\n  dup2\n  swap1\n  sstore\n  pop\n    /* \"Campaign.sol\":2680:2880  constructor(uint minimum, address creator) {... */\n  pop\n  pop\n    /* \"Campaign.sol\":979:6584  contract Campaign {... */\n  jump(tag_9)\n    /* \"#utility.yul\":88:205   */\ntag_11:\n    /* \"#utility.yul\":197:198   */\n  0x00\n    /* \"#utility.yul\":194:195   */\n  0x00\n    /* \"#utility.yul\":187:199   */\n  revert\n    /* \"#utility.yul\":334:411   */\ntag_13:\n    /* \"#utility.yul\":371:378   */\n  0x00\n    /* \"#utility.yul\":400:405   */\n  dup2\n    /* \"#utility.yul\":389:405   */\n  swap1\n  pop\n    /* \"#utility.yul\":334:411   */\n  swap2\n  swap1\n  pop\n  jump\t// out\n    /* \"#utility.yul\":417:539   */\ntag_14:\n    /* \"#utility.yul\":490:514   */\n  tag_29\n    /* \"#utility.yul\":508:513   */\n  dup2\n    /* \"#utility.yul\":490:514   */\n  tag_13\n  jump\t// in\ntag_29:\n    /* \"#utility.yul\":483:488   */\n  dup2\n    /* \"#utility.yul\":480:515   */\n  eq\n    /* \"#utility.yul\":470:533   */\n  tag_30\n  jumpi\n    /* \"#utility.yul\":529:530   */\n  0x00\n    /* \"#utility.yul\":526:527   */\n  0x00\n    /* \"#utility.yul\":519:531   */\n  revert\n    /* \"#utility.yul\":470:533   */\ntag_30:\n    /* \"#utility.yul\":417:539   */\n  pop\n  jump\t// out\n    /* \"#utility.yul\":545:688   */\ntag_15:\n    /* \"#utility.yul\":602:607   */\n  0x00\n    /* \"#utility.yul\":633:639   */\n  dup2\n    /* \"#utility.yul\":627:640   */\n  mload\n    /* \"#utility.yul\":618:640   */\n  swap1\n  pop\n    /* \"#utility.yul\":649:682   */\n  tag_32\n    /* \"#utility.yul\":676:681   */\n  dup2\n    /* \"#utility.yul\":649:682   */\n  tag_14\n  jump\t// in\ntag_32:\n    /* \"#utility.yul\":545:688   */\n  swap3\n  swap2\n  pop\n  pop\n  jump\t// out\n    /* \"#utility.yul\":694:820   */\ntag_16:\n    /* \"#utility.yul\":731:738   */\n  0x00\n    /* \"#utility.yul\":771:813   */\n  0xffffffffffffffffffffffffffffffffffffffff\n    /* \"#utility.yul\":764:769   */\n  dup3\n    /* \"#utility.yul\":760:814   */\n  and\n    /* \"#utility.yul\":749:814   */\n  swap1\n  pop\n    /* \"#utility.yul\":694:820   */\n  swap2\n  swap1\n  pop\n  jump\t// out\n    /* \"#utility.yul\":826:922   */\ntag_17:\n    /* \"#utility.yul\":863:870   */\n  0x00\n    /* \"#utility.yul\":892:916   */\n  tag_35\n    /* \"#utility.yul\":910:915   */\n  dup3\n    /* \"#utility.yul\":892:916   */\n  tag_16\n  jump\t// in\ntag_35:\n    /* \"#utility.yul\":881:916   */\n  swap1\n  pop\n    /* \"#utility.yul\":826:922   */\n  swap2\n  swap1\n  pop\n  jump\t// out\n    /* \"#utility.yul\":928:1050   */\ntag_18:\n    /* \"#utility.yul\":1001:1025   */\n  tag_37\n    /* \"#utility.yul\":1019:1024   */\n  dup2\n    /* \"#utility.yul\":1001:1025   */\n  tag_17\n  jump\t// in\ntag_37:\n    /* \"#utility.yul\":994:999   */\n  dup2\n    /* \"#utility.yul\":991:1026   */\n  eq\n    /* \"#utility.yul\":981:1044   */\n  tag_38\n  jumpi\n    /* \"#utility.yul\":1040:1041   */\n  0x00\n    /* \"#utility.yul\":1037:1038   */\n  0x00\n    /* \"#utility.yul\":1030:1042   */\n  revert\n    /* \"#utility.yul\":981:1044   */\ntag_38:\n    /* \"#utility.yul\":928:1050   */\n  pop\n  jump\t// out\n    /* \"#utility.yul\":1056:1199   */\ntag_19:\n    /* \"#utility.yul\":1113:1118   */\n  0x00\n    /* \"#utility.yul\":1144:1150   */\n  dup2\n    /* \"#utility.yul\":1138:1151   */\n  mload\n    /* \"#utility.yul\":1129:1151   */\n  swap1\n  pop\n    /* \"#utility.yul\":1160:1193   */\n  tag_40\n    /* \"#utility.yul\":1187:1192   */\n  dup2\n    /* \"#utility.yul\":1160:1193   */\n  tag_18\n  jump\t// in\ntag_40:\n    /* \"#utility.yul\":1056:1199   */\n  swap3\n  swap2\n  pop\n  pop\n  jump\t// out\n    /* \"#utility.yul\":1205:1712   */\ntag_3:\n    /* \"#utility.yul\":1284:1290   */\n  0x00\n    /* \"#utility.yul\":1292:1298   */\n  0x00\n    /* \"#utility.yul\":1341:1343   */\n  0x40\n    /* \"#utility.yul\":1329:1338   */\n  dup4\n    /* \"#utility.yul\":1320:1327   */\n  dup6\n    /* \"#utility.yul\":1316:1339   */\n  sub\n    /* \"#utility.yul\":1312:1344   */\n  slt\n    /* \"#utility.yul\":1309:1428   */\n  iszero\n  tag_42\n  jumpi\n    /* \"#utility.yul\":1347:1426   */\n  tag_43\n  tag_11\n  jump\t// in\ntag_43:\n    /* \"#utility.yul\":1309:1428   */\ntag_42:\n    /* \"#utility.yul\":1467:1468   */\n  0x00\n    /* \"#utility.yul\":1492:1556   */\n  tag_44\n    /* \"#utility.yul\":1548:1555   */\n  dup6\n    /* \"#utility.yul\":1539:1545   */\n  dup3\n    /* \"#utility.yul\":1528:1537   */\n  dup7\n    /* \"#utility.yul\":1524:1546   */\n  add\n    /* \"#utility.yul\":1492:1556   */\n  tag_15\n  jump\t// in\ntag_44:\n    /* \"#utility.yul\":1482:1556   */\n  swap3\n  pop\n    /* \"#utility.yul\":1438:1566   */\n  pop\n    /* \"#utility.yul\":1605:1607   */\n  0x20\n    /* \"#utility.yul\":1631:1695   */\n  tag_45\n    /* \"#utility.yul\":1687:1694   */\n  dup6\n    /* \"#utility.yul\":1678:1684   */\n  dup3\n    /* \"#utility.yul\":1667:1676   */\n  dup7\n    /* \"#utility.yul\":1663:1685   */\n  add\n    /* \"#utility.yul\":1631:1695   */\n  tag_19\n  jump\t// in\ntag_45:\n    /* \"#utility.yul\":1621:1695   */\n  swap2\n  pop\n    /* \"#utility.yul\":1576:1705   */\n  pop\n    /* \"#utility.yul\":1205:1712   */\n  swap3\n  pop\n  swap3\n  swap1\n  pop\n  jump\t// out\n    /* \"#utility.yul\":1718:1887   */\ntag_20:\n    /* \"#utility.yul\":1802:1813   */\n  0x00\n    /* \"#utility.yul\":1836:1842   */\n  dup3\n    /* \"#utility.yul\":1831:1834   */\n  dup3\n    /* \"#utility.yul\":1824:1843   */\n  mstore\n    /* \"#utility.yul\":1876:1880   */\n  0x20\n    /* \"#utility.yul\":1871:1874   */\n  dup3\n    /* \"#utility.yul\":1867:1881   */\n  add\n    /* \"#utility.yul\":1852:1881   */\n  swap1\n  pop\n    /* \"#utility.yul\":1718:1887   */\n  swap3\n  swap2\n  pop\n  pop\n  jump\t// out\n    /* \"#utility.yul\":1893:2130   */\ntag_21:\n    /* \"#utility.yul\":2033:2067   */\n  0x4d696e696d756d20636f6e747269627574696f6e2076616c7565206d75737420\n    /* \"#utility.yul\":2029:2030   */\n  0x00\n    /* \"#utility.yul\":2021:2027   */\n  dup3\n    /* \"#utility.yul\":2017:2031   */\n  add\n    /* \"#utility.yul\":2010:2068   */\n  mstore\n    /* \"#utility.yul\":2102:2122   */\n  0x62652067726561746572207468616e20302e0000000000000000000000000000\n    /* \"#utility.yul\":2097:2099   */\n  0x20\n    /* \"#utility.yul\":2089:2095   */\n  dup3\n    /* \"#utility.yul\":2085:2100   */\n  add\n    /* \"#utility.yul\":2078:2123   */\n  mstore\n    /* \"#utility.yul\":1893:2130   */\n  pop\n  jump\t// out\n    /* \"#utility.yul\":2136:2502   */\ntag_22:\n    /* \"#utility.yul\":2278:2281   */\n  0x00\n    /* \"#utility.yul\":2299:2366   */\n  tag_49\n    /* \"#utility.yul\":2363:2365   */\n  0x32\n    /* \"#utility.yul\":2358:2361   */\n  dup4\n    /* \"#utility.yul\":2299:2366   */\n  tag_20\n  jump\t// in\ntag_49:\n    /* \"#utility.yul\":2292:2366   */\n  swap2\n  pop\n    /* \"#utility.yul\":2375:2468   */\n  tag_50\n    /* \"#utility.yul\":2464:2467   */\n  dup3\n    /* \"#utility.yul\":2375:2468   */\n  tag_21\n  jump\t// in\ntag_50:\n    /* \"#utility.yul\":2493:2495   */\n  0x40\n    /* \"#utility.yul\":2488:2491   */\n  dup3\n    /* \"#utility.yul\":2484:2496   */\n  add\n    /* \"#utility.yul\":2477:2496   */\n  swap1\n  pop\n    /* \"#utility.yul\":2136:2502   */\n  swap2\n  swap1\n  pop\n  jump\t// out\n    /* \"#utility.yul\":2508:2927   */\ntag_8:\n    /* \"#utility.yul\":2674:2678   */\n  0x00\n    /* \"#utility.yul\":2712:2714   */\n  0x20\n    /* \"#utility.yul\":2701:2710   */\n  dup3\n    /* \"#utility.yul\":2697:2715   */\n  add\n    /* \"#utility.yul\":2689:2715   */\n  swap1\n  pop\n    /* \"#utility.yul\":2761:2770   */\n  dup2\n    /* \"#utility.yul\":2755:2759   */\n  dup2\n    /* \"#utility.yul\":2751:2771   */\n  sub\n    /* \"#utility.yul\":2747:2748   */\n  0x00\n    /* \"#utility.yul\":2736:2745   */\n  dup4\n    /* \"#utility.yul\":2732:2749   */\n  add\n    /* \"#utility.yul\":2725:2772   */\n  mstore\n    /* \"#utility.yul\":2789:2920   */\n  tag_52\n    /* \"#utility.yul\":2915:2919   */\n  dup2\n    /* \"#utility.yul\":2789:2920   */\n  tag_22\n  jump\t// in\ntag_52:\n    /* \"#utility.yul\":2781:2920   */\n  swap1\n  pop\n    /* \"#utility.yul\":2508:2927   */\n  swap2\n  swap1\n  pop\n  jump\t// out\n    /* \"Campaign.sol\":979:6584  contract Campaign {... */\ntag_9:\n  dataSize(sub_0)\n  dup1\n  dataOffset(sub_0)\n  0x00\n  codecopy\n  0x00\n  return\nstop\n\nsub_0: assembly {\n        /* \"Campaign.sol\":979:6584  contract Campaign {... */\n      mstore(0x40, 0x80)\n      jumpi(tag_1, lt(calldatasize, 0x04))\n      shr(0xe0, calldataload(0x00))\n      dup1\n      0x81d12c58\n      gt\n      tag_14\n      jumpi\n      dup1\n      0x81d12c58\n      eq\n      tag_8\n      jumpi\n      dup1\n      0x937e09b1\n      eq\n      tag_9\n      jumpi\n      dup1\n      0xc3f58ce1\n      eq\n      tag_10\n      jumpi\n      dup1\n      0xd7bb99ba\n      eq\n      tag_11\n      jumpi\n      dup1\n      0xd7d1bbdb\n      eq\n      tag_12\n      jumpi\n      dup1\n      0xecfd8928\n      eq\n      tag_13\n      jumpi\n      jump(tag_1)\n    tag_14:\n      dup1\n      0x024974b2\n      eq\n      tag_2\n      jumpi\n      dup1\n      0x03441006\n      eq\n      tag_3\n      jumpi\n      dup1\n      0x1d0d35f5\n      eq\n      tag_4\n      jumpi\n      dup1\n      0x3410452a\n      eq\n      tag_5\n      jumpi\n      dup1\n      0x4051ddac\n      eq\n      tag_6\n      jumpi\n      dup1\n      0x481c6a75\n      eq\n      tag_7\n      jumpi\n    tag_1:\n      revert(0x00, 0x00)\n        /* \"Campaign.sol\":5898:6203  function contributorHasApproved(address contributor, uint index) public view returns (bool) {... */\n    tag_2:\n      callvalue\n      dup1\n      iszero\n      tag_15\n      jumpi\n      revert(0x00, 0x00)\n    tag_15:\n      pop\n      tag_16\n      0x04\n      dup1\n      calldatasize\n      sub\n      dup2\n      add\n      swap1\n      tag_17\n      swap2\n      swap1\n      tag_18\n      jump\t// in\n    tag_17:\n      tag_19\n      jump\t// in\n    tag_16:\n      mload(0x40)\n      tag_20\n      swap2\n      swap1\n      tag_21\n      jump\t// in\n    tag_20:\n      mload(0x40)\n      dup1\n      swap2\n      sub\n      swap1\n      return\n        /* \"Campaign.sol\":4608:5672  function finalizeRequest(uint index) public payable restricted {... */\n    tag_3:\n      tag_22\n      0x04\n      dup1\n      calldatasize\n      sub\n      dup2\n      add\n      swap1\n      tag_23\n      swap2\n      swap1\n      tag_24\n      jump\t// in\n    tag_23:\n      tag_25\n      jump\t// in\n    tag_22:\n      stop\n        /* \"Campaign.sol\":5678:5892  function isContributor(address contributor) public view returns (bool) {... */\n    tag_4:\n      callvalue\n      dup1\n      iszero\n      tag_26\n      jumpi\n      revert(0x00, 0x00)\n    tag_26:\n      pop\n      tag_27\n      0x04\n      dup1\n      calldatasize\n      sub\n      dup2\n      add\n      swap1\n      tag_28\n      swap2\n      swap1\n      tag_29\n      jump\t// in\n    tag_28:\n      tag_30\n      jump\t// in\n    tag_27:\n      mload(0x40)\n      tag_31\n      swap2\n      swap1\n      tag_21\n      jump\t// in\n    tag_31:\n      mload(0x40)\n      dup1\n      swap2\n      sub\n      swap1\n      return\n        /* \"Campaign.sol\":6209:6303  function getRequestsCount() public view returns (uint) {... */\n    tag_5:\n      callvalue\n      dup1\n      iszero\n      tag_32\n      jumpi\n      revert(0x00, 0x00)\n    tag_32:\n      pop\n      tag_33\n      tag_34\n      jump\t// in\n    tag_33:\n      mload(0x40)\n      tag_35\n      swap2\n      swap1\n      tag_36\n      jump\t// in\n    tag_35:\n      mload(0x40)\n      dup1\n      swap2\n      sub\n      swap1\n      return\n        /* \"Campaign.sol\":6310:6582  function getSummary() public view returns (... */\n    tag_6:\n      callvalue\n      dup1\n      iszero\n      tag_37\n      jumpi\n      revert(0x00, 0x00)\n    tag_37:\n      pop\n      tag_38\n      tag_39\n      jump\t// in\n    tag_38:\n      mload(0x40)\n      tag_40\n      swap6\n      swap5\n      swap4\n      swap3\n      swap2\n      swap1\n      tag_41\n      jump\t// in\n    tag_40:\n      mload(0x40)\n      dup1\n      swap2\n      sub\n      swap1\n      return\n        /* \"Campaign.sol\":1003:1025  address public manager */\n    tag_7:\n      callvalue\n      dup1\n      iszero\n      tag_42\n      jumpi\n      revert(0x00, 0x00)\n    tag_42:\n      pop\n      tag_43\n      tag_44\n      jump\t// in\n    tag_43:\n      mload(0x40)\n      tag_45\n      swap2\n      swap1\n      tag_46\n      jump\t// in\n    tag_45:\n      mload(0x40)\n      dup1\n      swap2\n      sub\n      swap1\n      return\n        /* \"Campaign.sol\":1225:1250  Request[] public requests */\n    tag_8:\n      callvalue\n      dup1\n      iszero\n      tag_47\n      jumpi\n      revert(0x00, 0x00)\n    tag_47:\n      pop\n      tag_48\n      0x04\n      dup1\n      calldatasize\n      sub\n      dup2\n      add\n      swap1\n      tag_49\n      swap2\n      swap1\n      tag_24\n      jump\t// in\n    tag_49:\n      tag_50\n      jump\t// in\n    tag_48:\n      mload(0x40)\n      tag_51\n      swap6\n      swap5\n      swap4\n      swap3\n      swap2\n      swap1\n      tag_52\n      jump\t// in\n    tag_51:\n      mload(0x40)\n      dup1\n      swap2\n      sub\n      swap1\n      return\n        /* \"Campaign.sol\":1062:1093  uint public minimumContribution */\n    tag_9:\n      callvalue\n      dup1\n      iszero\n      tag_53\n      jumpi\n      revert(0x00, 0x00)\n    tag_53:\n      pop\n      tag_54\n      tag_55\n      jump\t// in\n    tag_54:\n      mload(0x40)\n      tag_56\n      swap2\n      swap1\n      tag_36\n      jump\t// in\n    tag_56:\n      mload(0x40)\n      dup1\n      swap2\n      sub\n      swap1\n      return\n        /* \"Campaign.sol\":3253:3662  function createRequest(string memory description, uint128 value, address payable recipient) public restricted {... */\n    tag_10:\n      callvalue\n      dup1\n      iszero\n      tag_57\n      jumpi\n      revert(0x00, 0x00)\n    tag_57:\n      pop\n      tag_58\n      0x04\n      dup1\n      calldatasize\n      sub\n      dup2\n      add\n      swap1\n      tag_59\n      swap2\n      swap1\n      tag_60\n      jump\t// in\n    tag_59:\n      tag_61\n      jump\t// in\n    tag_58:\n      stop\n        /* \"Campaign.sol\":2886:3247  function contribute() public payable {... */\n    tag_11:\n      tag_62\n      tag_63\n      jump\t// in\n    tag_62:\n      stop\n        /* \"Campaign.sol\":3668:4602  function approveRequest(uint index) public {... */\n    tag_12:\n      callvalue\n      dup1\n      iszero\n      tag_64\n      jumpi\n      revert(0x00, 0x00)\n    tag_64:\n      pop\n      tag_65\n      0x04\n      dup1\n      calldatasize\n      sub\n      dup2\n      add\n      swap1\n      tag_66\n      swap2\n      swap1\n      tag_24\n      jump\t// in\n    tag_66:\n      tag_67\n      jump\t// in\n    tag_65:\n      stop\n        /* \"Campaign.sol\":1130:1158  uint public contributorCount */\n    tag_13:\n      callvalue\n      dup1\n      iszero\n      tag_68\n      jumpi\n      revert(0x00, 0x00)\n    tag_68:\n      pop\n      tag_69\n      tag_70\n      jump\t// in\n    tag_69:\n      mload(0x40)\n      tag_71\n      swap2\n      swap1\n      tag_36\n      jump\t// in\n    tag_71:\n      mload(0x40)\n      dup1\n      swap2\n      sub\n      swap1\n      return\n        /* \"Campaign.sol\":5898:6203  function contributorHasApproved(address contributor, uint index) public view returns (bool) {... */\n    tag_19:\n        /* \"Campaign.sol\":5984:5988  bool */\n      0x00\n        /* \"Campaign.sol\":6000:6028  ContributorData storage data */\n      0x00\n        /* \"Campaign.sol\":6031:6047  contributorsData */\n      0x04\n        /* \"Campaign.sol\":6031:6060  contributorsData[contributor] */\n      0x00\n        /* \"Campaign.sol\":6048:6059  contributor */\n      dup6\n        /* \"Campaign.sol\":6031:6060  contributorsData[contributor] */\n      0xffffffffffffffffffffffffffffffffffffffff\n      and\n      0xffffffffffffffffffffffffffffffffffffffff\n      and\n      dup2\n      mstore\n      0x20\n      add\n      swap1\n      dup2\n      mstore\n      0x20\n      add\n      0x00\n      keccak256\n        /* \"Campaign.sol\":6000:6060  ContributorData storage data = contributorsData[contributor] */\n      swap1\n      pop\n        /* \"Campaign.sol\":6108:6112  data */\n      dup1\n        /* \"Campaign.sol\":6108:6122  data.approvals */\n      0x01\n      add\n        /* \"Campaign.sol\":6108:6129  data.approvals[index] */\n      0x00\n        /* \"Campaign.sol\":6123:6128  index */\n      dup5\n        /* \"Campaign.sol\":6108:6129  data.approvals[index] */\n      dup2\n      mstore\n      0x20\n      add\n      swap1\n      dup2\n      mstore\n      0x20\n      add\n      0x00\n      keccak256\n      0x00\n      swap1\n      sload\n      swap1\n      0x0100\n      exp\n      swap1\n      div\n      0xff\n      and\n        /* \"Campaign.sol\":6101:6129  return data.approvals[index] */\n      swap2\n      pop\n      pop\n        /* \"Campaign.sol\":5898:6203  function contributorHasApproved(address contributor, uint index) public view returns (bool) {... */\n      swap3\n      swap2\n      pop\n      pop\n      jump\t// out\n        /* \"Campaign.sol\":4608:5672  function finalizeRequest(uint index) public payable restricted {... */\n    tag_25:\n        /* \"Campaign.sol\":2517:2524  manager */\n      0x00\n      0x00\n      swap1\n      sload\n      swap1\n      0x0100\n      exp\n      swap1\n      div\n      0xffffffffffffffffffffffffffffffffffffffff\n      and\n        /* \"Campaign.sol\":2503:2524  msg.sender == manager */\n      0xffffffffffffffffffffffffffffffffffffffff\n      and\n        /* \"Campaign.sol\":2503:2513  msg.sender */\n      caller\n        /* \"Campaign.sol\":2503:2524  msg.sender == manager */\n      0xffffffffffffffffffffffffffffffffffffffff\n      and\n      eq\n        /* \"Campaign.sol\":2495:2558  require(msg.sender == manager, \"Only the manager can do this.\") */\n      tag_74\n      jumpi\n      mload(0x40)\n      0x08c379a000000000000000000000000000000000000000000000000000000000\n      dup2\n      mstore\n      0x04\n      add\n      tag_75\n      swap1\n      tag_76\n      jump\t// in\n    tag_75:\n      mload(0x40)\n      dup1\n      swap2\n      sub\n      swap1\n      revert\n    tag_74:\n        /* \"Campaign.sol\":4713:4722  msg.value */\n      callvalue\n        /* \"Campaign.sol\":4689:4710  address(this).balance */\n      selfbalance\n        /* \"Campaign.sol\":4689:4722  address(this).balance > msg.value */\n      gt\n        /* \"Campaign.sol\":4681:4757  require(address(this).balance > msg.value, \"Insufficient contract balance.\") */\n      tag_78\n      jumpi\n      mload(0x40)\n      0x08c379a000000000000000000000000000000000000000000000000000000000\n      dup2\n      mstore\n      0x04\n      add\n      tag_79\n      swap1\n      tag_80\n      jump\t// in\n    tag_79:\n      mload(0x40)\n      dup1\n      swap2\n      sub\n      swap1\n      revert\n    tag_78:\n        /* \"Campaign.sol\":4767:4790  Request storage request */\n      0x00\n        /* \"Campaign.sol\":4793:4801  requests */\n      0x03\n        /* \"Campaign.sol\":4802:4807  index */\n      dup3\n        /* \"Campaign.sol\":4793:4808  requests[index] */\n      dup2\n      sload\n      dup2\n      lt\n      tag_81\n      jumpi\n      tag_82\n      tag_83\n      jump\t// in\n    tag_82:\n    tag_81:\n      swap1\n      0x00\n      mstore\n      keccak256(0x00, 0x20)\n      swap1\n      0x04\n      mul\n      add\n        /* \"Campaign.sol\":4767:4808  Request storage request = requests[index] */\n      swap1\n      pop\n        /* \"Campaign.sol\":4818:4845  uint cachedContributorCount */\n      0x00\n        /* \"Campaign.sol\":4848:4864  contributorCount */\n      sload(0x02)\n        /* \"Campaign.sol\":4818:4864  uint cachedContributorCount = contributorCount */\n      swap1\n      pop\n        /* \"Campaign.sol\":5039:5040  2 */\n      0x02\n        /* \"Campaign.sol\":5013:5035  cachedContributorCount */\n      dup2\n        /* \"Campaign.sol\":5013:5040  cachedContributorCount >> 2 */\n      swap1\n      shr\n        /* \"Campaign.sol\":4988:4995  request */\n      dup3\n        /* \"Campaign.sol\":4988:5009  request.approvalCount */\n      0x00\n      add\n      0x01\n      swap1\n      sload\n      swap1\n      0x0100\n      exp\n      swap1\n      div\n      0xffffffffffffffffffffffffffffffff\n      and\n        /* \"Campaign.sol\":4988:5041  request.approvalCount > (cachedContributorCount >> 2) */\n      0xffffffffffffffffffffffffffffffff\n      and\n      gt\n        /* \"Campaign.sol\":4980:5067  require(request.approvalCount > (cachedContributorCount >> 2), \"Not enough approvals.\") */\n      tag_85\n      jumpi\n      mload(0x40)\n      0x08c379a000000000000000000000000000000000000000000000000000000000\n      dup2\n      mstore\n      0x04\n      add\n      tag_86\n      swap1\n      tag_87\n      jump\t// in\n    tag_86:\n      mload(0x40)\n      dup1\n      swap2\n      sub\n      swap1\n      revert\n    tag_85:\n        /* \"Campaign.sol\":5202:5209  request */\n      dup2\n        /* \"Campaign.sol\":5202:5218  request.complete */\n      0x00\n      add\n      0x00\n      swap1\n      sload\n      swap1\n      0x0100\n      exp\n      swap1\n      div\n      0xff\n      and\n        /* \"Campaign.sol\":5201:5218  !request.complete */\n      iszero\n        /* \"Campaign.sol\":5193:5249  require(!request.complete, \"Request completed already.\") */\n      tag_88\n      jumpi\n      mload(0x40)\n      0x08c379a000000000000000000000000000000000000000000000000000000000\n      dup2\n      mstore\n      0x04\n      add\n      tag_89\n      swap1\n      tag_90\n      jump\t// in\n    tag_89:\n      mload(0x40)\n      dup1\n      swap2\n      sub\n      swap1\n      revert\n    tag_88:\n        /* \"Campaign.sol\":5430:5434  true */\n      0x01\n        /* \"Campaign.sol\":5411:5418  request */\n      dup3\n        /* \"Campaign.sol\":5411:5427  request.complete */\n      0x00\n      add\n      0x00\n        /* \"Campaign.sol\":5411:5434  request.complete = true */\n      0x0100\n      exp\n      dup2\n      sload\n      dup2\n      0xff\n      mul\n      not\n      and\n      swap1\n      dup4\n      iszero\n      iszero\n      mul\n      or\n      swap1\n      sstore\n      pop\n        /* \"Campaign.sol\":5498:5510  bool success */\n      0x00\n        /* \"Campaign.sol\":5516:5523  request */\n      dup3\n        /* \"Campaign.sol\":5516:5533  request.recipient */\n      0x02\n      add\n      0x00\n      swap1\n      sload\n      swap1\n      0x0100\n      exp\n      swap1\n      div\n      0xffffffffffffffffffffffffffffffffffffffff\n      and\n        /* \"Campaign.sol\":5516:5538  request.recipient.call */\n      0xffffffffffffffffffffffffffffffffffffffff\n      and\n        /* \"Campaign.sol\":5547:5554  request */\n      dup4\n        /* \"Campaign.sol\":5547:5560  request.value */\n      0x01\n      add\n      0x00\n      swap1\n      sload\n      swap1\n      0x0100\n      exp\n      swap1\n      div\n      0xffffffffffffffffffffffffffffffff\n      and\n        /* \"Campaign.sol\":5516:5566  request.recipient.call{ value: request.value }(\"\") */\n      0xffffffffffffffffffffffffffffffff\n      and\n      mload(0x40)\n      tag_91\n      swap1\n      tag_92\n      jump\t// in\n    tag_91:\n      0x00\n      mload(0x40)\n      dup1\n      dup4\n      sub\n      dup2\n      dup6\n      dup8\n      gas\n      call\n      swap3\n      pop\n      pop\n      pop\n      returndatasize\n      dup1\n      0x00\n      dup2\n      eq\n      tag_95\n      jumpi\n      mload(0x40)\n      swap2\n      pop\n      and(add(returndatasize, 0x3f), not(0x1f))\n      dup3\n      add\n      0x40\n      mstore\n      returndatasize\n      dup3\n      mstore\n      returndatasize\n      0x00\n      0x20\n      dup5\n      add\n      returndatacopy\n      jump(tag_94)\n    tag_95:\n      0x60\n      swap2\n      pop\n    tag_94:\n      pop\n        /* \"Campaign.sol\":5497:5566  (bool success, ) = request.recipient.call{ value: request.value }(\"\") */\n      pop\n      swap1\n      pop\n        /* \"Campaign.sol\":5584:5591  success */\n      dup1\n        /* \"Campaign.sol\":5576:5612  require(success, \"Transfer failed.\") */\n      tag_96\n      jumpi\n      mload(0x40)\n      0x08c379a000000000000000000000000000000000000000000000000000000000\n      dup2\n      mstore\n      0x04\n      add\n      tag_97\n      swap1\n      tag_98\n      jump\t// in\n    tag_97:\n      mload(0x40)\n      dup1\n      swap2\n      sub\n      swap1\n      revert\n    tag_96:\n        /* \"Campaign.sol\":5645:5655  msg.sender */\n      caller\n        /* \"Campaign.sol\":5628:5665  RequestFinalized(msg.sender, request) */\n      0xffffffffffffffffffffffffffffffffffffffff\n      and\n      0x6482699891199dc38768a11c7fb6dbd662e0e25b4d437301946c92bd4846f78d\n        /* \"Campaign.sol\":5657:5664  request */\n      dup5\n        /* \"Campaign.sol\":5628:5665  RequestFinalized(msg.sender, request) */\n      mload(0x40)\n      tag_99\n      swap2\n      swap1\n      tag_100\n      jump\t// in\n    tag_99:\n      mload(0x40)\n      dup1\n      swap2\n      sub\n      swap1\n      log2\n        /* \"Campaign.sol\":4671:5672  {... */\n      pop\n      pop\n      pop\n        /* \"Campaign.sol\":4608:5672  function finalizeRequest(uint index) public payable restricted {... */\n      pop\n      jump\t// out\n        /* \"Campaign.sol\":5678:5892  function isContributor(address contributor) public view returns (bool) {... */\n    tag_30:\n        /* \"Campaign.sol\":5743:5747  bool */\n      0x00\n        /* \"Campaign.sol\":5759:5787  ContributorData storage data */\n      0x00\n        /* \"Campaign.sol\":5790:5806  contributorsData */\n      0x04\n        /* \"Campaign.sol\":5790:5819  contributorsData[contributor] */\n      0x00\n        /* \"Campaign.sol\":5807:5818  contributor */\n      dup5\n        /* \"Campaign.sol\":5790:5819  contributorsData[contributor] */\n      0xffffffffffffffffffffffffffffffffffffffff\n      and\n      0xffffffffffffffffffffffffffffffffffffffff\n      and\n      dup2\n      mstore\n      0x20\n      add\n      swap1\n      dup2\n      mstore\n      0x20\n      add\n      0x00\n      keccak256\n        /* \"Campaign.sol\":5759:5819  ContributorData storage data = contributorsData[contributor] */\n      swap1\n      pop\n        /* \"Campaign.sol\":5867:5871  data */\n      dup1\n        /* \"Campaign.sol\":5867:5885  data.isContributor */\n      0x00\n      add\n      0x00\n      swap1\n      sload\n      swap1\n      0x0100\n      exp\n      swap1\n      div\n      0xff\n      and\n        /* \"Campaign.sol\":5860:5885  return data.isContributor */\n      swap2\n      pop\n      pop\n        /* \"Campaign.sol\":5678:5892  function isContributor(address contributor) public view returns (bool) {... */\n      swap2\n      swap1\n      pop\n      jump\t// out\n        /* \"Campaign.sol\":6209:6303  function getRequestsCount() public view returns (uint) {... */\n    tag_34:\n        /* \"Campaign.sol\":6258:6262  uint */\n      0x00\n        /* \"Campaign.sol\":6281:6289  requests */\n      0x03\n        /* \"Campaign.sol\":6281:6296  requests.length */\n      dup1\n      sload\n      swap1\n      pop\n        /* \"Campaign.sol\":6274:6296  return requests.length */\n      swap1\n      pop\n        /* \"Campaign.sol\":6209:6303  function getRequestsCount() public view returns (uint) {... */\n      swap1\n      jump\t// out\n        /* \"Campaign.sol\":6310:6582  function getSummary() public view returns (... */\n    tag_39:\n        /* \"Campaign.sol\":6362:6366  uint */\n      0x00\n        /* \"Campaign.sol\":6368:6372  uint */\n      0x00\n        /* \"Campaign.sol\":6374:6378  uint */\n      0x00\n        /* \"Campaign.sol\":6380:6384  uint */\n      0x00\n        /* \"Campaign.sol\":6386:6393  address */\n      0x00\n        /* \"Campaign.sol\":6431:6450  minimumContribution */\n      sload(0x01)\n        /* \"Campaign.sol\":6464:6485  address(this).balance */\n      selfbalance\n        /* \"Campaign.sol\":6499:6507  requests */\n      0x03\n        /* \"Campaign.sol\":6499:6514  requests.length */\n      dup1\n      sload\n      swap1\n      pop\n        /* \"Campaign.sol\":6528:6544  contributorCount */\n      sload(0x02)\n        /* \"Campaign.sol\":6558:6565  manager */\n      0x00\n      0x00\n      swap1\n      sload\n      swap1\n      0x0100\n      exp\n      swap1\n      div\n      0xffffffffffffffffffffffffffffffffffffffff\n      and\n        /* \"Campaign.sol\":6410:6575  return (... */\n      swap5\n      pop\n      swap5\n      pop\n      swap5\n      pop\n      swap5\n      pop\n      swap5\n      pop\n        /* \"Campaign.sol\":6310:6582  function getSummary() public view returns (... */\n      swap1\n      swap2\n      swap3\n      swap4\n      swap5\n      jump\t// out\n        /* \"Campaign.sol\":1003:1025  address public manager */\n    tag_44:\n      0x00\n      0x00\n      swap1\n      sload\n      swap1\n      0x0100\n      exp\n      swap1\n      div\n      0xffffffffffffffffffffffffffffffffffffffff\n      and\n      dup2\n      jump\t// out\n        /* \"Campaign.sol\":1225:1250  Request[] public requests */\n    tag_50:\n      0x03\n      dup2\n      dup2\n      sload\n      dup2\n      lt\n      tag_104\n      jumpi\n      0x00\n      dup1\n      revert\n    tag_104:\n      swap1\n      0x00\n      mstore\n      keccak256(0x00, 0x20)\n      swap1\n      0x04\n      mul\n      add\n      0x00\n      swap2\n      pop\n      swap1\n      pop\n      dup1\n      0x00\n      add\n      0x00\n      swap1\n      sload\n      swap1\n      0x0100\n      exp\n      swap1\n      div\n      0xff\n      and\n      swap1\n      dup1\n      0x00\n      add\n      0x01\n      swap1\n      sload\n      swap1\n      0x0100\n      exp\n      swap1\n      div\n      0xffffffffffffffffffffffffffffffff\n      and\n      swap1\n      dup1\n      0x01\n      add\n      0x00\n      swap1\n      sload\n      swap1\n      0x0100\n      exp\n      swap1\n      div\n      0xffffffffffffffffffffffffffffffff\n      and\n      swap1\n      dup1\n      0x02\n      add\n      0x00\n      swap1\n      sload\n      swap1\n      0x0100\n      exp\n      swap1\n      div\n      0xffffffffffffffffffffffffffffffffffffffff\n      and\n      swap1\n      dup1\n      0x03\n      add\n      dup1\n      sload\n      tag_106\n      swap1\n      tag_107\n      jump\t// in\n    tag_106:\n      dup1\n      0x1f\n      add\n      0x20\n      dup1\n      swap2\n      div\n      mul\n      0x20\n      add\n      mload(0x40)\n      swap1\n      dup2\n      add\n      0x40\n      mstore\n      dup1\n      swap3\n      swap2\n      swap1\n      dup2\n      dup2\n      mstore\n      0x20\n      add\n      dup3\n      dup1\n      sload\n      tag_108\n      swap1\n      tag_107\n      jump\t// in\n    tag_108:\n      dup1\n      iszero\n      tag_109\n      jumpi\n      dup1\n      0x1f\n      lt\n      tag_110\n      jumpi\n      0x0100\n      dup1\n      dup4\n      sload\n      div\n      mul\n      dup4\n      mstore\n      swap2\n      0x20\n      add\n      swap2\n      jump(tag_109)\n    tag_110:\n      dup3\n      add\n      swap2\n      swap1\n      0x00\n      mstore\n      keccak256(0x00, 0x20)\n      swap1\n    tag_111:\n      dup2\n      sload\n      dup2\n      mstore\n      swap1\n      0x01\n      add\n      swap1\n      0x20\n      add\n      dup1\n      dup4\n      gt\n      tag_111\n      jumpi\n      dup3\n      swap1\n      sub\n      0x1f\n      and\n      dup3\n      add\n      swap2\n    tag_109:\n      pop\n      pop\n      pop\n      pop\n      pop\n      swap1\n      pop\n      dup6\n      jump\t// out\n        /* \"Campaign.sol\":1062:1093  uint public minimumContribution */\n    tag_55:\n      sload(0x01)\n      dup2\n      jump\t// out\n        /* \"Campaign.sol\":3253:3662  function createRequest(string memory description, uint128 value, address payable recipient) public restricted {... */\n    tag_61:\n        /* \"Campaign.sol\":2517:2524  manager */\n      0x00\n      0x00\n      swap1\n      sload\n      swap1\n      0x0100\n      exp\n      swap1\n      div\n      0xffffffffffffffffffffffffffffffffffffffff\n      and\n        /* \"Campaign.sol\":2503:2524  msg.sender == manager */\n      0xffffffffffffffffffffffffffffffffffffffff\n      and\n        /* \"Campaign.sol\":2503:2513  msg.sender */\n      caller\n        /* \"Campaign.sol\":2503:2524  msg.sender == manager */\n      0xffffffffffffffffffffffffffffffffffffffff\n      and\n      eq\n        /* \"Campaign.sol\":2495:2558  require(msg.sender == manager, \"Only the manager can do this.\") */\n      tag_113\n      jumpi\n      mload(0x40)\n      0x08c379a000000000000000000000000000000000000000000000000000000000\n      dup2\n      mstore\n      0x04\n      add\n      tag_114\n      swap1\n      tag_76\n      jump\t// in\n    tag_114:\n      mload(0x40)\n      dup1\n      swap2\n      sub\n      swap1\n      revert\n    tag_113:\n        /* \"Campaign.sol\":3373:3398  Request memory newRequest */\n      0x00\n        /* \"Campaign.sol\":3401:3577  Request({... */\n      mload(0x40)\n      dup1\n      0xa0\n      add\n      0x40\n      mstore\n      dup1\n        /* \"Campaign.sol\":3531:3536  false */\n      0x00\n        /* \"Campaign.sol\":3401:3577  Request({... */\n      iszero\n      iszero\n      dup2\n      mstore\n      0x20\n      add\n        /* \"Campaign.sol\":3565:3566  0 */\n      0x00\n        /* \"Campaign.sol\":3401:3577  Request({... */\n      0xffffffffffffffffffffffffffffffff\n      and\n      dup2\n      mstore\n      0x20\n      add\n        /* \"Campaign.sol\":3468:3473  value */\n      dup5\n        /* \"Campaign.sol\":3401:3577  Request({... */\n      0xffffffffffffffffffffffffffffffff\n      and\n      dup2\n      mstore\n      0x20\n      add\n        /* \"Campaign.sol\":3498:3507  recipient */\n      dup4\n        /* \"Campaign.sol\":3401:3577  Request({... */\n      0xffffffffffffffffffffffffffffffffffffffff\n      and\n      dup2\n      mstore\n      0x20\n      add\n        /* \"Campaign.sol\":3436:3447  description */\n      dup6\n        /* \"Campaign.sol\":3401:3577  Request({... */\n      dup2\n      mstore\n      pop\n        /* \"Campaign.sol\":3373:3577  Request memory newRequest = Request({... */\n      swap1\n      pop\n        /* \"Campaign.sol\":3588:3596  requests */\n      0x03\n        /* \"Campaign.sol\":3602:3612  newRequest */\n      dup2\n        /* \"Campaign.sol\":3588:3613  requests.push(newRequest) */\n      swap1\n      dup1\n      0x01\n      dup2\n      sload\n      add\n      dup1\n      dup3\n      sstore\n      dup1\n      swap2\n      pop\n      pop\n      0x01\n      swap1\n      sub\n      swap1\n      0x00\n      mstore\n      keccak256(0x00, 0x20)\n      swap1\n      0x04\n      mul\n      add\n      0x00\n      swap1\n      swap2\n      swap1\n      swap2\n      swap1\n      swap2\n      pop\n      0x00\n      dup3\n      add\n      mload\n      dup2\n      0x00\n      add\n      exp(0x0100, 0x00)\n      dup2\n      sload\n      dup2\n      0xff\n      mul\n      not\n      and\n      swap1\n      dup4\n      iszero\n      iszero\n      mul\n      or\n      swap1\n      sstore\n      pop\n      0x20\n      dup3\n      add\n      mload\n      dup2\n      0x00\n      add\n      exp(0x0100, 0x01)\n      dup2\n      sload\n      dup2\n      0xffffffffffffffffffffffffffffffff\n      mul\n      not\n      and\n      swap1\n      dup4\n      0xffffffffffffffffffffffffffffffff\n      and\n      mul\n      or\n      swap1\n      sstore\n      pop\n      0x40\n      dup3\n      add\n      mload\n      dup2\n      0x01\n      add\n      exp(0x0100, 0x00)\n      dup2\n      sload\n      dup2\n      0xffffffffffffffffffffffffffffffff\n      mul\n      not\n      and\n      swap1\n      dup4\n      0xffffffffffffffffffffffffffffffff\n      and\n      mul\n      or\n      swap1\n      sstore\n      pop\n      0x60\n      dup3\n      add\n      mload\n      dup2\n      0x02\n      add\n      exp(0x0100, 0x00)\n      dup2\n      sload\n      dup2\n      0xffffffffffffffffffffffffffffffffffffffff\n      mul\n      not\n      and\n      swap1\n      dup4\n      0xffffffffffffffffffffffffffffffffffffffff\n      and\n      mul\n      or\n      swap1\n      sstore\n      pop\n      0x80\n      dup3\n      add\n      mload\n      dup2\n      0x03\n      add\n      swap1\n      dup2\n      tag_117\n      swap2\n      swap1\n      tag_118\n      jump\t// in\n    tag_117:\n      pop\n      pop\n      pop\n        /* \"Campaign.sol\":3644:3654  msg.sender */\n      caller\n        /* \"Campaign.sol\":3629:3655  RequestCreated(msg.sender) */\n      0xffffffffffffffffffffffffffffffffffffffff\n      and\n      0x60dc38bed424a87163b4220b98edb283977533b0a85a5743f8d35c28fd495e47\n      mload(0x40)\n      mload(0x40)\n      dup1\n      swap2\n      sub\n      swap1\n      log2\n        /* \"Campaign.sol\":3363:3662  {... */\n      pop\n        /* \"Campaign.sol\":3253:3662  function createRequest(string memory description, uint128 value, address payable recipient) public restricted {... */\n      pop\n      pop\n      pop\n      jump\t// out\n        /* \"Campaign.sol\":2886:3247  function contribute() public payable {... */\n    tag_63:\n        /* \"Campaign.sol\":2953:2972  minimumContribution */\n      sload(0x01)\n        /* \"Campaign.sol\":2941:2950  msg.value */\n      callvalue\n        /* \"Campaign.sol\":2941:2972  msg.value > minimumContribution */\n      gt\n        /* \"Campaign.sol\":2933:2997  require(msg.value > minimumContribution, \"Minimum ETH not met.\") */\n      tag_120\n      jumpi\n      mload(0x40)\n      0x08c379a000000000000000000000000000000000000000000000000000000000\n      dup2\n      mstore\n      0x04\n      add\n      tag_121\n      swap1\n      tag_122\n      jump\t// in\n    tag_121:\n      mload(0x40)\n      dup1\n      swap2\n      sub\n      swap1\n      revert\n    tag_120:\n        /* \"Campaign.sol\":3007:3035  ContributorData storage data */\n      0x00\n        /* \"Campaign.sol\":3038:3054  contributorsData */\n      0x04\n        /* \"Campaign.sol\":3038:3066  contributorsData[msg.sender] */\n      0x00\n        /* \"Campaign.sol\":3055:3065  msg.sender */\n      caller\n        /* \"Campaign.sol\":3038:3066  contributorsData[msg.sender] */\n      0xffffffffffffffffffffffffffffffffffffffff\n      and\n      0xffffffffffffffffffffffffffffffffffffffff\n      and\n      dup2\n      mstore\n      0x20\n      add\n      swap1\n      dup2\n      mstore\n      0x20\n      add\n      0x00\n      keccak256\n        /* \"Campaign.sol\":3007:3066  ContributorData storage data = contributorsData[msg.sender] */\n      swap1\n      pop\n        /* \"Campaign.sol\":3081:3085  data */\n      dup1\n        /* \"Campaign.sol\":3081:3099  data.isContributor */\n      0x00\n      add\n      0x00\n      swap1\n      sload\n      swap1\n      0x0100\n      exp\n      swap1\n      div\n      0xff\n      and\n        /* \"Campaign.sol\":3076:3183  if (!data.isContributor) {... */\n      tag_123\n      jumpi\n        /* \"Campaign.sol\":3115:3131  contributorCount */\n      0x02\n      0x00\n        /* \"Campaign.sol\":3115:3133  contributorCount++ */\n      dup2\n      sload\n      dup1\n      swap3\n      swap2\n      swap1\n      tag_124\n      swap1\n      tag_125\n      jump\t// in\n    tag_124:\n      swap2\n      swap1\n      pop\n      sstore\n      pop\n        /* \"Campaign.sol\":3168:3172  true */\n      0x01\n        /* \"Campaign.sol\":3147:3151  data */\n      dup2\n        /* \"Campaign.sol\":3147:3165  data.isContributor */\n      0x00\n      add\n      0x00\n        /* \"Campaign.sol\":3147:3172  data.isContributor = true */\n      0x0100\n      exp\n      dup2\n      sload\n      dup2\n      0xff\n      mul\n      not\n      and\n      swap1\n      dup4\n      iszero\n      iszero\n      mul\n      or\n      swap1\n      sstore\n      pop\n        /* \"Campaign.sol\":3076:3183  if (!data.isContributor) {... */\n    tag_123:\n        /* \"Campaign.sol\":3218:3228  msg.sender */\n      caller\n        /* \"Campaign.sol\":3197:3240  ContributionReceived(msg.sender, msg.value) */\n      0xffffffffffffffffffffffffffffffffffffffff\n      and\n      0x1bb460ccaaf70fbacfec17a376f8acbd278c1405590ffcc8ebe4b88daf4f64ad\n        /* \"Campaign.sol\":3230:3239  msg.value */\n      callvalue\n        /* \"Campaign.sol\":3197:3240  ContributionReceived(msg.sender, msg.value) */\n      mload(0x40)\n      tag_126\n      swap2\n      swap1\n      tag_36\n      jump\t// in\n    tag_126:\n      mload(0x40)\n      dup1\n      swap2\n      sub\n      swap1\n      log2\n        /* \"Campaign.sol\":2923:3247  {... */\n      pop\n        /* \"Campaign.sol\":2886:3247  function contribute() public payable {... */\n      jump\t// out\n        /* \"Campaign.sol\":3668:4602  function approveRequest(uint index) public {... */\n    tag_67:\n        /* \"Campaign.sol\":3721:3744  Request storage request */\n      0x00\n        /* \"Campaign.sol\":3747:3755  requests */\n      0x03\n        /* \"Campaign.sol\":3756:3761  index */\n      dup3\n        /* \"Campaign.sol\":3747:3762  requests[index] */\n      dup2\n      sload\n      dup2\n      lt\n      tag_128\n      jumpi\n      tag_129\n      tag_83\n      jump\t// in\n    tag_129:\n    tag_128:\n      swap1\n      0x00\n      mstore\n      keccak256(0x00, 0x20)\n      swap1\n      0x04\n      mul\n      add\n        /* \"Campaign.sol\":3721:3762  Request storage request = requests[index] */\n      swap1\n      pop\n        /* \"Campaign.sol\":3911:3939  ContributorData storage data */\n      0x00\n        /* \"Campaign.sol\":3942:3958  contributorsData */\n      0x04\n        /* \"Campaign.sol\":3942:3970  contributorsData[msg.sender] */\n      0x00\n        /* \"Campaign.sol\":3959:3969  msg.sender */\n      caller\n        /* \"Campaign.sol\":3942:3970  contributorsData[msg.sender] */\n      0xffffffffffffffffffffffffffffffffffffffff\n      and\n      0xffffffffffffffffffffffffffffffffffffffff\n      and\n      dup2\n      mstore\n      0x20\n      add\n      swap1\n      dup2\n      mstore\n      0x20\n      add\n      0x00\n      keccak256\n        /* \"Campaign.sol\":3911:3970  ContributorData storage data = contributorsData[msg.sender] */\n      swap1\n      pop\n        /* \"Campaign.sol\":4044:4048  data */\n      dup1\n        /* \"Campaign.sol\":4044:4062  data.isContributor */\n      0x00\n      add\n      0x00\n      swap1\n      sload\n      swap1\n      0x0100\n      exp\n      swap1\n      div\n      0xff\n      and\n        /* \"Campaign.sol\":4036:4090  require(data.isContributor, \"You've not contributed.\") */\n      tag_131\n      jumpi\n      mload(0x40)\n      0x08c379a000000000000000000000000000000000000000000000000000000000\n      dup2\n      mstore\n      0x04\n      add\n      tag_132\n      swap1\n      tag_133\n      jump\t// in\n    tag_132:\n      mload(0x40)\n      dup1\n      swap2\n      sub\n      swap1\n      revert\n    tag_131:\n        /* \"Campaign.sol\":4203:4207  data */\n      dup1\n        /* \"Campaign.sol\":4203:4217  data.approvals */\n      0x01\n      add\n        /* \"Campaign.sol\":4203:4224  data.approvals[index] */\n      0x00\n        /* \"Campaign.sol\":4218:4223  index */\n      dup5\n        /* \"Campaign.sol\":4203:4224  data.approvals[index] */\n      dup2\n      mstore\n      0x20\n      add\n      swap1\n      dup2\n      mstore\n      0x20\n      add\n      0x00\n      keccak256\n      0x00\n      swap1\n      sload\n      swap1\n      0x0100\n      exp\n      swap1\n      div\n      0xff\n      and\n        /* \"Campaign.sol\":4202:4224  !data.approvals[index] */\n      iszero\n        /* \"Campaign.sol\":4194:4258  require(!data.approvals[index], \"You've approved this request.\") */\n      tag_134\n      jumpi\n      mload(0x40)\n      0x08c379a000000000000000000000000000000000000000000000000000000000\n      dup2\n      mstore\n      0x04\n      add\n      tag_135\n      swap1\n      tag_136\n      jump\t// in\n    tag_135:\n      mload(0x40)\n      dup1\n      swap2\n      sub\n      swap1\n      revert\n    tag_134:\n        /* \"Campaign.sol\":4413:4417  true */\n      0x01\n        /* \"Campaign.sol\":4389:4393  data */\n      dup2\n        /* \"Campaign.sol\":4389:4403  data.approvals */\n      0x01\n      add\n        /* \"Campaign.sol\":4389:4410  data.approvals[index] */\n      0x00\n        /* \"Campaign.sol\":4404:4409  index */\n      dup6\n        /* \"Campaign.sol\":4389:4410  data.approvals[index] */\n      dup2\n      mstore\n      0x20\n      add\n      swap1\n      dup2\n      mstore\n      0x20\n      add\n      0x00\n      keccak256\n      0x00\n        /* \"Campaign.sol\":4389:4417  data.approvals[index] = true */\n      0x0100\n      exp\n      dup2\n      sload\n      dup2\n      0xff\n      mul\n      not\n      and\n      swap1\n      dup4\n      iszero\n      iszero\n      mul\n      or\n      swap1\n      sstore\n      pop\n        /* \"Campaign.sol\":4487:4494  request */\n      dup2\n        /* \"Campaign.sol\":4487:4508  request.approvalCount */\n      0x00\n      add\n      0x01\n        /* \"Campaign.sol\":4487:4510  request.approvalCount++ */\n      dup2\n      dup2\n      swap1\n      sload\n      swap1\n      0x0100\n      exp\n      swap1\n      div\n      0xffffffffffffffffffffffffffffffff\n      and\n      dup1\n      swap3\n      swap2\n      swap1\n      tag_137\n      swap1\n      tag_138\n      jump\t// in\n    tag_137:\n      swap2\n      swap1\n      0x0100\n      exp\n      dup2\n      sload\n      dup2\n      0xffffffffffffffffffffffffffffffff\n      mul\n      not\n      and\n      swap1\n      dup4\n      0xffffffffffffffffffffffffffffffff\n      and\n      mul\n      or\n      swap1\n      sstore\n      pop\n      pop\n        /* \"Campaign.sol\":4575:4585  msg.sender */\n      caller\n        /* \"Campaign.sol\":4559:4595  RequestApproved(msg.sender, request) */\n      0xffffffffffffffffffffffffffffffffffffffff\n      and\n      0x27f12316d57cc5dfaf0c80128f1ec8290f7d29ce06df240b688ccdf492091fb2\n        /* \"Campaign.sol\":4587:4594  request */\n      dup4\n        /* \"Campaign.sol\":4559:4595  RequestApproved(msg.sender, request) */\n      mload(0x40)\n      tag_139\n      swap2\n      swap1\n      tag_100\n      jump\t// in\n    tag_139:\n      mload(0x40)\n      dup1\n      swap2\n      sub\n      swap1\n      log2\n        /* \"Campaign.sol\":3711:4602  {... */\n      pop\n      pop\n        /* \"Campaign.sol\":3668:4602  function approveRequest(uint index) public {... */\n      pop\n      jump\t// out\n        /* \"Campaign.sol\":1130:1158  uint public contributorCount */\n    tag_70:\n      sload(0x02)\n      dup2\n      jump\t// out\n        /* \"#utility.yul\":7:82   */\n    tag_140:\n        /* \"#utility.yul\":40:46   */\n      0x00\n        /* \"#utility.yul\":73:75   */\n      0x40\n        /* \"#utility.yul\":67:76   */\n      mload\n        /* \"#utility.yul\":57:76   */\n      swap1\n      pop\n        /* \"#utility.yul\":7:82   */\n      swap1\n      jump\t// out\n        /* \"#utility.yul\":88:205   */\n    tag_141:\n        /* \"#utility.yul\":197:198   */\n      0x00\n        /* \"#utility.yul\":194:195   */\n      0x00\n        /* \"#utility.yul\":187:199   */\n      revert\n        /* \"#utility.yul\":211:328   */\n    tag_142:\n        /* \"#utility.yul\":320:321   */\n      0x00\n        /* \"#utility.yul\":317:318   */\n      0x00\n        /* \"#utility.yul\":310:322   */\n      revert\n        /* \"#utility.yul\":334:460   */\n    tag_143:\n        /* \"#utility.yul\":371:378   */\n      0x00\n        /* \"#utility.yul\":411:453   */\n      0xffffffffffffffffffffffffffffffffffffffff\n        /* \"#utility.yul\":404:409   */\n      dup3\n        /* \"#utility.yul\":400:454   */\n      and\n        /* \"#utility.yul\":389:454   */\n      swap1\n      pop\n        /* \"#utility.yul\":334:460   */\n      swap2\n      swap1\n      pop\n      jump\t// out\n        /* \"#utility.yul\":466:562   */\n    tag_144:\n        /* \"#utility.yul\":503:510   */\n      0x00\n        /* \"#utility.yul\":532:556   */\n      tag_233\n        /* \"#utility.yul\":550:555   */\n      dup3\n        /* \"#utility.yul\":532:556   */\n      tag_143\n      jump\t// in\n    tag_233:\n        /* \"#utility.yul\":521:556   */\n      swap1\n      pop\n        /* \"#utility.yul\":466:562   */\n      swap2\n      swap1\n      pop\n      jump\t// out\n        /* \"#utility.yul\":568:690   */\n    tag_145:\n        /* \"#utility.yul\":641:665   */\n      tag_235\n        /* \"#utility.yul\":659:664   */\n      dup2\n        /* \"#utility.yul\":641:665   */\n      tag_144\n      jump\t// in\n    tag_235:\n        /* \"#utility.yul\":634:639   */\n      dup2\n        /* \"#utility.yul\":631:666   */\n      eq\n        /* \"#utility.yul\":621:684   */\n      tag_236\n      jumpi\n        /* \"#utility.yul\":680:681   */\n      0x00\n        /* \"#utility.yul\":677:678   */\n      0x00\n        /* \"#utility.yul\":670:682   */\n      revert\n        /* \"#utility.yul\":621:684   */\n    tag_236:\n        /* \"#utility.yul\":568:690   */\n      pop\n      jump\t// out\n        /* \"#utility.yul\":696:835   */\n    tag_146:\n        /* \"#utility.yul\":742:747   */\n      0x00\n        /* \"#utility.yul\":780:786   */\n      dup2\n        /* \"#utility.yul\":767:787   */\n      calldataload\n        /* \"#utility.yul\":758:787   */\n      swap1\n      pop\n        /* \"#utility.yul\":796:829   */\n      tag_238\n        /* \"#utility.yul\":823:828   */\n      dup2\n        /* \"#utility.yul\":796:829   */\n      tag_145\n      jump\t// in\n    tag_238:\n        /* \"#utility.yul\":696:835   */\n      swap3\n      swap2\n      pop\n      pop\n      jump\t// out\n        /* \"#utility.yul\":841:918   */\n    tag_147:\n        /* \"#utility.yul\":878:885   */\n      0x00\n        /* \"#utility.yul\":907:912   */\n      dup2\n        /* \"#utility.yul\":896:912   */\n      swap1\n      pop\n        /* \"#utility.yul\":841:918   */\n      swap2\n      swap1\n      pop\n      jump\t// out\n        /* \"#utility.yul\":924:1046   */\n    tag_148:\n        /* \"#utility.yul\":997:1021   */\n      tag_241\n        /* \"#utility.yul\":1015:1020   */\n      dup2\n        /* \"#utility.yul\":997:1021   */\n      tag_147\n      jump\t// in\n    tag_241:\n        /* \"#utility.yul\":990:995   */\n      dup2\n        /* \"#utility.yul\":987:1022   */\n      eq\n        /* \"#utility.yul\":977:1040   */\n      tag_242\n      jumpi\n        /* \"#utility.yul\":1036:1037   */\n      0x00\n        /* \"#utility.yul\":1033:1034   */\n      0x00\n        /* \"#utility.yul\":1026:1038   */\n      revert\n        /* \"#utility.yul\":977:1040   */\n    tag_242:\n        /* \"#utility.yul\":924:1046   */\n      pop\n      jump\t// out\n        /* \"#utility.yul\":1052:1191   */\n    tag_149:\n        /* \"#utility.yul\":1098:1103   */\n      0x00\n        /* \"#utility.yul\":1136:1142   */\n      dup2\n        /* \"#utility.yul\":1123:1143   */\n      calldataload\n        /* \"#utility.yul\":1114:1143   */\n      swap1\n      pop\n        /* \"#utility.yul\":1152:1185   */\n      tag_244\n        /* \"#utility.yul\":1179:1184   */\n      dup2\n        /* \"#utility.yul\":1152:1185   */\n      tag_148\n      jump\t// in\n    tag_244:\n        /* \"#utility.yul\":1052:1191   */\n      swap3\n      swap2\n      pop\n      pop\n      jump\t// out\n        /* \"#utility.yul\":1197:1671   */\n    tag_18:\n        /* \"#utility.yul\":1265:1271   */\n      0x00\n        /* \"#utility.yul\":1273:1279   */\n      0x00\n        /* \"#utility.yul\":1322:1324   */\n      0x40\n        /* \"#utility.yul\":1310:1319   */\n      dup4\n        /* \"#utility.yul\":1301:1308   */\n      dup6\n        /* \"#utility.yul\":1297:1320   */\n      sub\n        /* \"#utility.yul\":1293:1325   */\n      slt\n        /* \"#utility.yul\":1290:1409   */\n      iszero\n      tag_246\n      jumpi\n        /* \"#utility.yul\":1328:1407   */\n      tag_247\n      tag_141\n      jump\t// in\n    tag_247:\n        /* \"#utility.yul\":1290:1409   */\n    tag_246:\n        /* \"#utility.yul\":1448:1449   */\n      0x00\n        /* \"#utility.yul\":1473:1526   */\n      tag_248\n        /* \"#utility.yul\":1518:1525   */\n      dup6\n        /* \"#utility.yul\":1509:1515   */\n      dup3\n        /* \"#utility.yul\":1498:1507   */\n      dup7\n        /* \"#utility.yul\":1494:1516   */\n      add\n        /* \"#utility.yul\":1473:1526   */\n      tag_146\n      jump\t// in\n    tag_248:\n        /* \"#utility.yul\":1463:1526   */\n      swap3\n      pop\n        /* \"#utility.yul\":1419:1536   */\n      pop\n        /* \"#utility.yul\":1575:1577   */\n      0x20\n        /* \"#utility.yul\":1601:1654   */\n      tag_249\n        /* \"#utility.yul\":1646:1653   */\n      dup6\n        /* \"#utility.yul\":1637:1643   */\n      dup3\n        /* \"#utility.yul\":1626:1635   */\n      dup7\n        /* \"#utility.yul\":1622:1644   */\n      add\n        /* \"#utility.yul\":1601:1654   */\n      tag_149\n      jump\t// in\n    tag_249:\n        /* \"#utility.yul\":1591:1654   */\n      swap2\n      pop\n        /* \"#utility.yul\":1546:1664   */\n      pop\n        /* \"#utility.yul\":1197:1671   */\n      swap3\n      pop\n      swap3\n      swap1\n      pop\n      jump\t// out\n        /* \"#utility.yul\":1677:1767   */\n    tag_150:\n        /* \"#utility.yul\":1711:1718   */\n      0x00\n        /* \"#utility.yul\":1754:1759   */\n      dup2\n        /* \"#utility.yul\":1747:1760   */\n      iszero\n        /* \"#utility.yul\":1740:1761   */\n      iszero\n        /* \"#utility.yul\":1729:1761   */\n      swap1\n      pop\n        /* \"#utility.yul\":1677:1767   */\n      swap2\n      swap1\n      pop\n      jump\t// out\n        /* \"#utility.yul\":1773:1882   */\n    tag_151:\n        /* \"#utility.yul\":1854:1875   */\n      tag_252\n        /* \"#utility.yul\":1869:1874   */\n      dup2\n        /* \"#utility.yul\":1854:1875   */\n      tag_150\n      jump\t// in\n    tag_252:\n        /* \"#utility.yul\":1849:1852   */\n      dup3\n        /* \"#utility.yul\":1842:1876   */\n      mstore\n        /* \"#utility.yul\":1773:1882   */\n      pop\n      pop\n      jump\t// out\n        /* \"#utility.yul\":1888:2098   */\n    tag_21:\n        /* \"#utility.yul\":1975:1979   */\n      0x00\n        /* \"#utility.yul\":2013:2015   */\n      0x20\n        /* \"#utility.yul\":2002:2011   */\n      dup3\n        /* \"#utility.yul\":1998:2016   */\n      add\n        /* \"#utility.yul\":1990:2016   */\n      swap1\n      pop\n        /* \"#utility.yul\":2026:2091   */\n      tag_254\n        /* \"#utility.yul\":2088:2089   */\n      0x00\n        /* \"#utility.yul\":2077:2086   */\n      dup4\n        /* \"#utility.yul\":2073:2090   */\n      add\n        /* \"#utility.yul\":2064:2070   */\n      dup5\n        /* \"#utility.yul\":2026:2091   */\n      tag_151\n      jump\t// in\n    tag_254:\n        /* \"#utility.yul\":1888:2098   */\n      swap3\n      swap2\n      pop\n      pop\n      jump\t// out\n        /* \"#utility.yul\":2104:2433   */\n    tag_24:\n        /* \"#utility.yul\":2163:2169   */\n      0x00\n        /* \"#utility.yul\":2212:2214   */\n      0x20\n        /* \"#utility.yul\":2200:2209   */\n      dup3\n        /* \"#utility.yul\":2191:2198   */\n      dup5\n        /* \"#utility.yul\":2187:2210   */\n      sub\n        /* \"#utility.yul\":2183:2215   */\n      slt\n        /* \"#utility.yul\":2180:2299   */\n      iszero\n      tag_256\n      jumpi\n        /* \"#utility.yul\":2218:2297   */\n      tag_257\n      tag_141\n      jump\t// in\n    tag_257:\n        /* \"#utility.yul\":2180:2299   */\n    tag_256:\n        /* \"#utility.yul\":2338:2339   */\n      0x00\n        /* \"#utility.yul\":2363:2416   */\n      tag_258\n        /* \"#utility.yul\":2408:2415   */\n      dup5\n        /* \"#utility.yul\":2399:2405   */\n      dup3\n        /* \"#utility.yul\":2388:2397   */\n      dup6\n        /* \"#utility.yul\":2384:2406   */\n      add\n        /* \"#utility.yul\":2363:2416   */\n      tag_149\n      jump\t// in\n    tag_258:\n        /* \"#utility.yul\":2353:2416   */\n      swap2\n      pop\n        /* \"#utility.yul\":2309:2426   */\n      pop\n        /* \"#utility.yul\":2104:2433   */\n      swap3\n      swap2\n      pop\n      pop\n      jump\t// out\n        /* \"#utility.yul\":2439:2768   */\n    tag_29:\n        /* \"#utility.yul\":2498:2504   */\n      0x00\n        /* \"#utility.yul\":2547:2549   */\n      0x20\n        /* \"#utility.yul\":2535:2544   */\n      dup3\n        /* \"#utility.yul\":2526:2533   */\n      dup5\n        /* \"#utility.yul\":2522:2545   */\n      sub\n        /* \"#utility.yul\":2518:2550   */\n      slt\n        /* \"#utility.yul\":2515:2634   */\n      iszero\n      tag_260\n      jumpi\n        /* \"#utility.yul\":2553:2632   */\n      tag_261\n      tag_141\n      jump\t// in\n    tag_261:\n        /* \"#utility.yul\":2515:2634   */\n    tag_260:\n        /* \"#utility.yul\":2673:2674   */\n      0x00\n        /* \"#utility.yul\":2698:2751   */\n      tag_262\n        /* \"#utility.yul\":2743:2750   */\n      dup5\n        /* \"#utility.yul\":2734:2740   */\n      dup3\n        /* \"#utility.yul\":2723:2732   */\n      dup6\n        /* \"#utility.yul\":2719:2741   */\n      add\n        /* \"#utility.yul\":2698:2751   */\n      tag_146\n      jump\t// in\n    tag_262:\n        /* \"#utility.yul\":2688:2751   */\n      swap2\n      pop\n        /* \"#utility.yul\":2644:2761   */\n      pop\n        /* \"#utility.yul\":2439:2768   */\n      swap3\n      swap2\n      pop\n      pop\n      jump\t// out\n        /* \"#utility.yul\":2774:2892   */\n    tag_152:\n        /* \"#utility.yul\":2861:2885   */\n      tag_264\n        /* \"#utility.yul\":2879:2884   */\n      dup2\n        /* \"#utility.yul\":2861:2885   */\n      tag_147\n      jump\t// in\n    tag_264:\n        /* \"#utility.yul\":2856:2859   */\n      dup3\n        /* \"#utility.yul\":2849:2886   */\n      mstore\n        /* \"#utility.yul\":2774:2892   */\n      pop\n      pop\n      jump\t// out\n        /* \"#utility.yul\":2898:3120   */\n    tag_36:\n        /* \"#utility.yul\":2991:2995   */\n      0x00\n        /* \"#utility.yul\":3029:3031   */\n      0x20\n        /* \"#utility.yul\":3018:3027   */\n      dup3\n        /* \"#utility.yul\":3014:3032   */\n      add\n        /* \"#utility.yul\":3006:3032   */\n      swap1\n      pop\n        /* \"#utility.yul\":3042:3113   */\n      tag_266\n        /* \"#utility.yul\":3110:3111   */\n      0x00\n        /* \"#utility.yul\":3099:3108   */\n      dup4\n        /* \"#utility.yul\":3095:3112   */\n      add\n        /* \"#utility.yul\":3086:3092   */\n      dup5\n        /* \"#utility.yul\":3042:3113   */\n      tag_152\n      jump\t// in\n    tag_266:\n        /* \"#utility.yul\":2898:3120   */\n      swap3\n      swap2\n      pop\n      pop\n      jump\t// out\n        /* \"#utility.yul\":3126:3244   */\n    tag_153:\n        /* \"#utility.yul\":3213:3237   */\n      tag_268\n        /* \"#utility.yul\":3231:3236   */\n      dup2\n        /* \"#utility.yul\":3213:3237   */\n      tag_144\n      jump\t// in\n    tag_268:\n        /* \"#utility.yul\":3208:3211   */\n      dup3\n        /* \"#utility.yul\":3201:3238   */\n      mstore\n        /* \"#utility.yul\":3126:3244   */\n      pop\n      pop\n      jump\t// out\n        /* \"#utility.yul\":3250:3914   */\n    tag_41:\n        /* \"#utility.yul\":3455:3459   */\n      0x00\n        /* \"#utility.yul\":3493:3496   */\n      0xa0\n        /* \"#utility.yul\":3482:3491   */\n      dup3\n        /* \"#utility.yul\":3478:3497   */\n      add\n        /* \"#utility.yul\":3470:3497   */\n      swap1\n      pop\n        /* \"#utility.yul\":3507:3578   */\n      tag_270\n        /* \"#utility.yul\":3575:3576   */\n      0x00\n        /* \"#utility.yul\":3564:3573   */\n      dup4\n        /* \"#utility.yul\":3560:3577   */\n      add\n        /* \"#utility.yul\":3551:3557   */\n      dup9\n        /* \"#utility.yul\":3507:3578   */\n      tag_152\n      jump\t// in\n    tag_270:\n        /* \"#utility.yul\":3588:3660   */\n      tag_271\n        /* \"#utility.yul\":3656:3658   */\n      0x20\n        /* \"#utility.yul\":3645:3654   */\n      dup4\n        /* \"#utility.yul\":3641:3659   */\n      add\n        /* \"#utility.yul\":3632:3638   */\n      dup8\n        /* \"#utility.yul\":3588:3660   */\n      tag_152\n      jump\t// in\n    tag_271:\n        /* \"#utility.yul\":3670:3742   */\n      tag_272\n        /* \"#utility.yul\":3738:3740   */\n      0x40\n        /* \"#utility.yul\":3727:3736   */\n      dup4\n        /* \"#utility.yul\":3723:3741   */\n      add\n        /* \"#utility.yul\":3714:3720   */\n      dup7\n        /* \"#utility.yul\":3670:3742   */\n      tag_152\n      jump\t// in\n    tag_272:\n        /* \"#utility.yul\":3752:3824   */\n      tag_273\n        /* \"#utility.yul\":3820:3822   */\n      0x60\n        /* \"#utility.yul\":3809:3818   */\n      dup4\n        /* \"#utility.yul\":3805:3823   */\n      add\n        /* \"#utility.yul\":3796:3802   */\n      dup6\n        /* \"#utility.yul\":3752:3824   */\n      tag_152\n      jump\t// in\n    tag_273:\n        /* \"#utility.yul\":3834:3907   */\n      tag_274\n        /* \"#utility.yul\":3902:3905   */\n      0x80\n        /* \"#utility.yul\":3891:3900   */\n      dup4\n        /* \"#utility.yul\":3887:3906   */\n      add\n        /* \"#utility.yul\":3878:3884   */\n      dup5\n        /* \"#utility.yul\":3834:3907   */\n      tag_153\n      jump\t// in\n    tag_274:\n        /* \"#utility.yul\":3250:3914   */\n      swap7\n      swap6\n      pop\n      pop\n      pop\n      pop\n      pop\n      pop\n      jump\t// out\n        /* \"#utility.yul\":3920:4142   */\n    tag_46:\n        /* \"#utility.yul\":4013:4017   */\n      0x00\n        /* \"#utility.yul\":4051:4053   */\n      0x20\n        /* \"#utility.yul\":4040:4049   */\n      dup3\n        /* \"#utility.yul\":4036:4054   */\n      add\n        /* \"#utility.yul\":4028:4054   */\n      swap1\n      pop\n        /* \"#utility.yul\":4064:4135   */\n      tag_276\n        /* \"#utility.yul\":4132:4133   */\n      0x00\n        /* \"#utility.yul\":4121:4130   */\n      dup4\n        /* \"#utility.yul\":4117:4134   */\n      add\n        /* \"#utility.yul\":4108:4114   */\n      dup5\n        /* \"#utility.yul\":4064:4135   */\n      tag_153\n      jump\t// in\n    tag_276:\n        /* \"#utility.yul\":3920:4142   */\n      swap3\n      swap2\n      pop\n      pop\n      jump\t// out\n        /* \"#utility.yul\":4148:4266   */\n    tag_154:\n        /* \"#utility.yul\":4185:4192   */\n      0x00\n        /* \"#utility.yul\":4225:4259   */\n      0xffffffffffffffffffffffffffffffff\n        /* \"#utility.yul\":4218:4223   */\n      dup3\n        /* \"#utility.yul\":4214:4260   */\n      and\n        /* \"#utility.yul\":4203:4260   */\n      swap1\n      pop\n        /* \"#utility.yul\":4148:4266   */\n      swap2\n      swap1\n      pop\n      jump\t// out\n        /* \"#utility.yul\":4272:4390   */\n    tag_155:\n        /* \"#utility.yul\":4359:4383   */\n      tag_279\n        /* \"#utility.yul\":4377:4382   */\n      dup2\n        /* \"#utility.yul\":4359:4383   */\n      tag_154\n      jump\t// in\n    tag_279:\n        /* \"#utility.yul\":4354:4357   */\n      dup3\n        /* \"#utility.yul\":4347:4384   */\n      mstore\n        /* \"#utility.yul\":4272:4390   */\n      pop\n      pop\n      jump\t// out\n        /* \"#utility.yul\":4396:4500   */\n    tag_156:\n        /* \"#utility.yul\":4441:4448   */\n      0x00\n        /* \"#utility.yul\":4470:4494   */\n      tag_281\n        /* \"#utility.yul\":4488:4493   */\n      dup3\n        /* \"#utility.yul\":4470:4494   */\n      tag_143\n      jump\t// in\n    tag_281:\n        /* \"#utility.yul\":4459:4494   */\n      swap1\n      pop\n        /* \"#utility.yul\":4396:4500   */\n      swap2\n      swap1\n      pop\n      jump\t// out\n        /* \"#utility.yul\":4506:4648   */\n    tag_157:\n        /* \"#utility.yul\":4609:4641   */\n      tag_283\n        /* \"#utility.yul\":4635:4640   */\n      dup2\n        /* \"#utility.yul\":4609:4641   */\n      tag_156\n      jump\t// in\n    tag_283:\n        /* \"#utility.yul\":4604:4607   */\n      dup3\n        /* \"#utility.yul\":4597:4642   */\n      mstore\n        /* \"#utility.yul\":4506:4648   */\n      pop\n      pop\n      jump\t// out\n        /* \"#utility.yul\":4654:4753   */\n    tag_158:\n        /* \"#utility.yul\":4706:4712   */\n      0x00\n        /* \"#utility.yul\":4740:4745   */\n      dup2\n        /* \"#utility.yul\":4734:4746   */\n      mload\n        /* \"#utility.yul\":4724:4746   */\n      swap1\n      pop\n        /* \"#utility.yul\":4654:4753   */\n      swap2\n      swap1\n      pop\n      jump\t// out\n        /* \"#utility.yul\":4759:4928   */\n    tag_159:\n        /* \"#utility.yul\":4843:4854   */\n      0x00\n        /* \"#utility.yul\":4877:4883   */\n      dup3\n        /* \"#utility.yul\":4872:4875   */\n      dup3\n        /* \"#utility.yul\":4865:4884   */\n      mstore\n        /* \"#utility.yul\":4917:4921   */\n      0x20\n        /* \"#utility.yul\":4912:4915   */\n      dup3\n        /* \"#utility.yul\":4908:4922   */\n      add\n        /* \"#utility.yul\":4893:4922   */\n      swap1\n      pop\n        /* \"#utility.yul\":4759:4928   */\n      swap3\n      swap2\n      pop\n      pop\n      jump\t// out\n        /* \"#utility.yul\":4934:5073   */\n    tag_160:\n        /* \"#utility.yul\":5023:5029   */\n      dup3\n        /* \"#utility.yul\":5018:5021   */\n      dup2\n        /* \"#utility.yul\":5013:5016   */\n      dup4\n        /* \"#utility.yul\":5007:5030   */\n      mcopy\n        /* \"#utility.yul\":5064:5065   */\n      0x00\n        /* \"#utility.yul\":5055:5061   */\n      dup4\n        /* \"#utility.yul\":5050:5053   */\n      dup4\n        /* \"#utility.yul\":5046:5062   */\n      add\n        /* \"#utility.yul\":5039:5066   */\n      mstore\n        /* \"#utility.yul\":4934:5073   */\n      pop\n      pop\n      pop\n      jump\t// out\n        /* \"#utility.yul\":5079:5181   */\n    tag_161:\n        /* \"#utility.yul\":5120:5126   */\n      0x00\n        /* \"#utility.yul\":5171:5173   */\n      0x1f\n        /* \"#utility.yul\":5167:5174   */\n      not\n        /* \"#utility.yul\":5162:5164   */\n      0x1f\n        /* \"#utility.yul\":5155:5160   */\n      dup4\n        /* \"#utility.yul\":5151:5165   */\n      add\n        /* \"#utility.yul\":5147:5175   */\n      and\n        /* \"#utility.yul\":5137:5175   */\n      swap1\n      pop\n        /* \"#utility.yul\":5079:5181   */\n      swap2\n      swap1\n      pop\n      jump\t// out\n        /* \"#utility.yul\":5187:5564   */\n    tag_162:\n        /* \"#utility.yul\":5275:5278   */\n      0x00\n        /* \"#utility.yul\":5303:5342   */\n      tag_289\n        /* \"#utility.yul\":5336:5341   */\n      dup3\n        /* \"#utility.yul\":5303:5342   */\n      tag_158\n      jump\t// in\n    tag_289:\n        /* \"#utility.yul\":5358:5429   */\n      tag_290\n        /* \"#utility.yul\":5422:5428   */\n      dup2\n        /* \"#utility.yul\":5417:5420   */\n      dup6\n        /* \"#utility.yul\":5358:5429   */\n      tag_159\n      jump\t// in\n    tag_290:\n        /* \"#utility.yul\":5351:5429   */\n      swap4\n      pop\n        /* \"#utility.yul\":5438:5503   */\n      tag_291\n        /* \"#utility.yul\":5496:5502   */\n      dup2\n        /* \"#utility.yul\":5491:5494   */\n      dup6\n        /* \"#utility.yul\":5484:5488   */\n      0x20\n        /* \"#utility.yul\":5477:5482   */\n      dup7\n        /* \"#utility.yul\":5473:5489   */\n      add\n        /* \"#utility.yul\":5438:5503   */\n      tag_160\n      jump\t// in\n    tag_291:\n        /* \"#utility.yul\":5528:5557   */\n      tag_292\n        /* \"#utility.yul\":5550:5556   */\n      dup2\n        /* \"#utility.yul\":5528:5557   */\n      tag_161\n      jump\t// in\n    tag_292:\n        /* \"#utility.yul\":5523:5526   */\n      dup5\n        /* \"#utility.yul\":5519:5558   */\n      add\n        /* \"#utility.yul\":5512:5558   */\n      swap2\n      pop\n        /* \"#utility.yul\":5279:5564   */\n      pop\n        /* \"#utility.yul\":5187:5564   */\n      swap3\n      swap2\n      pop\n      pop\n      jump\t// out\n        /* \"#utility.yul\":5570:6345   */\n    tag_52:\n        /* \"#utility.yul\":5805:5809   */\n      0x00\n        /* \"#utility.yul\":5843:5846   */\n      0xa0\n        /* \"#utility.yul\":5832:5841   */\n      dup3\n        /* \"#utility.yul\":5828:5847   */\n      add\n        /* \"#utility.yul\":5820:5847   */\n      swap1\n      pop\n        /* \"#utility.yul\":5857:5922   */\n      tag_294\n        /* \"#utility.yul\":5919:5920   */\n      0x00\n        /* \"#utility.yul\":5908:5917   */\n      dup4\n        /* \"#utility.yul\":5904:5921   */\n      add\n        /* \"#utility.yul\":5895:5901   */\n      dup9\n        /* \"#utility.yul\":5857:5922   */\n      tag_151\n      jump\t// in\n    tag_294:\n        /* \"#utility.yul\":5932:6004   */\n      tag_295\n        /* \"#utility.yul\":6000:6002   */\n      0x20\n        /* \"#utility.yul\":5989:5998   */\n      dup4\n        /* \"#utility.yul\":5985:6003   */\n      add\n        /* \"#utility.yul\":5976:5982   */\n      dup8\n        /* \"#utility.yul\":5932:6004   */\n      tag_155\n      jump\t// in\n    tag_295:\n        /* \"#utility.yul\":6014:6086   */\n      tag_296\n        /* \"#utility.yul\":6082:6084   */\n      0x40\n        /* \"#utility.yul\":6071:6080   */\n      dup4\n        /* \"#utility.yul\":6067:6085   */\n      add\n        /* \"#utility.yul\":6058:6064   */\n      dup7\n        /* \"#utility.yul\":6014:6086   */\n      tag_155\n      jump\t// in\n    tag_296:\n        /* \"#utility.yul\":6096:6184   */\n      tag_297\n        /* \"#utility.yul\":6180:6182   */\n      0x60\n        /* \"#utility.yul\":6169:6178   */\n      dup4\n        /* \"#utility.yul\":6165:6183   */\n      add\n        /* \"#utility.yul\":6156:6162   */\n      dup6\n        /* \"#utility.yul\":6096:6184   */\n      tag_157\n      jump\t// in\n    tag_297:\n        /* \"#utility.yul\":6232:6241   */\n      dup2\n        /* \"#utility.yul\":6226:6230   */\n      dup2\n        /* \"#utility.yul\":6222:6242   */\n      sub\n        /* \"#utility.yul\":6216:6219   */\n      0x80\n        /* \"#utility.yul\":6205:6214   */\n      dup4\n        /* \"#utility.yul\":6201:6220   */\n      add\n        /* \"#utility.yul\":6194:6243   */\n      mstore\n        /* \"#utility.yul\":6260:6338   */\n      tag_298\n        /* \"#utility.yul\":6333:6337   */\n      dup2\n        /* \"#utility.yul\":6324:6330   */\n      dup5\n        /* \"#utility.yul\":6260:6338   */\n      tag_162\n      jump\t// in\n    tag_298:\n        /* \"#utility.yul\":6252:6338   */\n      swap1\n      pop\n        /* \"#utility.yul\":5570:6345   */\n      swap7\n      swap6\n      pop\n      pop\n      pop\n      pop\n      pop\n      pop\n      jump\t// out\n        /* \"#utility.yul\":6351:6468   */\n    tag_163:\n        /* \"#utility.yul\":6460:6461   */\n      0x00\n        /* \"#utility.yul\":6457:6458   */\n      0x00\n        /* \"#utility.yul\":6450:6462   */\n      revert\n        /* \"#utility.yul\":6474:6591   */\n    tag_164:\n        /* \"#utility.yul\":6583:6584   */\n      0x00\n        /* \"#utility.yul\":6580:6581   */\n      0x00\n        /* \"#utility.yul\":6573:6585   */\n      revert\n        /* \"#utility.yul\":6597:6777   */\n    tag_165:\n        /* \"#utility.yul\":6645:6722   */\n      0x4e487b7100000000000000000000000000000000000000000000000000000000\n        /* \"#utility.yul\":6642:6643   */\n      0x00\n        /* \"#utility.yul\":6635:6723   */\n      mstore\n        /* \"#utility.yul\":6742:6746   */\n      0x41\n        /* \"#utility.yul\":6739:6740   */\n      0x04\n        /* \"#utility.yul\":6732:6747   */\n      mstore\n        /* \"#utility.yul\":6766:6770   */\n      0x24\n        /* \"#utility.yul\":6763:6764   */\n      0x00\n        /* \"#utility.yul\":6756:6771   */\n      revert\n        /* \"#utility.yul\":6783:7064   */\n    tag_166:\n        /* \"#utility.yul\":6866:6893   */\n      tag_303\n        /* \"#utility.yul\":6888:6892   */\n      dup3\n        /* \"#utility.yul\":6866:6893   */\n      tag_161\n      jump\t// in\n    tag_303:\n        /* \"#utility.yul\":6858:6864   */\n      dup2\n        /* \"#utility.yul\":6854:6894   */\n      add\n        /* \"#utility.yul\":6996:7002   */\n      dup2\n        /* \"#utility.yul\":6984:6994   */\n      dup2\n        /* \"#utility.yul\":6981:7003   */\n      lt\n        /* \"#utility.yul\":6960:6978   */\n      0xffffffffffffffff\n        /* \"#utility.yul\":6948:6958   */\n      dup3\n        /* \"#utility.yul\":6945:6979   */\n      gt\n        /* \"#utility.yul\":6942:7004   */\n      or\n        /* \"#utility.yul\":6939:7027   */\n      iszero\n      tag_304\n      jumpi\n        /* \"#utility.yul\":7007:7025   */\n      tag_305\n      tag_165\n      jump\t// in\n    tag_305:\n        /* \"#utility.yul\":6939:7027   */\n    tag_304:\n        /* \"#utility.yul\":7047:7057   */\n      dup1\n        /* \"#utility.yul\":7043:7045   */\n      0x40\n        /* \"#utility.yul\":7036:7058   */\n      mstore\n        /* \"#utility.yul\":6826:7064   */\n      pop\n        /* \"#utility.yul\":6783:7064   */\n      pop\n      pop\n      jump\t// out\n        /* \"#utility.yul\":7070:7199   */\n    tag_167:\n        /* \"#utility.yul\":7104:7110   */\n      0x00\n        /* \"#utility.yul\":7131:7151   */\n      tag_307\n      tag_140\n      jump\t// in\n    tag_307:\n        /* \"#utility.yul\":7121:7151   */\n      swap1\n      pop\n        /* \"#utility.yul\":7160:7193   */\n      tag_308\n        /* \"#utility.yul\":7188:7192   */\n      dup3\n        /* \"#utility.yul\":7180:7186   */\n      dup3\n        /* \"#utility.yul\":7160:7193   */\n      tag_166\n      jump\t// in\n    tag_308:\n        /* \"#utility.yul\":7070:7199   */\n      swap2\n      swap1\n      pop\n      jump\t// out\n        /* \"#utility.yul\":7205:7513   */\n    tag_168:\n        /* \"#utility.yul\":7267:7271   */\n      0x00\n        /* \"#utility.yul\":7357:7375   */\n      0xffffffffffffffff\n        /* \"#utility.yul\":7349:7355   */\n      dup3\n        /* \"#utility.yul\":7346:7376   */\n      gt\n        /* \"#utility.yul\":7343:7399   */\n      iszero\n      tag_310\n      jumpi\n        /* \"#utility.yul\":7379:7397   */\n      tag_311\n      tag_165\n      jump\t// in\n    tag_311:\n        /* \"#utility.yul\":7343:7399   */\n    tag_310:\n        /* \"#utility.yul\":7417:7446   */\n      tag_312\n        /* \"#utility.yul\":7439:7445   */\n      dup3\n        /* \"#utility.yul\":7417:7446   */\n      tag_161\n      jump\t// in\n    tag_312:\n        /* \"#utility.yul\":7409:7446   */\n      swap1\n      pop\n        /* \"#utility.yul\":7501:7505   */\n      0x20\n        /* \"#utility.yul\":7495:7499   */\n      dup2\n        /* \"#utility.yul\":7491:7506   */\n      add\n        /* \"#utility.yul\":7483:7506   */\n      swap1\n      pop\n        /* \"#utility.yul\":7205:7513   */\n      swap2\n      swap1\n      pop\n      jump\t// out\n        /* \"#utility.yul\":7519:7667   */\n    tag_169:\n        /* \"#utility.yul\":7617:7623   */\n      dup3\n        /* \"#utility.yul\":7612:7615   */\n      dup2\n        /* \"#utility.yul\":7607:7610   */\n      dup4\n        /* \"#utility.yul\":7594:7624   */\n      calldatacopy\n        /* \"#utility.yul\":7658:7659   */\n      0x00\n        /* \"#utility.yul\":7649:7655   */\n      dup4\n        /* \"#utility.yul\":7644:7647   */\n      dup4\n        /* \"#utility.yul\":7640:7656   */\n      add\n        /* \"#utility.yul\":7633:7660   */\n      mstore\n        /* \"#utility.yul\":7519:7667   */\n      pop\n      pop\n      pop\n      jump\t// out\n        /* \"#utility.yul\":7673:8098   */\n    tag_170:\n        /* \"#utility.yul\":7751:7756   */\n      0x00\n        /* \"#utility.yul\":7776:7842   */\n      tag_315\n        /* \"#utility.yul\":7792:7841   */\n      tag_316\n        /* \"#utility.yul\":7834:7840   */\n      dup5\n        /* \"#utility.yul\":7792:7841   */\n      tag_168\n      jump\t// in\n    tag_316:\n        /* \"#utility.yul\":7776:7842   */\n      tag_167\n      jump\t// in\n    tag_315:\n        /* \"#utility.yul\":7767:7842   */\n      swap1\n      pop\n        /* \"#utility.yul\":7865:7871   */\n      dup3\n        /* \"#utility.yul\":7858:7863   */\n      dup2\n        /* \"#utility.yul\":7851:7872   */\n      mstore\n        /* \"#utility.yul\":7903:7907   */\n      0x20\n        /* \"#utility.yul\":7896:7901   */\n      dup2\n        /* \"#utility.yul\":7892:7908   */\n      add\n        /* \"#utility.yul\":7941:7944   */\n      dup5\n        /* \"#utility.yul\":7932:7938   */\n      dup5\n        /* \"#utility.yul\":7927:7930   */\n      dup5\n        /* \"#utility.yul\":7923:7939   */\n      add\n        /* \"#utility.yul\":7920:7945   */\n      gt\n        /* \"#utility.yul\":7917:8029   */\n      iszero\n      tag_317\n      jumpi\n        /* \"#utility.yul\":7948:8027   */\n      tag_318\n      tag_164\n      jump\t// in\n    tag_318:\n        /* \"#utility.yul\":7917:8029   */\n    tag_317:\n        /* \"#utility.yul\":8038:8092   */\n      tag_319\n        /* \"#utility.yul\":8085:8091   */\n      dup5\n        /* \"#utility.yul\":8080:8083   */\n      dup3\n        /* \"#utility.yul\":8075:8078   */\n      dup6\n        /* \"#utility.yul\":8038:8092   */\n      tag_169\n      jump\t// in\n    tag_319:\n        /* \"#utility.yul\":7757:8098   */\n      pop\n        /* \"#utility.yul\":7673:8098   */\n      swap4\n      swap3\n      pop\n      pop\n      pop\n      jump\t// out\n        /* \"#utility.yul\":8118:8458   */\n    tag_171:\n        /* \"#utility.yul\":8174:8179   */\n      0x00\n        /* \"#utility.yul\":8223:8226   */\n      dup3\n        /* \"#utility.yul\":8216:8220   */\n      0x1f\n        /* \"#utility.yul\":8208:8214   */\n      dup4\n        /* \"#utility.yul\":8204:8221   */\n      add\n        /* \"#utility.yul\":8200:8227   */\n      slt\n        /* \"#utility.yul\":8190:8312   */\n      tag_321\n      jumpi\n        /* \"#utility.yul\":8231:8310   */\n      tag_322\n      tag_163\n      jump\t// in\n    tag_322:\n        /* \"#utility.yul\":8190:8312   */\n    tag_321:\n        /* \"#utility.yul\":8348:8354   */\n      dup2\n        /* \"#utility.yul\":8335:8355   */\n      calldataload\n        /* \"#utility.yul\":8373:8452   */\n      tag_323\n        /* \"#utility.yul\":8448:8451   */\n      dup5\n        /* \"#utility.yul\":8440:8446   */\n      dup3\n        /* \"#utility.yul\":8433:8437   */\n      0x20\n        /* \"#utility.yul\":8425:8431   */\n      dup7\n        /* \"#utility.yul\":8421:8438   */\n      add\n        /* \"#utility.yul\":8373:8452   */\n      tag_170\n      jump\t// in\n    tag_323:\n        /* \"#utility.yul\":8364:8452   */\n      swap2\n      pop\n        /* \"#utility.yul\":8180:8458   */\n      pop\n        /* \"#utility.yul\":8118:8458   */\n      swap3\n      swap2\n      pop\n      pop\n      jump\t// out\n        /* \"#utility.yul\":8464:8586   */\n    tag_172:\n        /* \"#utility.yul\":8537:8561   */\n      tag_325\n        /* \"#utility.yul\":8555:8560   */\n      dup2\n        /* \"#utility.yul\":8537:8561   */\n      tag_154\n      jump\t// in\n    tag_325:\n        /* \"#utility.yul\":8530:8535   */\n      dup2\n        /* \"#utility.yul\":8527:8562   */\n      eq\n        /* \"#utility.yul\":8517:8580   */\n      tag_326\n      jumpi\n        /* \"#utility.yul\":8576:8577   */\n      0x00\n        /* \"#utility.yul\":8573:8574   */\n      0x00\n        /* \"#utility.yul\":8566:8578   */\n      revert\n        /* \"#utility.yul\":8517:8580   */\n    tag_326:\n        /* \"#utility.yul\":8464:8586   */\n      pop\n      jump\t// out\n        /* \"#utility.yul\":8592:8731   */\n    tag_173:\n        /* \"#utility.yul\":8638:8643   */\n      0x00\n        /* \"#utility.yul\":8676:8682   */\n      dup2\n        /* \"#utility.yul\":8663:8683   */\n      calldataload\n        /* \"#utility.yul\":8654:8683   */\n      swap1\n      pop\n        /* \"#utility.yul\":8692:8725   */\n      tag_328\n        /* \"#utility.yul\":8719:8724   */\n      dup2\n        /* \"#utility.yul\":8692:8725   */\n      tag_172\n      jump\t// in\n    tag_328:\n        /* \"#utility.yul\":8592:8731   */\n      swap3\n      swap2\n      pop\n      pop\n      jump\t// out\n        /* \"#utility.yul\":8737:8875   */\n    tag_174:\n        /* \"#utility.yul\":8818:8850   */\n      tag_330\n        /* \"#utility.yul\":8844:8849   */\n      dup2\n        /* \"#utility.yul\":8818:8850   */\n      tag_156\n      jump\t// in\n    tag_330:\n        /* \"#utility.yul\":8811:8816   */\n      dup2\n        /* \"#utility.yul\":8808:8851   */\n      eq\n        /* \"#utility.yul\":8798:8869   */\n      tag_331\n      jumpi\n        /* \"#utility.yul\":8865:8866   */\n      0x00\n        /* \"#utility.yul\":8862:8863   */\n      0x00\n        /* \"#utility.yul\":8855:8867   */\n      revert\n        /* \"#utility.yul\":8798:8869   */\n    tag_331:\n        /* \"#utility.yul\":8737:8875   */\n      pop\n      jump\t// out\n        /* \"#utility.yul\":8881:9036   */\n    tag_175:\n        /* \"#utility.yul\":8935:8940   */\n      0x00\n        /* \"#utility.yul\":8973:8979   */\n      dup2\n        /* \"#utility.yul\":8960:8980   */\n      calldataload\n        /* \"#utility.yul\":8951:8980   */\n      swap1\n      pop\n        /* \"#utility.yul\":8989:9030   */\n      tag_333\n        /* \"#utility.yul\":9024:9029   */\n      dup2\n        /* \"#utility.yul\":8989:9030   */\n      tag_174\n      jump\t// in\n    tag_333:\n        /* \"#utility.yul\":8881:9036   */\n      swap3\n      swap2\n      pop\n      pop\n      jump\t// out\n        /* \"#utility.yul\":9042:9857   */\n    tag_60:\n        /* \"#utility.yul\":9137:9143   */\n      0x00\n        /* \"#utility.yul\":9145:9151   */\n      0x00\n        /* \"#utility.yul\":9153:9159   */\n      0x00\n        /* \"#utility.yul\":9202:9204   */\n      0x60\n        /* \"#utility.yul\":9190:9199   */\n      dup5\n        /* \"#utility.yul\":9181:9188   */\n      dup7\n        /* \"#utility.yul\":9177:9200   */\n      sub\n        /* \"#utility.yul\":9173:9205   */\n      slt\n        /* \"#utility.yul\":9170:9289   */\n      iszero\n      tag_335\n      jumpi\n        /* \"#utility.yul\":9208:9287   */\n      tag_336\n      tag_141\n      jump\t// in\n    tag_336:\n        /* \"#utility.yul\":9170:9289   */\n    tag_335:\n        /* \"#utility.yul\":9356:9357   */\n      0x00\n        /* \"#utility.yul\":9345:9354   */\n      dup5\n        /* \"#utility.yul\":9341:9358   */\n      add\n        /* \"#utility.yul\":9328:9359   */\n      calldataload\n        /* \"#utility.yul\":9386:9404   */\n      0xffffffffffffffff\n        /* \"#utility.yul\":9378:9384   */\n      dup2\n        /* \"#utility.yul\":9375:9405   */\n      gt\n        /* \"#utility.yul\":9372:9489   */\n      iszero\n      tag_337\n      jumpi\n        /* \"#utility.yul\":9408:9487   */\n      tag_338\n      tag_142\n      jump\t// in\n    tag_338:\n        /* \"#utility.yul\":9372:9489   */\n    tag_337:\n        /* \"#utility.yul\":9513:9576   */\n      tag_339\n        /* \"#utility.yul\":9568:9575   */\n      dup7\n        /* \"#utility.yul\":9559:9565   */\n      dup3\n        /* \"#utility.yul\":9548:9557   */\n      dup8\n        /* \"#utility.yul\":9544:9566   */\n      add\n        /* \"#utility.yul\":9513:9576   */\n      tag_171\n      jump\t// in\n    tag_339:\n        /* \"#utility.yul\":9503:9576   */\n      swap4\n      pop\n        /* \"#utility.yul\":9299:9586   */\n      pop\n        /* \"#utility.yul\":9625:9627   */\n      0x20\n        /* \"#utility.yul\":9651:9704   */\n      tag_340\n        /* \"#utility.yul\":9696:9703   */\n      dup7\n        /* \"#utility.yul\":9687:9693   */\n      dup3\n        /* \"#utility.yul\":9676:9685   */\n      dup8\n        /* \"#utility.yul\":9672:9694   */\n      add\n        /* \"#utility.yul\":9651:9704   */\n      tag_173\n      jump\t// in\n    tag_340:\n        /* \"#utility.yul\":9641:9704   */\n      swap3\n      pop\n        /* \"#utility.yul\":9596:9714   */\n      pop\n        /* \"#utility.yul\":9753:9755   */\n      0x40\n        /* \"#utility.yul\":9779:9840   */\n      tag_341\n        /* \"#utility.yul\":9832:9839   */\n      dup7\n        /* \"#utility.yul\":9823:9829   */\n      dup3\n        /* \"#utility.yul\":9812:9821   */\n      dup8\n        /* \"#utility.yul\":9808:9830   */\n      add\n        /* \"#utility.yul\":9779:9840   */\n      tag_175\n      jump\t// in\n    tag_341:\n        /* \"#utility.yul\":9769:9840   */\n      swap2\n      pop\n        /* \"#utility.yul\":9724:9850   */\n      pop\n        /* \"#utility.yul\":9042:9857   */\n      swap3\n      pop\n      swap3\n      pop\n      swap3\n      jump\t// out\n        /* \"#utility.yul\":9863:10042   */\n    tag_176:\n        /* \"#utility.yul\":10003:10034   */\n      0x4f6e6c7920746865206d616e616765722063616e20646f20746869732e000000\n        /* \"#utility.yul\":9999:10000   */\n      0x00\n        /* \"#utility.yul\":9991:9997   */\n      dup3\n        /* \"#utility.yul\":9987:10001   */\n      add\n        /* \"#utility.yul\":9980:10035   */\n      mstore\n        /* \"#utility.yul\":9863:10042   */\n      pop\n      jump\t// out\n        /* \"#utility.yul\":10048:10414   */\n    tag_177:\n        /* \"#utility.yul\":10190:10193   */\n      0x00\n        /* \"#utility.yul\":10211:10278   */\n      tag_344\n        /* \"#utility.yul\":10275:10277   */\n      0x1d\n        /* \"#utility.yul\":10270:10273   */\n      dup4\n        /* \"#utility.yul\":10211:10278   */\n      tag_159\n      jump\t// in\n    tag_344:\n        /* \"#utility.yul\":10204:10278   */\n      swap2\n      pop\n        /* \"#utility.yul\":10287:10380   */\n      tag_345\n        /* \"#utility.yul\":10376:10379   */\n      dup3\n        /* \"#utility.yul\":10287:10380   */\n      tag_176\n      jump\t// in\n    tag_345:\n        /* \"#utility.yul\":10405:10407   */\n      0x20\n        /* \"#utility.yul\":10400:10403   */\n      dup3\n        /* \"#utility.yul\":10396:10408   */\n      add\n        /* \"#utility.yul\":10389:10408   */\n      swap1\n      pop\n        /* \"#utility.yul\":10048:10414   */\n      swap2\n      swap1\n      pop\n      jump\t// out\n        /* \"#utility.yul\":10420:10839   */\n    tag_76:\n        /* \"#utility.yul\":10586:10590   */\n      0x00\n        /* \"#utility.yul\":10624:10626   */\n      0x20\n        /* \"#utility.yul\":10613:10622   */\n      dup3\n        /* \"#utility.yul\":10609:10627   */\n      add\n        /* \"#utility.yul\":10601:10627   */\n      swap1\n      pop\n        /* \"#utility.yul\":10673:10682   */\n      dup2\n        /* \"#utility.yul\":10667:10671   */\n      dup2\n        /* \"#utility.yul\":10663:10683   */\n      sub\n        /* \"#utility.yul\":10659:10660   */\n      0x00\n        /* \"#utility.yul\":10648:10657   */\n      dup4\n        /* \"#utility.yul\":10644:10661   */\n      add\n        /* \"#utility.yul\":10637:10684   */\n      mstore\n        /* \"#utility.yul\":10701:10832   */\n      tag_347\n        /* \"#utility.yul\":10827:10831   */\n      dup2\n        /* \"#utility.yul\":10701:10832   */\n      tag_177\n      jump\t// in\n    tag_347:\n        /* \"#utility.yul\":10693:10832   */\n      swap1\n      pop\n        /* \"#utility.yul\":10420:10839   */\n      swap2\n      swap1\n      pop\n      jump\t// out\n        /* \"#utility.yul\":10845:11025   */\n    tag_178:\n        /* \"#utility.yul\":10985:11017   */\n      0x496e73756666696369656e7420636f6e74726163742062616c616e63652e0000\n        /* \"#utility.yul\":10981:10982   */\n      0x00\n        /* \"#utility.yul\":10973:10979   */\n      dup3\n        /* \"#utility.yul\":10969:10983   */\n      add\n        /* \"#utility.yul\":10962:11018   */\n      mstore\n        /* \"#utility.yul\":10845:11025   */\n      pop\n      jump\t// out\n        /* \"#utility.yul\":11031:11397   */\n    tag_179:\n        /* \"#utility.yul\":11173:11176   */\n      0x00\n        /* \"#utility.yul\":11194:11261   */\n      tag_350\n        /* \"#utility.yul\":11258:11260   */\n      0x1e\n        /* \"#utility.yul\":11253:11256   */\n      dup4\n        /* \"#utility.yul\":11194:11261   */\n      tag_159\n      jump\t// in\n    tag_350:\n        /* \"#utility.yul\":11187:11261   */\n      swap2\n      pop\n        /* \"#utility.yul\":11270:11363   */\n      tag_351\n        /* \"#utility.yul\":11359:11362   */\n      dup3\n        /* \"#utility.yul\":11270:11363   */\n      tag_178\n      jump\t// in\n    tag_351:\n        /* \"#utility.yul\":11388:11390   */\n      0x20\n        /* \"#utility.yul\":11383:11386   */\n      dup3\n        /* \"#utility.yul\":11379:11391   */\n      add\n        /* \"#utility.yul\":11372:11391   */\n      swap1\n      pop\n        /* \"#utility.yul\":11031:11397   */\n      swap2\n      swap1\n      pop\n      jump\t// out\n        /* \"#utility.yul\":11403:11822   */\n    tag_80:\n        /* \"#utility.yul\":11569:11573   */\n      0x00\n        /* \"#utility.yul\":11607:11609   */\n      0x20\n        /* \"#utility.yul\":11596:11605   */\n      dup3\n        /* \"#utility.yul\":11592:11610   */\n      add\n        /* \"#utility.yul\":11584:11610   */\n      swap1\n      pop\n        /* \"#utility.yul\":11656:11665   */\n      dup2\n        /* \"#utility.yul\":11650:11654   */\n      dup2\n        /* \"#utility.yul\":11646:11666   */\n      sub\n        /* \"#utility.yul\":11642:11643   */\n      0x00\n        /* \"#utility.yul\":11631:11640   */\n      dup4\n        /* \"#utility.yul\":11627:11644   */\n      add\n        /* \"#utility.yul\":11620:11667   */\n      mstore\n        /* \"#utility.yul\":11684:11815   */\n      tag_353\n        /* \"#utility.yul\":11810:11814   */\n      dup2\n        /* \"#utility.yul\":11684:11815   */\n      tag_179\n      jump\t// in\n    tag_353:\n        /* \"#utility.yul\":11676:11815   */\n      swap1\n      pop\n        /* \"#utility.yul\":11403:11822   */\n      swap2\n      swap1\n      pop\n      jump\t// out\n        /* \"#utility.yul\":11828:12008   */\n    tag_83:\n        /* \"#utility.yul\":11876:11953   */\n      0x4e487b7100000000000000000000000000000000000000000000000000000000\n        /* \"#utility.yul\":11873:11874   */\n      0x00\n        /* \"#utility.yul\":11866:11954   */\n      mstore\n        /* \"#utility.yul\":11973:11977   */\n      0x32\n        /* \"#utility.yul\":11970:11971   */\n      0x04\n        /* \"#utility.yul\":11963:11978   */\n      mstore\n        /* \"#utility.yul\":11997:12001   */\n      0x24\n        /* \"#utility.yul\":11994:11995   */\n      0x00\n        /* \"#utility.yul\":11987:12002   */\n      revert\n        /* \"#utility.yul\":12014:12185   */\n    tag_180:\n        /* \"#utility.yul\":12154:12177   */\n      0x4e6f7420656e6f75676820617070726f76616c732e0000000000000000000000\n        /* \"#utility.yul\":12150:12151   */\n      0x00\n        /* \"#utility.yul\":12142:12148   */\n      dup3\n        /* \"#utility.yul\":12138:12152   */\n      add\n        /* \"#utility.yul\":12131:12178   */\n      mstore\n        /* \"#utility.yul\":12014:12185   */\n      pop\n      jump\t// out\n        /* \"#utility.yul\":12191:12557   */\n    tag_181:\n        /* \"#utility.yul\":12333:12336   */\n      0x00\n        /* \"#utility.yul\":12354:12421   */\n      tag_357\n        /* \"#utility.yul\":12418:12420   */\n      0x15\n        /* \"#utility.yul\":12413:12416   */\n      dup4\n        /* \"#utility.yul\":12354:12421   */\n      tag_159\n      jump\t// in\n    tag_357:\n        /* \"#utility.yul\":12347:12421   */\n      swap2\n      pop\n        /* \"#utility.yul\":12430:12523   */\n      tag_358\n        /* \"#utility.yul\":12519:12522   */\n      dup3\n        /* \"#utility.yul\":12430:12523   */\n      tag_180\n      jump\t// in\n    tag_358:\n        /* \"#utility.yul\":12548:12550   */\n      0x20\n        /* \"#utility.yul\":12543:12546   */\n      dup3\n        /* \"#utility.yul\":12539:12551   */\n      add\n        /* \"#utility.yul\":12532:12551   */\n      swap1\n      pop\n        /* \"#utility.yul\":12191:12557   */\n      swap2\n      swap1\n      pop\n      jump\t// out\n        /* \"#utility.yul\":12563:12982   */\n    tag_87:\n        /* \"#utility.yul\":12729:12733   */\n      0x00\n        /* \"#utility.yul\":12767:12769   */\n      0x20\n        /* \"#utility.yul\":12756:12765   */\n      dup3\n        /* \"#utility.yul\":12752:12770   */\n      add\n        /* \"#utility.yul\":12744:12770   */\n      swap1\n      pop\n        /* \"#utility.yul\":12816:12825   */\n      dup2\n        /* \"#utility.yul\":12810:12814   */\n      dup2\n        /* \"#utility.yul\":12806:12826   */\n      sub\n        /* \"#utility.yul\":12802:12803   */\n      0x00\n        /* \"#utility.yul\":12791:12800   */\n      dup4\n        /* \"#utility.yul\":12787:12804   */\n      add\n        /* \"#utility.yul\":12780:12827   */\n      mstore\n        /* \"#utility.yul\":12844:12975   */\n      tag_360\n        /* \"#utility.yul\":12970:12974   */\n      dup2\n        /* \"#utility.yul\":12844:12975   */\n      tag_181\n      jump\t// in\n    tag_360:\n        /* \"#utility.yul\":12836:12975   */\n      swap1\n      pop\n        /* \"#utility.yul\":12563:12982   */\n      swap2\n      swap1\n      pop\n      jump\t// out\n        /* \"#utility.yul\":12988:13164   */\n    tag_182:\n        /* \"#utility.yul\":13128:13156   */\n      0x5265717565737420636f6d706c6574656420616c72656164792e000000000000\n        /* \"#utility.yul\":13124:13125   */\n      0x00\n        /* \"#utility.yul\":13116:13122   */\n      dup3\n        /* \"#utility.yul\":13112:13126   */\n      add\n        /* \"#utility.yul\":13105:13157   */\n      mstore\n        /* \"#utility.yul\":12988:13164   */\n      pop\n      jump\t// out\n        /* \"#utility.yul\":13170:13536   */\n    tag_183:\n        /* \"#utility.yul\":13312:13315   */\n      0x00\n        /* \"#utility.yul\":13333:13400   */\n      tag_363\n        /* \"#utility.yul\":13397:13399   */\n      0x1a\n        /* \"#utility.yul\":13392:13395   */\n      dup4\n        /* \"#utility.yul\":13333:13400   */\n      tag_159\n      jump\t// in\n    tag_363:\n        /* \"#utility.yul\":13326:13400   */\n      swap2\n      pop\n        /* \"#utility.yul\":13409:13502   */\n      tag_364\n        /* \"#utility.yul\":13498:13501   */\n      dup3\n        /* \"#utility.yul\":13409:13502   */\n      tag_182\n      jump\t// in\n    tag_364:\n        /* \"#utility.yul\":13527:13529   */\n      0x20\n        /* \"#utility.yul\":13522:13525   */\n      dup3\n        /* \"#utility.yul\":13518:13530   */\n      add\n        /* \"#utility.yul\":13511:13530   */\n      swap1\n      pop\n        /* \"#utility.yul\":13170:13536   */\n      swap2\n      swap1\n      pop\n      jump\t// out\n        /* \"#utility.yul\":13542:13961   */\n    tag_90:\n        /* \"#utility.yul\":13708:13712   */\n      0x00\n        /* \"#utility.yul\":13746:13748   */\n      0x20\n        /* \"#utility.yul\":13735:13744   */\n      dup3\n        /* \"#utility.yul\":13731:13749   */\n      add\n        /* \"#utility.yul\":13723:13749   */\n      swap1\n      pop\n        /* \"#utility.yul\":13795:13804   */\n      dup2\n        /* \"#utility.yul\":13789:13793   */\n      dup2\n        /* \"#utility.yul\":13785:13805   */\n      sub\n        /* \"#utility.yul\":13781:13782   */\n      0x00\n        /* \"#utility.yul\":13770:13779   */\n      dup4\n        /* \"#utility.yul\":13766:13783   */\n      add\n        /* \"#utility.yul\":13759:13806   */\n      mstore\n        /* \"#utility.yul\":13823:13954   */\n      tag_366\n        /* \"#utility.yul\":13949:13953   */\n      dup2\n        /* \"#utility.yul\":13823:13954   */\n      tag_183\n      jump\t// in\n    tag_366:\n        /* \"#utility.yul\":13815:13954   */\n      swap1\n      pop\n        /* \"#utility.yul\":13542:13961   */\n      swap2\n      swap1\n      pop\n      jump\t// out\n        /* \"#utility.yul\":13967:14114   */\n    tag_184:\n        /* \"#utility.yul\":14068:14079   */\n      0x00\n        /* \"#utility.yul\":14105:14108   */\n      dup2\n        /* \"#utility.yul\":14090:14108   */\n      swap1\n      pop\n        /* \"#utility.yul\":13967:14114   */\n      swap3\n      swap2\n      pop\n      pop\n      jump\t// out\n        /* \"#utility.yul\":14120:14234   */\n    tag_185:\n      pop\n      jump\t// out\n        /* \"#utility.yul\":14240:14638   */\n    tag_186:\n        /* \"#utility.yul\":14399:14402   */\n      0x00\n        /* \"#utility.yul\":14420:14503   */\n      tag_370\n        /* \"#utility.yul\":14501:14502   */\n      0x00\n        /* \"#utility.yul\":14496:14499   */\n      dup4\n        /* \"#utility.yul\":14420:14503   */\n      tag_184\n      jump\t// in\n    tag_370:\n        /* \"#utility.yul\":14413:14503   */\n      swap2\n      pop\n        /* \"#utility.yul\":14512:14605   */\n      tag_371\n        /* \"#utility.yul\":14601:14604   */\n      dup3\n        /* \"#utility.yul\":14512:14605   */\n      tag_185\n      jump\t// in\n    tag_371:\n        /* \"#utility.yul\":14630:14631   */\n      0x00\n        /* \"#utility.yul\":14625:14628   */\n      dup3\n        /* \"#utility.yul\":14621:14632   */\n      add\n        /* \"#utility.yul\":14614:14632   */\n      swap1\n      pop\n        /* \"#utility.yul\":14240:14638   */\n      swap2\n      swap1\n      pop\n      jump\t// out\n        /* \"#utility.yul\":14644:15023   */\n    tag_92:\n        /* \"#utility.yul\":14828:14831   */\n      0x00\n        /* \"#utility.yul\":14850:14997   */\n      tag_373\n        /* \"#utility.yul\":14993:14996   */\n      dup3\n        /* \"#utility.yul\":14850:14997   */\n      tag_186\n      jump\t// in\n    tag_373:\n        /* \"#utility.yul\":14843:14997   */\n      swap2\n      pop\n        /* \"#utility.yul\":15014:15017   */\n      dup2\n        /* \"#utility.yul\":15007:15017   */\n      swap1\n      pop\n        /* \"#utility.yul\":14644:15023   */\n      swap2\n      swap1\n      pop\n      jump\t// out\n        /* \"#utility.yul\":15029:15195   */\n    tag_187:\n        /* \"#utility.yul\":15169:15187   */\n      0x5472616e73666572206661696c65642e00000000000000000000000000000000\n        /* \"#utility.yul\":15165:15166   */\n      0x00\n        /* \"#utility.yul\":15157:15163   */\n      dup3\n        /* \"#utility.yul\":15153:15167   */\n      add\n        /* \"#utility.yul\":15146:15188   */\n      mstore\n        /* \"#utility.yul\":15029:15195   */\n      pop\n      jump\t// out\n        /* \"#utility.yul\":15201:15567   */\n    tag_188:\n        /* \"#utility.yul\":15343:15346   */\n      0x00\n        /* \"#utility.yul\":15364:15431   */\n      tag_376\n        /* \"#utility.yul\":15428:15430   */\n      0x10\n        /* \"#utility.yul\":15423:15426   */\n      dup4\n        /* \"#utility.yul\":15364:15431   */\n      tag_159\n      jump\t// in\n    tag_376:\n        /* \"#utility.yul\":15357:15431   */\n      swap2\n      pop\n        /* \"#utility.yul\":15440:15533   */\n      tag_377\n        /* \"#utility.yul\":15529:15532   */\n      dup3\n        /* \"#utility.yul\":15440:15533   */\n      tag_187\n      jump\t// in\n    tag_377:\n        /* \"#utility.yul\":15558:15560   */\n      0x20\n        /* \"#utility.yul\":15553:15556   */\n      dup3\n        /* \"#utility.yul\":15549:15561   */\n      add\n        /* \"#utility.yul\":15542:15561   */\n      swap1\n      pop\n        /* \"#utility.yul\":15201:15567   */\n      swap2\n      swap1\n      pop\n      jump\t// out\n        /* \"#utility.yul\":15573:15992   */\n    tag_98:\n        /* \"#utility.yul\":15739:15743   */\n      0x00\n        /* \"#utility.yul\":15777:15779   */\n      0x20\n        /* \"#utility.yul\":15766:15775   */\n      dup3\n        /* \"#utility.yul\":15762:15780   */\n      add\n        /* \"#utility.yul\":15754:15780   */\n      swap1\n      pop\n        /* \"#utility.yul\":15826:15835   */\n      dup2\n        /* \"#utility.yul\":15820:15824   */\n      dup2\n        /* \"#utility.yul\":15816:15836   */\n      sub\n        /* \"#utility.yul\":15812:15813   */\n      0x00\n        /* \"#utility.yul\":15801:15810   */\n      dup4\n        /* \"#utility.yul\":15797:15814   */\n      add\n        /* \"#utility.yul\":15790:15837   */\n      mstore\n        /* \"#utility.yul\":15854:15985   */\n      tag_379\n        /* \"#utility.yul\":15980:15984   */\n      dup2\n        /* \"#utility.yul\":15854:15985   */\n      tag_188\n      jump\t// in\n    tag_379:\n        /* \"#utility.yul\":15846:15985   */\n      swap1\n      pop\n        /* \"#utility.yul\":15573:15992   */\n      swap2\n      swap1\n      pop\n      jump\t// out\n        /* \"#utility.yul\":15998:16100   */\n    tag_189:\n        /* \"#utility.yul\":16040:16048   */\n      0x00\n        /* \"#utility.yul\":16087:16092   */\n      dup2\n        /* \"#utility.yul\":16084:16085   */\n      0x00\n        /* \"#utility.yul\":16080:16093   */\n      shr\n        /* \"#utility.yul\":16059:16093   */\n      swap1\n      pop\n        /* \"#utility.yul\":15998:16100   */\n      swap2\n      swap1\n      pop\n      jump\t// out\n        /* \"#utility.yul\":16106:16204   */\n    tag_190:\n        /* \"#utility.yul\":16153:16160   */\n      0x00\n        /* \"#utility.yul\":16193:16197   */\n      0xff\n        /* \"#utility.yul\":16186:16191   */\n      dup3\n        /* \"#utility.yul\":16182:16198   */\n      and\n        /* \"#utility.yul\":16171:16198   */\n      swap1\n      pop\n        /* \"#utility.yul\":16106:16204   */\n      swap2\n      swap1\n      pop\n      jump\t// out\n        /* \"#utility.yul\":16210:16371   */\n    tag_191:\n        /* \"#utility.yul\":16277:16282   */\n      0x00\n        /* \"#utility.yul\":16302:16365   */\n      tag_383\n        /* \"#utility.yul\":16330:16364   */\n      tag_384\n        /* \"#utility.yul\":16353:16363   */\n      dup4\n        /* \"#utility.yul\":16330:16364   */\n      tag_189\n      jump\t// in\n    tag_384:\n        /* \"#utility.yul\":16302:16365   */\n      tag_190\n      jump\t// in\n    tag_383:\n        /* \"#utility.yul\":16293:16365   */\n      swap1\n      pop\n        /* \"#utility.yul\":16210:16371   */\n      swap2\n      swap1\n      pop\n      jump\t// out\n        /* \"#utility.yul\":16377:16476   */\n    tag_192:\n        /* \"#utility.yul\":16448:16469   */\n      tag_386\n        /* \"#utility.yul\":16463:16468   */\n      dup2\n        /* \"#utility.yul\":16448:16469   */\n      tag_150\n      jump\t// in\n    tag_386:\n        /* \"#utility.yul\":16443:16446   */\n      dup3\n        /* \"#utility.yul\":16436:16470   */\n      mstore\n        /* \"#utility.yul\":16377:16476   */\n      pop\n      pop\n      jump\t// out\n        /* \"#utility.yul\":16482:16584   */\n    tag_193:\n        /* \"#utility.yul\":16524:16532   */\n      0x00\n        /* \"#utility.yul\":16571:16576   */\n      dup2\n        /* \"#utility.yul\":16568:16569   */\n      0x08\n        /* \"#utility.yul\":16564:16577   */\n      shr\n        /* \"#utility.yul\":16543:16577   */\n      swap1\n      pop\n        /* \"#utility.yul\":16482:16584   */\n      swap2\n      swap1\n      pop\n      jump\t// out\n        /* \"#utility.yul\":16590:16721   */\n    tag_194:\n        /* \"#utility.yul\":16640:16647   */\n      0x00\n        /* \"#utility.yul\":16680:16714   */\n      0xffffffffffffffffffffffffffffffff\n        /* \"#utility.yul\":16673:16678   */\n      dup3\n        /* \"#utility.yul\":16669:16715   */\n      and\n        /* \"#utility.yul\":16658:16715   */\n      swap1\n      pop\n        /* \"#utility.yul\":16590:16721   */\n      swap2\n      swap1\n      pop\n      jump\t// out\n        /* \"#utility.yul\":16727:16894   */\n    tag_195:\n        /* \"#utility.yul\":16797:16802   */\n      0x00\n        /* \"#utility.yul\":16822:16888   */\n      tag_390\n        /* \"#utility.yul\":16853:16887   */\n      tag_391\n        /* \"#utility.yul\":16876:16886   */\n      dup4\n        /* \"#utility.yul\":16853:16887   */\n      tag_193\n      jump\t// in\n    tag_391:\n        /* \"#utility.yul\":16822:16888   */\n      tag_194\n      jump\t// in\n    tag_390:\n        /* \"#utility.yul\":16813:16888   */\n      swap1\n      pop\n        /* \"#utility.yul\":16727:16894   */\n      swap2\n      swap1\n      pop\n      jump\t// out\n        /* \"#utility.yul\":16900:17008   */\n    tag_196:\n        /* \"#utility.yul\":16977:17001   */\n      tag_393\n        /* \"#utility.yul\":16995:17000   */\n      dup2\n        /* \"#utility.yul\":16977:17001   */\n      tag_154\n      jump\t// in\n    tag_393:\n        /* \"#utility.yul\":16972:16975   */\n      dup3\n        /* \"#utility.yul\":16965:17002   */\n      mstore\n        /* \"#utility.yul\":16900:17008   */\n      pop\n      pop\n      jump\t// out\n        /* \"#utility.yul\":17014:17181   */\n    tag_197:\n        /* \"#utility.yul\":17084:17089   */\n      0x00\n        /* \"#utility.yul\":17109:17175   */\n      tag_395\n        /* \"#utility.yul\":17140:17174   */\n      tag_396\n        /* \"#utility.yul\":17163:17173   */\n      dup4\n        /* \"#utility.yul\":17140:17174   */\n      tag_189\n      jump\t// in\n    tag_396:\n        /* \"#utility.yul\":17109:17175   */\n      tag_194\n      jump\t// in\n    tag_395:\n        /* \"#utility.yul\":17100:17175   */\n      swap1\n      pop\n        /* \"#utility.yul\":17014:17181   */\n      swap2\n      swap1\n      pop\n      jump\t// out\n        /* \"#utility.yul\":17187:17334   */\n    tag_198:\n        /* \"#utility.yul\":17245:17252   */\n      0x00\n        /* \"#utility.yul\":17285:17327   */\n      0xffffffffffffffffffffffffffffffffffffffff\n        /* \"#utility.yul\":17278:17283   */\n      dup3\n        /* \"#utility.yul\":17274:17328   */\n      and\n        /* \"#utility.yul\":17263:17328   */\n      swap1\n      pop\n        /* \"#utility.yul\":17187:17334   */\n      swap2\n      swap1\n      pop\n      jump\t// out\n        /* \"#utility.yul\":17340:17523   */\n    tag_199:\n        /* \"#utility.yul\":17418:17423   */\n      0x00\n        /* \"#utility.yul\":17443:17517   */\n      tag_399\n        /* \"#utility.yul\":17482:17516   */\n      tag_400\n        /* \"#utility.yul\":17505:17515   */\n      dup4\n        /* \"#utility.yul\":17482:17516   */\n      tag_189\n      jump\t// in\n    tag_400:\n        /* \"#utility.yul\":17443:17517   */\n      tag_198\n      jump\t// in\n    tag_399:\n        /* \"#utility.yul\":17434:17517   */\n      swap1\n      pop\n        /* \"#utility.yul\":17340:17523   */\n      swap2\n      swap1\n      pop\n      jump\t// out\n        /* \"#utility.yul\":17529:17661   */\n    tag_200:\n        /* \"#utility.yul\":17622:17654   */\n      tag_402\n        /* \"#utility.yul\":17648:17653   */\n      dup2\n        /* \"#utility.yul\":17622:17654   */\n      tag_156\n      jump\t// in\n    tag_402:\n        /* \"#utility.yul\":17617:17620   */\n      dup3\n        /* \"#utility.yul\":17610:17655   */\n      mstore\n        /* \"#utility.yul\":17529:17661   */\n      pop\n      pop\n      jump\t// out\n        /* \"#utility.yul\":17667:17847   */\n    tag_201:\n        /* \"#utility.yul\":17715:17792   */\n      0x4e487b7100000000000000000000000000000000000000000000000000000000\n        /* \"#utility.yul\":17712:17713   */\n      0x00\n        /* \"#utility.yul\":17705:17793   */\n      mstore\n        /* \"#utility.yul\":17812:17816   */\n      0x22\n        /* \"#utility.yul\":17809:17810   */\n      0x04\n        /* \"#utility.yul\":17802:17817   */\n      mstore\n        /* \"#utility.yul\":17836:17840   */\n      0x24\n        /* \"#utility.yul\":17833:17834   */\n      0x00\n        /* \"#utility.yul\":17826:17841   */\n      revert\n        /* \"#utility.yul\":17853:18173   */\n    tag_107:\n        /* \"#utility.yul\":17897:17903   */\n      0x00\n        /* \"#utility.yul\":17934:17935   */\n      0x02\n        /* \"#utility.yul\":17928:17932   */\n      dup3\n        /* \"#utility.yul\":17924:17936   */\n      div\n        /* \"#utility.yul\":17914:17936   */\n      swap1\n      pop\n        /* \"#utility.yul\":17981:17982   */\n      0x01\n        /* \"#utility.yul\":17975:17979   */\n      dup3\n        /* \"#utility.yul\":17971:17983   */\n      and\n        /* \"#utility.yul\":18002:18020   */\n      dup1\n        /* \"#utility.yul\":17992:18073   */\n      tag_405\n      jumpi\n        /* \"#utility.yul\":18058:18062   */\n      0x7f\n        /* \"#utility.yul\":18050:18056   */\n      dup3\n        /* \"#utility.yul\":18046:18063   */\n      and\n        /* \"#utility.yul\":18036:18063   */\n      swap2\n      pop\n        /* \"#utility.yul\":17992:18073   */\n    tag_405:\n        /* \"#utility.yul\":18120:18122   */\n      0x20\n        /* \"#utility.yul\":18112:18118   */\n      dup3\n        /* \"#utility.yul\":18109:18123   */\n      lt\n        /* \"#utility.yul\":18089:18107   */\n      dup2\n        /* \"#utility.yul\":18086:18124   */\n      sub\n        /* \"#utility.yul\":18083:18167   */\n      tag_406\n      jumpi\n        /* \"#utility.yul\":18139:18157   */\n      tag_407\n      tag_201\n      jump\t// in\n    tag_407:\n        /* \"#utility.yul\":18083:18167   */\n    tag_406:\n        /* \"#utility.yul\":17904:18173   */\n      pop\n        /* \"#utility.yul\":17853:18173   */\n      swap2\n      swap1\n      pop\n      jump\t// out\n        /* \"#utility.yul\":18179:18338   */\n    tag_202:\n        /* \"#utility.yul\":18253:18264   */\n      0x00\n        /* \"#utility.yul\":18287:18293   */\n      dup3\n        /* \"#utility.yul\":18282:18285   */\n      dup3\n        /* \"#utility.yul\":18275:18294   */\n      mstore\n        /* \"#utility.yul\":18327:18331   */\n      0x20\n        /* \"#utility.yul\":18322:18325   */\n      dup3\n        /* \"#utility.yul\":18318:18332   */\n      add\n        /* \"#utility.yul\":18303:18332   */\n      swap1\n      pop\n        /* \"#utility.yul\":18179:18338   */\n      swap3\n      swap2\n      pop\n      pop\n      jump\t// out\n        /* \"#utility.yul\":18344:18485   */\n    tag_203:\n        /* \"#utility.yul\":18393:18397   */\n      0x00\n        /* \"#utility.yul\":18416:18419   */\n      dup2\n        /* \"#utility.yul\":18408:18419   */\n      swap1\n      pop\n        /* \"#utility.yul\":18439:18442   */\n      dup2\n        /* \"#utility.yul\":18436:18437   */\n      0x00\n        /* \"#utility.yul\":18429:18443   */\n      mstore\n        /* \"#utility.yul\":18473:18477   */\n      0x20\n        /* \"#utility.yul\":18470:18471   */\n      0x00\n        /* \"#utility.yul\":18460:18478   */\n      keccak256\n        /* \"#utility.yul\":18452:18478   */\n      swap1\n      pop\n        /* \"#utility.yul\":18344:18485   */\n      swap2\n      swap1\n      pop\n      jump\t// out\n        /* \"#utility.yul\":18515:19326   */\n    tag_204:\n        /* \"#utility.yul\":18590:18593   */\n      0x00\n        /* \"#utility.yul\":18627:18632   */\n      dup2\n        /* \"#utility.yul\":18621:18633   */\n      sload\n        /* \"#utility.yul\":18656:18692   */\n      tag_411\n        /* \"#utility.yul\":18682:18691   */\n      dup2\n        /* \"#utility.yul\":18656:18692   */\n      tag_107\n      jump\t// in\n    tag_411:\n        /* \"#utility.yul\":18708:18769   */\n      tag_412\n        /* \"#utility.yul\":18762:18768   */\n      dup2\n        /* \"#utility.yul\":18757:18760   */\n      dup7\n        /* \"#utility.yul\":18708:18769   */\n      tag_202\n      jump\t// in\n    tag_412:\n        /* \"#utility.yul\":18701:18769   */\n      swap5\n      pop\n        /* \"#utility.yul\":18800:18801   */\n      0x01\n        /* \"#utility.yul\":18789:18798   */\n      dup3\n        /* \"#utility.yul\":18785:18802   */\n      and\n        /* \"#utility.yul\":18816:18817   */\n      0x00\n        /* \"#utility.yul\":18811:18975   */\n      dup2\n      eq\n      tag_414\n      jumpi\n        /* \"#utility.yul\":18989:18990   */\n      0x01\n        /* \"#utility.yul\":18984:19320   */\n      dup2\n      eq\n      tag_415\n      jumpi\n        /* \"#utility.yul\":18778:19320   */\n      jump(tag_413)\n        /* \"#utility.yul\":18811:18975   */\n    tag_414:\n        /* \"#utility.yul\":18895:18899   */\n      0xff\n        /* \"#utility.yul\":18891:18900   */\n      not\n        /* \"#utility.yul\":18880:18889   */\n      dup4\n        /* \"#utility.yul\":18876:18901   */\n      and\n        /* \"#utility.yul\":18871:18874   */\n      dup7\n        /* \"#utility.yul\":18864:18902   */\n      mstore\n        /* \"#utility.yul\":18955:18961   */\n      dup2\n        /* \"#utility.yul\":18948:18962   */\n      iszero\n        /* \"#utility.yul\":18941:18963   */\n      iszero\n        /* \"#utility.yul\":18935:18939   */\n      0x20\n        /* \"#utility.yul\":18931:18964   */\n      mul\n        /* \"#utility.yul\":18926:18929   */\n      dup7\n        /* \"#utility.yul\":18922:18965   */\n      add\n        /* \"#utility.yul\":18915:18965   */\n      swap4\n      pop\n        /* \"#utility.yul\":18811:18975   */\n      jump(tag_413)\n        /* \"#utility.yul\":18984:19320   */\n    tag_415:\n        /* \"#utility.yul\":19051:19089   */\n      tag_416\n        /* \"#utility.yul\":19083:19088   */\n      dup6\n        /* \"#utility.yul\":19051:19089   */\n      tag_203\n      jump\t// in\n    tag_416:\n        /* \"#utility.yul\":19111:19112   */\n      0x00\n        /* \"#utility.yul\":19125:19279   */\n    tag_417:\n        /* \"#utility.yul\":19139:19145   */\n      dup4\n        /* \"#utility.yul\":19136:19137   */\n      dup2\n        /* \"#utility.yul\":19133:19146   */\n      lt\n        /* \"#utility.yul\":19125:19279   */\n      iszero\n      tag_419\n      jumpi\n        /* \"#utility.yul\":19213:19220   */\n      dup2\n        /* \"#utility.yul\":19207:19221   */\n      sload\n        /* \"#utility.yul\":19203:19204   */\n      dup2\n        /* \"#utility.yul\":19198:19201   */\n      dup10\n        /* \"#utility.yul\":19194:19205   */\n      add\n        /* \"#utility.yul\":19187:19222   */\n      mstore\n        /* \"#utility.yul\":19263:19264   */\n      0x01\n        /* \"#utility.yul\":19254:19261   */\n      dup3\n        /* \"#utility.yul\":19250:19265   */\n      add\n        /* \"#utility.yul\":19239:19265   */\n      swap2\n      pop\n        /* \"#utility.yul\":19161:19165   */\n      0x20\n        /* \"#utility.yul\":19158:19159   */\n      dup2\n        /* \"#utility.yul\":19154:19166   */\n      add\n        /* \"#utility.yul\":19149:19166   */\n      swap1\n      pop\n        /* \"#utility.yul\":19125:19279   */\n      jump(tag_417)\n    tag_419:\n        /* \"#utility.yul\":19308:19309   */\n      dup1\n        /* \"#utility.yul\":19303:19306   */\n      dup9\n        /* \"#utility.yul\":19299:19310   */\n      add\n        /* \"#utility.yul\":19292:19310   */\n      swap6\n      pop\n        /* \"#utility.yul\":18991:19320   */\n      pop\n      pop\n        /* \"#utility.yul\":18778:19320   */\n    tag_413:\n      pop\n        /* \"#utility.yul\":18594:19326   */\n      pop\n      pop\n        /* \"#utility.yul\":18515:19326   */\n      swap3\n      swap2\n      pop\n      pop\n      jump\t// out\n        /* \"#utility.yul\":19390:20849   */\n    tag_205:\n        /* \"#utility.yul\":19506:19509   */\n      0x00\n        /* \"#utility.yul\":19542:19546   */\n      0xa0\n        /* \"#utility.yul\":19537:19540   */\n      dup4\n        /* \"#utility.yul\":19533:19547   */\n      add\n        /* \"#utility.yul\":19573:19574   */\n      0x00\n        /* \"#utility.yul\":19652:19656   */\n      0x00\n        /* \"#utility.yul\":19645:19650   */\n      dup5\n        /* \"#utility.yul\":19641:19657   */\n      add\n        /* \"#utility.yul\":19635:19658   */\n      sload\n        /* \"#utility.yul\":19622:19658   */\n      swap1\n      pop\n        /* \"#utility.yul\":19691:19744   */\n      tag_421\n        /* \"#utility.yul\":19734:19743   */\n      dup2\n        /* \"#utility.yul\":19691:19744   */\n      tag_191\n      jump\t// in\n    tag_421:\n        /* \"#utility.yul\":19757:19814   */\n      tag_422\n        /* \"#utility.yul\":19808:19812   */\n      0x00\n        /* \"#utility.yul\":19803:19806   */\n      dup8\n        /* \"#utility.yul\":19799:19813   */\n      add\n        /* \"#utility.yul\":19785:19797   */\n      dup3\n        /* \"#utility.yul\":19757:19814   */\n      tag_192\n      jump\t// in\n    tag_422:\n        /* \"#utility.yul\":19584:19824   */\n      pop\n        /* \"#utility.yul\":19898:19954   */\n      tag_423\n        /* \"#utility.yul\":19944:19953   */\n      dup2\n        /* \"#utility.yul\":19898:19954   */\n      tag_195\n      jump\t// in\n    tag_423:\n        /* \"#utility.yul\":19967:20030   */\n      tag_424\n        /* \"#utility.yul\":20024:20028   */\n      0x20\n        /* \"#utility.yul\":20019:20022   */\n      dup8\n        /* \"#utility.yul\":20015:20029   */\n      add\n        /* \"#utility.yul\":20001:20013   */\n      dup3\n        /* \"#utility.yul\":19967:20030   */\n      tag_196\n      jump\t// in\n    tag_424:\n        /* \"#utility.yul\":19834:20040   */\n      pop\n        /* \"#utility.yul\":20115:20119   */\n      0x01\n        /* \"#utility.yul\":20108:20113   */\n      dup5\n        /* \"#utility.yul\":20104:20120   */\n      add\n        /* \"#utility.yul\":20098:20121   */\n      sload\n        /* \"#utility.yul\":20085:20121   */\n      swap1\n      pop\n        /* \"#utility.yul\":20154:20210   */\n      tag_425\n        /* \"#utility.yul\":20200:20209   */\n      dup2\n        /* \"#utility.yul\":20154:20210   */\n      tag_197\n      jump\t// in\n    tag_425:\n        /* \"#utility.yul\":20223:20286   */\n      tag_426\n        /* \"#utility.yul\":20280:20284   */\n      0x40\n        /* \"#utility.yul\":20275:20278   */\n      dup8\n        /* \"#utility.yul\":20271:20285   */\n      add\n        /* \"#utility.yul\":20257:20269   */\n      dup3\n        /* \"#utility.yul\":20223:20286   */\n      tag_196\n      jump\t// in\n    tag_426:\n        /* \"#utility.yul\":20050:20296   */\n      pop\n        /* \"#utility.yul\":20375:20379   */\n      0x02\n        /* \"#utility.yul\":20368:20373   */\n      dup5\n        /* \"#utility.yul\":20364:20380   */\n      add\n        /* \"#utility.yul\":20358:20381   */\n      sload\n        /* \"#utility.yul\":20345:20381   */\n      swap1\n      pop\n        /* \"#utility.yul\":20414:20478   */\n      tag_427\n        /* \"#utility.yul\":20468:20477   */\n      dup2\n        /* \"#utility.yul\":20414:20478   */\n      tag_199\n      jump\t// in\n    tag_427:\n        /* \"#utility.yul\":20491:20570   */\n      tag_428\n        /* \"#utility.yul\":20564:20568   */\n      0x60\n        /* \"#utility.yul\":20559:20562   */\n      dup8\n        /* \"#utility.yul\":20555:20569   */\n      add\n        /* \"#utility.yul\":20541:20553   */\n      dup3\n        /* \"#utility.yul\":20491:20570   */\n      tag_200\n      jump\t// in\n    tag_428:\n        /* \"#utility.yul\":20306:20580   */\n      pop\n        /* \"#utility.yul\":20663:20667   */\n      0x03\n        /* \"#utility.yul\":20656:20661   */\n      dup5\n        /* \"#utility.yul\":20652:20668   */\n      add\n        /* \"#utility.yul\":20715:20718   */\n      dup6\n        /* \"#utility.yul\":20709:20713   */\n      dup4\n        /* \"#utility.yul\":20705:20719   */\n      sub\n        /* \"#utility.yul\":20698:20702   */\n      0x80\n        /* \"#utility.yul\":20693:20696   */\n      dup8\n        /* \"#utility.yul\":20689:20703   */\n      add\n        /* \"#utility.yul\":20682:20720   */\n      mstore\n        /* \"#utility.yul\":20741:20811   */\n      tag_429\n        /* \"#utility.yul\":20806:20810   */\n      dup4\n        /* \"#utility.yul\":20792:20804   */\n      dup3\n        /* \"#utility.yul\":20741:20811   */\n      tag_204\n      jump\t// in\n    tag_429:\n        /* \"#utility.yul\":20733:20811   */\n      swap3\n      pop\n        /* \"#utility.yul\":20590:20822   */\n      pop\n        /* \"#utility.yul\":20839:20843   */\n      dup2\n        /* \"#utility.yul\":20832:20843   */\n      swap3\n      pop\n        /* \"#utility.yul\":19511:20849   */\n      pop\n      pop\n        /* \"#utility.yul\":19390:20849   */\n      swap3\n      swap2\n      pop\n      pop\n      jump\t// out\n        /* \"#utility.yul\":20855:21222   */\n    tag_100:\n        /* \"#utility.yul\":20995:20999   */\n      0x00\n        /* \"#utility.yul\":21033:21035   */\n      0x20\n        /* \"#utility.yul\":21022:21031   */\n      dup3\n        /* \"#utility.yul\":21018:21036   */\n      add\n        /* \"#utility.yul\":21010:21036   */\n      swap1\n      pop\n        /* \"#utility.yul\":21082:21091   */\n      dup2\n        /* \"#utility.yul\":21076:21080   */\n      dup2\n        /* \"#utility.yul\":21072:21092   */\n      sub\n        /* \"#utility.yul\":21068:21069   */\n      0x00\n        /* \"#utility.yul\":21057:21066   */\n      dup4\n        /* \"#utility.yul\":21053:21070   */\n      add\n        /* \"#utility.yul\":21046:21093   */\n      mstore\n        /* \"#utility.yul\":21110:21215   */\n      tag_431\n        /* \"#utility.yul\":21210:21214   */\n      dup2\n        /* \"#utility.yul\":21201:21207   */\n      dup5\n        /* \"#utility.yul\":21110:21215   */\n      tag_205\n      jump\t// in\n    tag_431:\n        /* \"#utility.yul\":21102:21215   */\n      swap1\n      pop\n        /* \"#utility.yul\":20855:21222   */\n      swap3\n      swap2\n      pop\n      pop\n      jump\t// out\n        /* \"#utility.yul\":21228:21321   */\n    tag_206:\n        /* \"#utility.yul\":21265:21271   */\n      0x00\n        /* \"#utility.yul\":21312:21314   */\n      0x20\n        /* \"#utility.yul\":21307:21309   */\n      0x1f\n        /* \"#utility.yul\":21300:21305   */\n      dup4\n        /* \"#utility.yul\":21296:21310   */\n      add\n        /* \"#utility.yul\":21292:21315   */\n      div\n        /* \"#utility.yul\":21282:21315   */\n      swap1\n      pop\n        /* \"#utility.yul\":21228:21321   */\n      swap2\n      swap1\n      pop\n      jump\t// out\n        /* \"#utility.yul\":21327:21434   */\n    tag_207:\n        /* \"#utility.yul\":21371:21379   */\n      0x00\n        /* \"#utility.yul\":21421:21426   */\n      dup3\n        /* \"#utility.yul\":21415:21419   */\n      dup3\n        /* \"#utility.yul\":21411:21427   */\n      shl\n        /* \"#utility.yul\":21390:21427   */\n      swap1\n      pop\n        /* \"#utility.yul\":21327:21434   */\n      swap3\n      swap2\n      pop\n      pop\n      jump\t// out\n        /* \"#utility.yul\":21440:21833   */\n    tag_208:\n        /* \"#utility.yul\":21509:21515   */\n      0x00\n        /* \"#utility.yul\":21559:21560   */\n      0x08\n        /* \"#utility.yul\":21547:21557   */\n      dup4\n        /* \"#utility.yul\":21543:21561   */\n      mul\n        /* \"#utility.yul\":21582:21679   */\n      tag_435\n        /* \"#utility.yul\":21612:21678   */\n      0xffffffffffffffffffffffffffffffffffffffffffffffffffffffffffffffff\n        /* \"#utility.yul\":21601:21610   */\n      dup3\n        /* \"#utility.yul\":21582:21679   */\n      tag_207\n      jump\t// in\n    tag_435:\n        /* \"#utility.yul\":21700:21739   */\n      tag_436\n        /* \"#utility.yul\":21730:21738   */\n      dup7\n        /* \"#utility.yul\":21719:21728   */\n      dup4\n        /* \"#utility.yul\":21700:21739   */\n      tag_207\n      jump\t// in\n    tag_436:\n        /* \"#utility.yul\":21688:21739   */\n      swap6\n      pop\n        /* \"#utility.yul\":21772:21776   */\n      dup1\n        /* \"#utility.yul\":21768:21777   */\n      not\n        /* \"#utility.yul\":21761:21766   */\n      dup5\n        /* \"#utility.yul\":21757:21778   */\n      and\n        /* \"#utility.yul\":21748:21778   */\n      swap4\n      pop\n        /* \"#utility.yul\":21821:21825   */\n      dup1\n        /* \"#utility.yul\":21811:21819   */\n      dup7\n        /* \"#utility.yul\":21807:21826   */\n      and\n        /* \"#utility.yul\":21800:21805   */\n      dup5\n        /* \"#utility.yul\":21797:21827   */\n      or\n        /* \"#utility.yul\":21787:21827   */\n      swap3\n      pop\n        /* \"#utility.yul\":21516:21833   */\n      pop\n      pop\n        /* \"#utility.yul\":21440:21833   */\n      swap4\n      swap3\n      pop\n      pop\n      pop\n      jump\t// out\n        /* \"#utility.yul\":21839:21899   */\n    tag_209:\n        /* \"#utility.yul\":21867:21870   */\n      0x00\n        /* \"#utility.yul\":21888:21893   */\n      dup2\n        /* \"#utility.yul\":21881:21893   */\n      swap1\n      pop\n        /* \"#utility.yul\":21839:21899   */\n      swap2\n      swap1\n      pop\n      jump\t// out\n        /* \"#utility.yul\":21905:22047   */\n    tag_210:\n        /* \"#utility.yul\":21955:21964   */\n      0x00\n        /* \"#utility.yul\":21988:22041   */\n      tag_439\n        /* \"#utility.yul\":22006:22040   */\n      tag_440\n        /* \"#utility.yul\":22015:22039   */\n      tag_441\n        /* \"#utility.yul\":22033:22038   */\n      dup5\n        /* \"#utility.yul\":22015:22039   */\n      tag_147\n      jump\t// in\n    tag_441:\n        /* \"#utility.yul\":22006:22040   */\n      tag_209\n      jump\t// in\n    tag_440:\n        /* \"#utility.yul\":21988:22041   */\n      tag_147\n      jump\t// in\n    tag_439:\n        /* \"#utility.yul\":21975:22041   */\n      swap1\n      pop\n        /* \"#utility.yul\":21905:22047   */\n      swap2\n      swap1\n      pop\n      jump\t// out\n        /* \"#utility.yul\":22053:22128   */\n    tag_211:\n        /* \"#utility.yul\":22096:22099   */\n      0x00\n        /* \"#utility.yul\":22117:22122   */\n      dup2\n        /* \"#utility.yul\":22110:22122   */\n      swap1\n      pop\n        /* \"#utility.yul\":22053:22128   */\n      swap2\n      swap1\n      pop\n      jump\t// out\n        /* \"#utility.yul\":22134:22403   */\n    tag_212:\n        /* \"#utility.yul\":22244:22283   */\n      tag_444\n        /* \"#utility.yul\":22275:22282   */\n      dup4\n        /* \"#utility.yul\":22244:22283   */\n      tag_210\n      jump\t// in\n    tag_444:\n        /* \"#utility.yul\":22305:22396   */\n      tag_445\n        /* \"#utility.yul\":22354:22395   */\n      tag_446\n        /* \"#utility.yul\":22378:22394   */\n      dup3\n        /* \"#utility.yul\":22354:22395   */\n      tag_211\n      jump\t// in\n    tag_446:\n        /* \"#utility.yul\":22346:22352   */\n      dup5\n        /* \"#utility.yul\":22339:22343   */\n      dup5\n        /* \"#utility.yul\":22333:22344   */\n      sload\n        /* \"#utility.yul\":22305:22396   */\n      tag_208\n      jump\t// in\n    tag_445:\n        /* \"#utility.yul\":22299:22303   */\n      dup3\n        /* \"#utility.yul\":22292:22397   */\n      sstore\n        /* \"#utility.yul\":22210:22403   */\n      pop\n        /* \"#utility.yul\":22134:22403   */\n      pop\n      pop\n      pop\n      jump\t// out\n        /* \"#utility.yul\":22409:22482   */\n    tag_213:\n        /* \"#utility.yul\":22454:22457   */\n      0x00\n        /* \"#utility.yul\":22475:22476   */\n      0x00\n        /* \"#utility.yul\":22468:22476   */\n      swap1\n      pop\n        /* \"#utility.yul\":22409:22482   */\n      swap1\n      jump\t// out\n        /* \"#utility.yul\":22488:22677   */\n    tag_214:\n        /* \"#utility.yul\":22565:22597   */\n      tag_449\n      tag_213\n      jump\t// in\n    tag_449:\n        /* \"#utility.yul\":22606:22671   */\n      tag_450\n        /* \"#utility.yul\":22664:22670   */\n      dup2\n        /* \"#utility.yul\":22656:22662   */\n      dup5\n        /* \"#utility.yul\":22650:22654   */\n      dup5\n        /* \"#utility.yul\":22606:22671   */\n      tag_212\n      jump\t// in\n    tag_450:\n        /* \"#utility.yul\":22541:22677   */\n      pop\n        /* \"#utility.yul\":22488:22677   */\n      pop\n      pop\n      jump\t// out\n        /* \"#utility.yul\":22683:22869   */\n    tag_215:\n        /* \"#utility.yul\":22743:22863   */\n    tag_452:\n        /* \"#utility.yul\":22760:22763   */\n      dup2\n        /* \"#utility.yul\":22753:22758   */\n      dup2\n        /* \"#utility.yul\":22750:22764   */\n      lt\n        /* \"#utility.yul\":22743:22863   */\n      iszero\n      tag_454\n      jumpi\n        /* \"#utility.yul\":22814:22853   */\n      tag_455\n        /* \"#utility.yul\":22851:22852   */\n      0x00\n        /* \"#utility.yul\":22844:22849   */\n      dup3\n        /* \"#utility.yul\":22814:22853   */\n      tag_214\n      jump\t// in\n    tag_455:\n        /* \"#utility.yul\":22787:22788   */\n      0x01\n        /* \"#utility.yul\":22780:22785   */\n      dup2\n        /* \"#utility.yul\":22776:22789   */\n      add\n        /* \"#utility.yul\":22767:22789   */\n      swap1\n      pop\n        /* \"#utility.yul\":22743:22863   */\n      jump(tag_452)\n    tag_454:\n        /* \"#utility.yul\":22683:22869   */\n      pop\n      pop\n      jump\t// out\n        /* \"#utility.yul\":22875:23418   */\n    tag_216:\n        /* \"#utility.yul\":22976:22978   */\n      0x1f\n        /* \"#utility.yul\":22971:22974   */\n      dup3\n        /* \"#utility.yul\":22968:22979   */\n      gt\n        /* \"#utility.yul\":22965:23411   */\n      iszero\n      tag_457\n      jumpi\n        /* \"#utility.yul\":23010:23048   */\n      tag_458\n        /* \"#utility.yul\":23042:23047   */\n      dup2\n        /* \"#utility.yul\":23010:23048   */\n      tag_203\n      jump\t// in\n    tag_458:\n        /* \"#utility.yul\":23094:23123   */\n      tag_459\n        /* \"#utility.yul\":23112:23122   */\n      dup5\n        /* \"#utility.yul\":23094:23123   */\n      tag_206\n      jump\t// in\n    tag_459:\n        /* \"#utility.yul\":23084:23092   */\n      dup2\n        /* \"#utility.yul\":23080:23124   */\n      add\n        /* \"#utility.yul\":23277:23279   */\n      0x20\n        /* \"#utility.yul\":23265:23275   */\n      dup6\n        /* \"#utility.yul\":23262:23280   */\n      lt\n        /* \"#utility.yul\":23259:23308   */\n      iszero\n      tag_460\n      jumpi\n        /* \"#utility.yul\":23298:23306   */\n      dup2\n        /* \"#utility.yul\":23283:23306   */\n      swap1\n      pop\n        /* \"#utility.yul\":23259:23308   */\n    tag_460:\n        /* \"#utility.yul\":23321:23401   */\n      tag_461\n        /* \"#utility.yul\":23377:23399   */\n      tag_462\n        /* \"#utility.yul\":23395:23398   */\n      dup6\n        /* \"#utility.yul\":23377:23399   */\n      tag_206\n      jump\t// in\n    tag_462:\n        /* \"#utility.yul\":23367:23375   */\n      dup4\n        /* \"#utility.yul\":23363:23400   */\n      add\n        /* \"#utility.yul\":23350:23361   */\n      dup3\n        /* \"#utility.yul\":23321:23401   */\n      tag_215\n      jump\t// in\n    tag_461:\n        /* \"#utility.yul\":22980:23411   */\n      pop\n      pop\n        /* \"#utility.yul\":22965:23411   */\n    tag_457:\n        /* \"#utility.yul\":22875:23418   */\n      pop\n      pop\n      pop\n      jump\t// out\n        /* \"#utility.yul\":23424:23541   */\n    tag_217:\n        /* \"#utility.yul\":23478:23486   */\n      0x00\n        /* \"#utility.yul\":23528:23533   */\n      dup3\n        /* \"#utility.yul\":23522:23526   */\n      dup3\n        /* \"#utility.yul\":23518:23534   */\n      shr\n        /* \"#utility.yul\":23497:23534   */\n      swap1\n      pop\n        /* \"#utility.yul\":23424:23541   */\n      swap3\n      swap2\n      pop\n      pop\n      jump\t// out\n        /* \"#utility.yul\":23547:23716   */\n    tag_218:\n        /* \"#utility.yul\":23591:23597   */\n      0x00\n        /* \"#utility.yul\":23624:23675   */\n      tag_465\n        /* \"#utility.yul\":23672:23673   */\n      0x00\n        /* \"#utility.yul\":23668:23674   */\n      not\n        /* \"#utility.yul\":23660:23665   */\n      dup5\n        /* \"#utility.yul\":23657:23658   */\n      0x08\n        /* \"#utility.yul\":23653:23666   */\n      mul\n        /* \"#utility.yul\":23624:23675   */\n      tag_217\n      jump\t// in\n    tag_465:\n        /* \"#utility.yul\":23620:23676   */\n      not\n        /* \"#utility.yul\":23705:23709   */\n      dup1\n        /* \"#utility.yul\":23699:23703   */\n      dup4\n        /* \"#utility.yul\":23695:23710   */\n      and\n        /* \"#utility.yul\":23685:23710   */\n      swap2\n      pop\n        /* \"#utility.yul\":23598:23716   */\n      pop\n        /* \"#utility.yul\":23547:23716   */\n      swap3\n      swap2\n      pop\n      pop\n      jump\t// out\n        /* \"#utility.yul\":23721:24016   */\n    tag_219:\n        /* \"#utility.yul\":23797:23801   */\n      0x00\n        /* \"#utility.yul\":23943:23972   */\n      tag_467\n        /* \"#utility.yul\":23968:23971   */\n      dup4\n        /* \"#utility.yul\":23962:23966   */\n      dup4\n        /* \"#utility.yul\":23943:23972   */\n      tag_218\n      jump\t// in\n    tag_467:\n        /* \"#utility.yul\":23935:23972   */\n      swap2\n      pop\n        /* \"#utility.yul\":24005:24008   */\n      dup3\n        /* \"#utility.yul\":24002:24003   */\n      0x02\n        /* \"#utility.yul\":23998:24009   */\n      mul\n        /* \"#utility.yul\":23992:23996   */\n      dup3\n        /* \"#utility.yul\":23989:24010   */\n      or\n        /* \"#utility.yul\":23981:24010   */\n      swap1\n      pop\n        /* \"#utility.yul\":23721:24016   */\n      swap3\n      swap2\n      pop\n      pop\n      jump\t// out\n        /* \"#utility.yul\":24021:25416   */\n    tag_118:\n        /* \"#utility.yul\":24138:24175   */\n      tag_469\n        /* \"#utility.yul\":24171:24174   */\n      dup3\n        /* \"#utility.yul\":24138:24175   */\n      tag_158\n      jump\t// in\n    tag_469:\n        /* \"#utility.yul\":24240:24258   */\n      0xffffffffffffffff\n        /* \"#utility.yul\":24232:24238   */\n      dup2\n        /* \"#utility.yul\":24229:24259   */\n      gt\n        /* \"#utility.yul\":24226:24282   */\n      iszero\n      tag_470\n      jumpi\n        /* \"#utility.yul\":24262:24280   */\n      tag_471\n      tag_165\n      jump\t// in\n    tag_471:\n        /* \"#utility.yul\":24226:24282   */\n    tag_470:\n        /* \"#utility.yul\":24306:24344   */\n      tag_472\n        /* \"#utility.yul\":24338:24342   */\n      dup3\n        /* \"#utility.yul\":24332:24343   */\n      sload\n        /* \"#utility.yul\":24306:24344   */\n      tag_107\n      jump\t// in\n    tag_472:\n        /* \"#utility.yul\":24391:24458   */\n      tag_473\n        /* \"#utility.yul\":24451:24457   */\n      dup3\n        /* \"#utility.yul\":24443:24449   */\n      dup3\n        /* \"#utility.yul\":24437:24441   */\n      dup6\n        /* \"#utility.yul\":24391:24458   */\n      tag_216\n      jump\t// in\n    tag_473:\n        /* \"#utility.yul\":24485:24486   */\n      0x00\n        /* \"#utility.yul\":24509:24513   */\n      0x20\n        /* \"#utility.yul\":24496:24513   */\n      swap1\n      pop\n        /* \"#utility.yul\":24541:24543   */\n      0x1f\n        /* \"#utility.yul\":24533:24539   */\n      dup4\n        /* \"#utility.yul\":24530:24544   */\n      gt\n        /* \"#utility.yul\":24558:24559   */\n      0x01\n        /* \"#utility.yul\":24553:25171   */\n      dup2\n      eq\n      tag_475\n      jumpi\n        /* \"#utility.yul\":25215:25216   */\n      0x00\n        /* \"#utility.yul\":25232:25238   */\n      dup5\n        /* \"#utility.yul\":25229:25306   */\n      iszero\n      tag_476\n      jumpi\n        /* \"#utility.yul\":25281:25290   */\n      dup3\n        /* \"#utility.yul\":25276:25279   */\n      dup8\n        /* \"#utility.yul\":25272:25291   */\n      add\n        /* \"#utility.yul\":25266:25292   */\n      mload\n        /* \"#utility.yul\":25257:25292   */\n      swap1\n      pop\n        /* \"#utility.yul\":25229:25306   */\n    tag_476:\n        /* \"#utility.yul\":25332:25399   */\n      tag_477\n        /* \"#utility.yul\":25392:25398   */\n      dup6\n        /* \"#utility.yul\":25385:25390   */\n      dup3\n        /* \"#utility.yul\":25332:25399   */\n      tag_219\n      jump\t// in\n    tag_477:\n        /* \"#utility.yul\":25326:25330   */\n      dup7\n        /* \"#utility.yul\":25319:25400   */\n      sstore\n        /* \"#utility.yul\":25188:25410   */\n      pop\n        /* \"#utility.yul\":24523:25410   */\n      jump(tag_474)\n        /* \"#utility.yul\":24553:25171   */\n    tag_475:\n        /* \"#utility.yul\":24605:24609   */\n      0x1f\n        /* \"#utility.yul\":24601:24610   */\n      not\n        /* \"#utility.yul\":24593:24599   */\n      dup5\n        /* \"#utility.yul\":24589:24611   */\n      and\n        /* \"#utility.yul\":24639:24676   */\n      tag_478\n        /* \"#utility.yul\":24671:24675   */\n      dup7\n        /* \"#utility.yul\":24639:24676   */\n      tag_203\n      jump\t// in\n    tag_478:\n        /* \"#utility.yul\":24698:24699   */\n      0x00\n        /* \"#utility.yul\":24712:24920   */\n    tag_479:\n        /* \"#utility.yul\":24726:24733   */\n      dup3\n        /* \"#utility.yul\":24723:24724   */\n      dup2\n        /* \"#utility.yul\":24720:24734   */\n      lt\n        /* \"#utility.yul\":24712:24920   */\n      iszero\n      tag_481\n      jumpi\n        /* \"#utility.yul\":24805:24814   */\n      dup5\n        /* \"#utility.yul\":24800:24803   */\n      dup10\n        /* \"#utility.yul\":24796:24815   */\n      add\n        /* \"#utility.yul\":24790:24816   */\n      mload\n        /* \"#utility.yul\":24782:24788   */\n      dup3\n        /* \"#utility.yul\":24775:24817   */\n      sstore\n        /* \"#utility.yul\":24856:24857   */\n      0x01\n        /* \"#utility.yul\":24848:24854   */\n      dup3\n        /* \"#utility.yul\":24844:24858   */\n      add\n        /* \"#utility.yul\":24834:24858   */\n      swap2\n      pop\n        /* \"#utility.yul\":24903:24905   */\n      0x20\n        /* \"#utility.yul\":24892:24901   */\n      dup6\n        /* \"#utility.yul\":24888:24906   */\n      add\n        /* \"#utility.yul\":24875:24906   */\n      swap5\n      pop\n        /* \"#utility.yul\":24749:24753   */\n      0x20\n        /* \"#utility.yul\":24746:24747   */\n      dup2\n        /* \"#utility.yul\":24742:24754   */\n      add\n        /* \"#utility.yul\":24737:24754   */\n      swap1\n      pop\n        /* \"#utility.yul\":24712:24920   */\n      jump(tag_479)\n    tag_481:\n        /* \"#utility.yul\":24948:24954   */\n      dup7\n        /* \"#utility.yul\":24939:24946   */\n      dup4\n        /* \"#utility.yul\":24936:24955   */\n      lt\n        /* \"#utility.yul\":24933:25112   */\n      iszero\n      tag_482\n      jumpi\n        /* \"#utility.yul\":25006:25015   */\n      dup5\n        /* \"#utility.yul\":25001:25004   */\n      dup10\n        /* \"#utility.yul\":24997:25016   */\n      add\n        /* \"#utility.yul\":24991:25017   */\n      mload\n        /* \"#utility.yul\":25049:25097   */\n      tag_483\n        /* \"#utility.yul\":25091:25095   */\n      0x1f\n        /* \"#utility.yul\":25083:25089   */\n      dup10\n        /* \"#utility.yul\":25079:25096   */\n      and\n        /* \"#utility.yul\":25068:25077   */\n      dup3\n        /* \"#utility.yul\":25049:25097   */\n      tag_218\n      jump\t// in\n    tag_483:\n        /* \"#utility.yul\":25041:25047   */\n      dup4\n        /* \"#utility.yul\":25034:25098   */\n      sstore\n        /* \"#utility.yul\":24956:25112   */\n      pop\n        /* \"#utility.yul\":24933:25112   */\n    tag_482:\n        /* \"#utility.yul\":25158:25159   */\n      0x01\n        /* \"#utility.yul\":25154:25155   */\n      0x02\n        /* \"#utility.yul\":25146:25152   */\n      dup9\n        /* \"#utility.yul\":25142:25156   */\n      mul\n        /* \"#utility.yul\":25138:25160   */\n      add\n        /* \"#utility.yul\":25132:25136   */\n      dup9\n        /* \"#utility.yul\":25125:25161   */\n      sstore\n        /* \"#utility.yul\":24560:25171   */\n      pop\n      pop\n      pop\n        /* \"#utility.yul\":24523:25410   */\n    tag_474:\n      pop\n        /* \"#utility.yul\":24113:25416   */\n      pop\n      pop\n      pop\n        /* \"#utility.yul\":24021:25416   */\n      pop\n      pop\n      jump\t// out\n        /* \"#utility.yul\":25422:25592   */\n    tag_220:\n        /* \"#utility.yul\":25562:25584   */\n      0x4d696e696d756d20455448206e6f74206d65742e000000000000000000000000\n        /* \"#utility.yul\":25558:25559   */\n      0x00\n        /* \"#utility.yul\":25550:25556   */\n      dup3\n        /* \"#utility.yul\":25546:25560   */\n      add\n        /* \"#utility.yul\":25539:25585   */\n      mstore\n        /* \"#utility.yul\":25422:25592   */\n      pop\n      jump\t// out\n        /* \"#utility.yul\":25598:25964   */\n    tag_221:\n        /* \"#utility.yul\":25740:25743   */\n      0x00\n        /* \"#utility.yul\":25761:25828   */\n      tag_486\n        /* \"#utility.yul\":25825:25827   */\n      0x14\n        /* \"#utility.yul\":25820:25823   */\n      dup4\n        /* \"#utility.yul\":25761:25828   */\n      tag_159\n      jump\t// in\n    tag_486:\n        /* \"#utility.yul\":25754:25828   */\n      swap2\n      pop\n        /* \"#utility.yul\":25837:25930   */\n      tag_487\n        /* \"#utility.yul\":25926:25929   */\n      dup3\n        /* \"#utility.yul\":25837:25930   */\n      tag_220\n      jump\t// in\n    tag_487:\n        /* \"#utility.yul\":25955:25957   */\n      0x20\n        /* \"#utility.yul\":25950:25953   */\n      dup3\n        /* \"#utility.yul\":25946:25958   */\n      add\n        /* \"#utility.yul\":25939:25958   */\n      swap1\n      pop\n        /* \"#utility.yul\":25598:25964   */\n      swap2\n      swap1\n      pop\n      jump\t// out\n        /* \"#utility.yul\":25970:26389   */\n    tag_122:\n        /* \"#utility.yul\":26136:26140   */\n      0x00\n        /* \"#utility.yul\":26174:26176   */\n      0x20\n        /* \"#utility.yul\":26163:26172   */\n      dup3\n        /* \"#utility.yul\":26159:26177   */\n      add\n        /* \"#utility.yul\":26151:26177   */\n      swap1\n      pop\n        /* \"#utility.yul\":26223:26232   */\n      dup2\n        /* \"#utility.yul\":26217:26221   */\n      dup2\n        /* \"#utility.yul\":26213:26233   */\n      sub\n        /* \"#utility.yul\":26209:26210   */\n      0x00\n        /* \"#utility.yul\":26198:26207   */\n      dup4\n        /* \"#utility.yul\":26194:26211   */\n      add\n        /* \"#utility.yul\":26187:26234   */\n      mstore\n        /* \"#utility.yul\":26251:26382   */\n      tag_489\n        /* \"#utility.yul\":26377:26381   */\n      dup2\n        /* \"#utility.yul\":26251:26382   */\n      tag_221\n      jump\t// in\n    tag_489:\n        /* \"#utility.yul\":26243:26382   */\n      swap1\n      pop\n        /* \"#utility.yul\":25970:26389   */\n      swap2\n      swap1\n      pop\n      jump\t// out\n        /* \"#utility.yul\":26395:26575   */\n    tag_222:\n        /* \"#utility.yul\":26443:26520   */\n      0x4e487b7100000000000000000000000000000000000000000000000000000000\n        /* \"#utility.yul\":26440:26441   */\n      0x00\n        /* \"#utility.yul\":26433:26521   */\n      mstore\n        /* \"#utility.yul\":26540:26544   */\n      0x11\n        /* \"#utility.yul\":26537:26538   */\n      0x04\n        /* \"#utility.yul\":26530:26545   */\n      mstore\n        /* \"#utility.yul\":26564:26568   */\n      0x24\n        /* \"#utility.yul\":26561:26562   */\n      0x00\n        /* \"#utility.yul\":26554:26569   */\n      revert\n        /* \"#utility.yul\":26581:26814   */\n    tag_125:\n        /* \"#utility.yul\":26620:26623   */\n      0x00\n        /* \"#utility.yul\":26643:26667   */\n      tag_492\n        /* \"#utility.yul\":26661:26666   */\n      dup3\n        /* \"#utility.yul\":26643:26667   */\n      tag_147\n      jump\t// in\n    tag_492:\n        /* \"#utility.yul\":26634:26667   */\n      swap2\n      pop\n        /* \"#utility.yul\":26689:26755   */\n      0xffffffffffffffffffffffffffffffffffffffffffffffffffffffffffffffff\n        /* \"#utility.yul\":26682:26687   */\n      dup3\n        /* \"#utility.yul\":26679:26756   */\n      sub\n        /* \"#utility.yul\":26676:26779   */\n      tag_493\n      jumpi\n        /* \"#utility.yul\":26759:26777   */\n      tag_494\n      tag_222\n      jump\t// in\n    tag_494:\n        /* \"#utility.yul\":26676:26779   */\n    tag_493:\n        /* \"#utility.yul\":26806:26807   */\n      0x01\n        /* \"#utility.yul\":26799:26804   */\n      dup3\n        /* \"#utility.yul\":26795:26808   */\n      add\n        /* \"#utility.yul\":26788:26808   */\n      swap1\n      pop\n        /* \"#utility.yul\":26581:26814   */\n      swap2\n      swap1\n      pop\n      jump\t// out\n        /* \"#utility.yul\":26820:26993   */\n    tag_223:\n        /* \"#utility.yul\":26960:26985   */\n      0x596f75277665206e6f7420636f6e74726962757465642e000000000000000000\n        /* \"#utility.yul\":26956:26957   */\n      0x00\n        /* \"#utility.yul\":26948:26954   */\n      dup3\n        /* \"#utility.yul\":26944:26958   */\n      add\n        /* \"#utility.yul\":26937:26986   */\n      mstore\n        /* \"#utility.yul\":26820:26993   */\n      pop\n      jump\t// out\n        /* \"#utility.yul\":26999:27365   */\n    tag_224:\n        /* \"#utility.yul\":27141:27144   */\n      0x00\n        /* \"#utility.yul\":27162:27229   */\n      tag_497\n        /* \"#utility.yul\":27226:27228   */\n      0x17\n        /* \"#utility.yul\":27221:27224   */\n      dup4\n        /* \"#utility.yul\":27162:27229   */\n      tag_159\n      jump\t// in\n    tag_497:\n        /* \"#utility.yul\":27155:27229   */\n      swap2\n      pop\n        /* \"#utility.yul\":27238:27331   */\n      tag_498\n        /* \"#utility.yul\":27327:27330   */\n      dup3\n        /* \"#utility.yul\":27238:27331   */\n      tag_223\n      jump\t// in\n    tag_498:\n        /* \"#utility.yul\":27356:27358   */\n      0x20\n        /* \"#utility.yul\":27351:27354   */\n      dup3\n        /* \"#utility.yul\":27347:27359   */\n      add\n        /* \"#utility.yul\":27340:27359   */\n      swap1\n      pop\n        /* \"#utility.yul\":26999:27365   */\n      swap2\n      swap1\n      pop\n      jump\t// out\n        /* \"#utility.yul\":27371:27790   */\n    tag_133:\n        /* \"#utility.yul\":27537:27541   */\n      0x00\n        /* \"#utility.yul\":27575:27577   */\n      0x20\n        /* \"#utility.yul\":27564:27573   */\n      dup3\n        /* \"#utility.yul\":27560:27578   */\n      add\n        /* \"#utility.yul\":27552:27578   */\n      swap1\n      pop\n        /* \"#utility.yul\":27624:27633   */\n      dup2\n        /* \"#utility.yul\":27618:27622   */\n      dup2\n        /* \"#utility.yul\":27614:27634   */\n      sub\n        /* \"#utility.yul\":27610:27611   */\n      0x00\n        /* \"#utility.yul\":27599:27608   */\n      dup4\n        /* \"#utility.yul\":27595:27612   */\n      add\n        /* \"#utility.yul\":27588:27635   */\n      mstore\n        /* \"#utility.yul\":27652:27783   */\n      tag_500\n        /* \"#utility.yul\":27778:27782   */\n      dup2\n        /* \"#utility.yul\":27652:27783   */\n      tag_224\n      jump\t// in\n    tag_500:\n        /* \"#utility.yul\":27644:27783   */\n      swap1\n      pop\n        /* \"#utility.yul\":27371:27790   */\n      swap2\n      swap1\n      pop\n      jump\t// out\n        /* \"#utility.yul\":27796:27975   */\n    tag_225:\n        /* \"#utility.yul\":27936:27967   */\n      0x596f7527766520617070726f766564207468697320726571756573742e000000\n        /* \"#utility.yul\":27932:27933   */\n      0x00\n        /* \"#utility.yul\":27924:27930   */\n      dup3\n        /* \"#utility.yul\":27920:27934   */\n      add\n        /* \"#utility.yul\":27913:27968   */\n      mstore\n        /* \"#utility.yul\":27796:27975   */\n      pop\n      jump\t// out\n        /* \"#utility.yul\":27981:28347   */\n    tag_226:\n        /* \"#utility.yul\":28123:28126   */\n      0x00\n        /* \"#utility.yul\":28144:28211   */\n      tag_503\n        /* \"#utility.yul\":28208:28210   */\n      0x1d\n        /* \"#utility.yul\":28203:28206   */\n      dup4\n        /* \"#utility.yul\":28144:28211   */\n      tag_159\n      jump\t// in\n    tag_503:\n        /* \"#utility.yul\":28137:28211   */\n      swap2\n      pop\n        /* \"#utility.yul\":28220:28313   */\n      tag_504\n        /* \"#utility.yul\":28309:28312   */\n      dup3\n        /* \"#utility.yul\":28220:28313   */\n      tag_225\n      jump\t// in\n    tag_504:\n        /* \"#utility.yul\":28338:28340   */\n      0x20\n        /* \"#utility.yul\":28333:28336   */\n      dup3\n        /* \"#utility.yul\":28329:28341   */\n      add\n        /* \"#utility.yul\":28322:28341   */\n      swap1\n      pop\n        /* \"#utility.yul\":27981:28347   */\n      swap2\n      swap1\n      pop\n      jump\t// out\n        /* \"#utility.yul\":28353:28772   */\n    tag_136:\n        /* \"#utility.yul\":28519:28523   */\n      0x00\n        /* \"#utility.yul\":28557:28559   */\n      0x20\n        /* \"#utility.yul\":28546:28555   */\n      dup3\n        /* \"#utility.yul\":28542:28560   */\n      add\n        /* \"#utility.yul\":28534:28560   */\n      swap1\n      pop\n        /* \"#utility.yul\":28606:28615   */\n      dup2\n        /* \"#utility.yul\":28600:28604   */\n      dup2\n        /* \"#utility.yul\":28596:28616   */\n      sub\n        /* \"#utility.yul\":28592:28593   */\n      0x00\n        /* \"#utility.yul\":28581:28590   */\n      dup4\n        /* \"#utility.yul\":28577:28594   */\n      add\n        /* \"#utility.yul\":28570:28617   */\n      mstore\n        /* \"#utility.yul\":28634:28765   */\n      tag_506\n        /* \"#utility.yul\":28760:28764   */\n      dup2\n        /* \"#utility.yul\":28634:28765   */\n      tag_226\n      jump\t// in\n    tag_506:\n        /* \"#utility.yul\":28626:28765   */\n      swap1\n      pop\n        /* \"#utility.yul\":28353:28772   */\n      swap2\n      swap1\n      pop\n      jump\t// out\n        /* \"#utility.yul\":28778:28979   */\n    tag_138:\n        /* \"#utility.yul\":28817:28820   */\n      0x00\n        /* \"#utility.yul\":28840:28864   */\n      tag_508\n        /* \"#utility.yul\":28858:28863   */\n      dup3\n        /* \"#utility.yul\":28840:28864   */\n      tag_154\n      jump\t// in\n    tag_508:\n        /* \"#utility.yul\":28831:28864   */\n      swap2\n      pop\n        /* \"#utility.yul\":28886:28920   */\n      0xffffffffffffffffffffffffffffffff\n        /* \"#utility.yul\":28879:28884   */\n      dup3\n        /* \"#utility.yul\":28876:28921   */\n      sub\n        /* \"#utility.yul\":28873:28944   */\n      tag_509\n      jumpi\n        /* \"#utility.yul\":28924:28942   */\n      tag_510\n      tag_222\n      jump\t// in\n    tag_510:\n        /* \"#utility.yul\":28873:28944   */\n    tag_509:\n        /* \"#utility.yul\":28971:28972   */\n      0x01\n        /* \"#utility.yul\":28964:28969   */\n      dup3\n        /* \"#utility.yul\":28960:28973   */\n      add\n        /* \"#utility.yul\":28953:28973   */\n      swap1\n      pop\n        /* \"#utility.yul\":28778:28979   */\n      swap2\n      swap1\n      pop\n      jump\t// out\n\n    auxdata: 0xa26469706673582212207b070486030e6bbd383ef42660532524af843ba51f70a5e7a94f8b46a42886ed64736f6c634300081c0033\n}\n","bytecode":{"linkReferences":{},"object":"608060405234801561000f575f5ffd5b50604051611e84380380611e8483398181016040528101906100319190610151565b5f8211610073576040517f08c379a000000000000000000000000000000000000000000000000000000000815260040161006a9061020f565b60405180910390fd5b805f5f6101000a81548173ffffffffffffffffffffffffffffffffffffffff021916908373ffffffffffffffffffffffffffffffffffffffff16021790555081600181905550505061022d565b5f5ffd5b5f819050919050565b6100d6816100c4565b81146100e0575f5ffd5b50565b5f815190506100f1816100cd565b92915050565b5f73ffffffffffffffffffffffffffffffffffffffff82169050919050565b5f610120826100f7565b9050919050565b61013081610116565b811461013a575f5ffd5b50565b5f8151905061014b81610127565b92915050565b5f5f60408385031215610167576101666100c0565b5b5f610174858286016100e3565b92505060206101858582860161013d565b9150509250929050565b5f82825260208201905092915050565b7f4d696e696d756d20636f6e747269627574696f6e2076616c7565206d757374205f8201527f62652067726561746572207468616e20302e0000000000000000000000000000602082015250565b5f6101f960328361018f565b91506102048261019f565b604082019050919050565b5f6020820190508181035f830152610226816101ed565b9050919050565b611c4a8061023a5f395ff3fe6080604052600436106100a6575f3560e01c806381d12c581161006357806381d12c58146101c0578063937e09b114610200578063c3f58ce11461022a578063d7bb99ba14610252578063d7d1bbdb1461025c578063ecfd892814610284576100a6565b8063024974b2146100aa57806303441006146100e65780631d0d35f5146101025780633410452a1461013e5780634051ddac14610168578063481c6a7514610196575b5f5ffd5b3480156100b5575f5ffd5b506100d060048036038101906100cb9190610e51565b6102ae565b6040516100dd9190610ea9565b60405180910390f35b61010060048036038101906100fb9190610ec2565b610318565b005b34801561010d575f5ffd5b5061012860048036038101906101239190610eed565b610643565b6040516101359190610ea9565b60405180910390f35b348015610149575f5ffd5b5061015261069c565b60405161015f9190610f27565b60405180910390f35b348015610173575f5ffd5b5061017c6106a8565b60405161018d959493929190610f4f565b60405180910390f35b3480156101a1575f5ffd5b506101aa6106ec565b6040516101b79190610fa0565b60405180910390f35b3480156101cb575f5ffd5b506101e660048036038101906101e19190610ec2565b610710565b6040516101f7959493929190611073565b60405180910390f35b34801561020b575f5ffd5b50610214610838565b6040516102219190610f27565b60405180910390f35b348015610235575f5ffd5b50610250600480360381019061024b919061124b565b61083e565b005b61025a610a9b565b005b348015610267575f5ffd5b50610282600480360381019061027d9190610ec2565b610bb7565b005b34801561028f575f5ffd5b50610298610dad565b6040516102a59190610f27565b60405180910390f35b5f5f60045f8573ffffffffffffffffffffffffffffffffffffffff1673ffffffffffffffffffffffffffffffffffffffff1681526020019081526020015f209050806001015f8481526020019081526020015f205f9054906101000a900460ff1691505092915050565b5f5f9054906101000a900473ffffffffffffffffffffffffffffffffffffffff1673ffffffffffffffffffffffffffffffffffffffff163373ffffffffffffffffffffffffffffffffffffffff16146103a6576040517f08c379a000000000000000000000000000000000000000000000000000000000815260040161039d90611301565b60405180910390fd5b3447116103e8576040517f08c379a00000000000000000000000000000000000000000000000000000000081526004016103df90611369565b60405180910390fd5b5f600382815481106103fd576103fc611387565b5b905f5260205f20906004020190505f6002549050600281901c825f0160019054906101000a90046fffffffffffffffffffffffffffffffff166fffffffffffffffffffffffffffffffff1611610488576040517f08c379a000000000000000000000000000000000000000000000000000000000815260040161047f906113fe565b60405180910390fd5b815f015f9054906101000a900460ff16156104d8576040517f08c379a00000000000000000000000000000000000000000000000000000000081526004016104cf90611466565b60405180910390fd5b6001825f015f6101000a81548160ff0219169083151502179055505f826002015f9054906101000a900473ffffffffffffffffffffffffffffffffffffffff1673ffffffffffffffffffffffffffffffffffffffff16836001015f9054906101000a90046fffffffffffffffffffffffffffffffff166fffffffffffffffffffffffffffffffff1660405161056c906114b1565b5f6040518083038185875af1925050503d805f81146105a6576040519150601f19603f3d011682016040523d82523d5f602084013e6105ab565b606091505b50509050806105ef576040517f08c379a00000000000000000000000000000000000000000000000000000000081526004016105e69061150f565b60405180910390fd5b3373ffffffffffffffffffffffffffffffffffffffff167f6482699891199dc38768a11c7fb6dbd662e0e25b4d437301946c92bd4846f78d8460405161063591906117b4565b60405180910390a250505050565b5f5f60045f8473ffffffffffffffffffffffffffffffffffffffff1673ffffffffffffffffffffffffffffffffffffffff1681526020019081526020015f209050805f015f9054906101000a900460ff16915050919050565b5f600380549050905090565b5f5f5f5f5f600154476003805490506002545f5f9054906101000a900473ffffffffffffffffffffffffffffffffffffffff16945094509450945094509091929394565b5f5f9054906101000a900473ffffffffffffffffffffffffffffffffffffffff1681565b6003818154811061071f575f80fd5b905f5260205f2090600402015f91509050805f015f9054906101000a900460ff1690805f0160019054906101000a90046fffffffffffffffffffffffffffffffff1690806001015f9054906101000a90046fffffffffffffffffffffffffffffffff1690806002015f9054906101000a900473ffffffffffffffffffffffffffffffffffffffff16908060030180546107b790611648565b80601f01602080910402602001604051908101604052809291908181526020018280546107e390611648565b801561082e5780601f106108055761010080835404028352916020019161082e565b820191905f5260205f20905b81548152906001019060200180831161081157829003601f168201915b5050505050905085565b60015481565b5f5f9054906101000a900473ffffffffffffffffffffffffffffffffffffffff1673ffffffffffffffffffffffffffffffffffffffff163373ffffffffffffffffffffffffffffffffffffffff16146108cc576040517f08c379a00000000000000000000000000000000000000000000000000000000081526004016108c390611301565b60405180910390fd5b5f6040518060a001604052805f151581526020015f6fffffffffffffffffffffffffffffffff168152602001846fffffffffffffffffffffffffffffffff1681526020018373ffffffffffffffffffffffffffffffffffffffff168152602001858152509050600381908060018154018082558091505060019003905f5260205f2090600402015f909190919091505f820151815f015f6101000a81548160ff0219169083151502179055506020820151815f0160016101000a8154816fffffffffffffffffffffffffffffffff02191690836fffffffffffffffffffffffffffffffff1602179055506040820151816001015f6101000a8154816fffffffffffffffffffffffffffffffff02191690836fffffffffffffffffffffffffffffffff1602179055506060820151816002015f6101000a81548173ffffffffffffffffffffffffffffffffffffffff021916908373ffffffffffffffffffffffffffffffffffffffff1602179055506080820151816003019081610a4f9190611962565b5050503373ffffffffffffffffffffffffffffffffffffffff167f60dc38bed424a87163b4220b98edb283977533b0a85a5743f8d35c28fd495e4760405160405180910390a250505050565b6001543411610adf576040517f08c379a0000000000000000000000000000000000000000000000000000000008152600401610ad690611a7b565b60405180910390fd5b5f60045f3373ffffffffffffffffffffffffffffffffffffffff1673ffffffffffffffffffffffffffffffffffffffff1681526020019081526020015f209050805f015f9054906101000a900460ff16610b665760025f815480929190610b4590611ac6565b91905055506001815f015f6101000a81548160ff0219169083151502179055505b3373ffffffffffffffffffffffffffffffffffffffff167f1bb460ccaaf70fbacfec17a376f8acbd278c1405590ffcc8ebe4b88daf4f64ad34604051610bac9190610f27565b60405180910390a250565b5f60038281548110610bcc57610bcb611387565b5b905f5260205f20906004020190505f60045f3373ffffffffffffffffffffffffffffffffffffffff1673ffffffffffffffffffffffffffffffffffffffff1681526020019081526020015f209050805f015f9054906101000a900460ff16610c69576040517f08c379a0000000000000000000000000000000000000000000000000000000008152600401610c6090611b57565b60405180910390fd5b806001015f8481526020019081526020015f205f9054906101000a900460ff1615610cc9576040517f08c379a0000000000000000000000000000000000000000000000000000000008152600401610cc090611bbf565b60405180910390fd5b6001816001015f8581526020019081526020015f205f6101000a81548160ff021916908315150217905550815f01600181819054906101000a90046fffffffffffffffffffffffffffffffff1680929190610d2390611bdd565b91906101000a8154816fffffffffffffffffffffffffffffffff02191690836fffffffffffffffffffffffffffffffff160217905550503373ffffffffffffffffffffffffffffffffffffffff167f27f12316d57cc5dfaf0c80128f1ec8290f7d29ce06df240b688ccdf492091fb283604051610da091906117b4565b60405180910390a2505050565b60025481565b5f604051905090565b5f5ffd5b5f5ffd5b5f73ffffffffffffffffffffffffffffffffffffffff82169050919050565b5f610ded82610dc4565b9050919050565b610dfd81610de3565b8114610e07575f5ffd5b50565b5f81359050610e1881610df4565b92915050565b5f819050919050565b610e3081610e1e565b8114610e3a575f5ffd5b50565b5f81359050610e4b81610e27565b92915050565b5f5f60408385031215610e6757610e66610dbc565b5b5f610e7485828601610e0a565b9250506020610e8585828601610e3d565b9150509250929050565b5f8115159050919050565b610ea381610e8f565b82525050565b5f602082019050610ebc5f830184610e9a565b92915050565b5f60208284031215610ed757610ed6610dbc565b5b5f610ee484828501610e3d565b91505092915050565b5f60208284031215610f0257610f01610dbc565b5b5f610f0f84828501610e0a565b91505092915050565b610f2181610e1e565b82525050565b5f602082019050610f3a5f830184610f18565b92915050565b610f4981610de3565b82525050565b5f60a082019050610f625f830188610f18565b610f6f6020830187610f18565b610f7c6040830186610f18565b610f896060830185610f18565b610f966080830184610f40565b9695505050505050565b5f602082019050610fb35f830184610f40565b92915050565b5f6fffffffffffffffffffffffffffffffff82169050919050565b610fdd81610fb9565b82525050565b5f610fed82610dc4565b9050919050565b610ffd81610fe3565b82525050565b5f81519050919050565b5f82825260208201905092915050565b8281835e5f83830152505050565b5f601f19601f8301169050919050565b5f61104582611003565b61104f818561100d565b935061105f81856020860161101d565b6110688161102b565b840191505092915050565b5f60a0820190506110865f830188610e9a565b6110936020830187610fd4565b6110a06040830186610fd4565b6110ad6060830185610ff4565b81810360808301526110bf818461103b565b90509695505050505050565b5f5ffd5b5f5ffd5b7f4e487b71000000000000000000000000000000000000000000000000000000005f52604160045260245ffd5b6111098261102b565b810181811067ffffffffffffffff82111715611128576111276110d3565b5b80604052505050565b5f61113a610db3565b90506111468282611100565b919050565b5f67ffffffffffffffff821115611165576111646110d3565b5b61116e8261102b565b9050602081019050919050565b828183375f83830152505050565b5f61119b6111968461114b565b611131565b9050828152602081018484840111156111b7576111b66110cf565b5b6111c284828561117b565b509392505050565b5f82601f8301126111de576111dd6110cb565b5b81356111ee848260208601611189565b91505092915050565b61120081610fb9565b811461120a575f5ffd5b50565b5f8135905061121b816111f7565b92915050565b61122a81610fe3565b8114611234575f5ffd5b50565b5f8135905061124581611221565b92915050565b5f5f5f6060848603121561126257611261610dbc565b5b5f84013567ffffffffffffffff81111561127f5761127e610dc0565b5b61128b868287016111ca565b935050602061129c8682870161120d565b92505060406112ad86828701611237565b9150509250925092565b7f4f6e6c7920746865206d616e616765722063616e20646f20746869732e0000005f82015250565b5f6112eb601d8361100d565b91506112f6826112b7565b602082019050919050565b5f6020820190508181035f830152611318816112df565b9050919050565b7f496e73756666696369656e7420636f6e74726163742062616c616e63652e00005f82015250565b5f611353601e8361100d565b915061135e8261131f565b602082019050919050565b5f6020820190508181035f83015261138081611347565b9050919050565b7f4e487b71000000000000000000000000000000000000000000000000000000005f52603260045260245ffd5b7f4e6f7420656e6f75676820617070726f76616c732e00000000000000000000005f82015250565b5f6113e860158361100d565b91506113f3826113b4565b602082019050919050565b5f6020820190508181035f830152611415816113dc565b9050919050565b7f5265717565737420636f6d706c6574656420616c72656164792e0000000000005f82015250565b5f611450601a8361100d565b915061145b8261141c565b602082019050919050565b5f6020820190508181035f83015261147d81611444565b9050919050565b5f81905092915050565b50565b5f61149c5f83611484565b91506114a78261148e565b5f82019050919050565b5f6114bb82611491565b9150819050919050565b7f5472616e73666572206661696c65642e000000000000000000000000000000005f82015250565b5f6114f960108361100d565b9150611504826114c5565b602082019050919050565b5f6020820190508181035f830152611526816114ed565b9050919050565b5f815f1c9050919050565b5f60ff82169050919050565b5f6115566115518361152d565b611538565b9050919050565b61156681610e8f565b82525050565b5f8160081c9050919050565b5f6fffffffffffffffffffffffffffffffff82169050919050565b5f6115a56115a08361156c565b611578565b9050919050565b6115b581610fb9565b82525050565b5f6115cd6115c88361152d565b611578565b9050919050565b5f73ffffffffffffffffffffffffffffffffffffffff82169050919050565b5f6116056116008361152d565b6115d4565b9050919050565b61161581610fe3565b82525050565b7f4e487b71000000000000000000000000000000000000000000000000000000005f52602260045260245ffd5b5f600282049050600182168061165f57607f821691505b6020821081036116725761167161161b565b5b50919050565b5f82825260208201905092915050565b5f819050815f5260205f209050919050565b5f81546116a681611648565b6116b08186611678565b9450600182165f81146116ca57600181146116e057611712565b60ff198316865281151560200286019350611712565b6116e985611688565b5f5b8381101561170a578154818901526001820191506020810190506116eb565b808801955050505b50505092915050565b5f60a083015f5f840154905061173081611544565b61173c5f87018261155d565b5061174681611593565b61175360208701826115ac565b5060018401549050611764816115bb565b61177160408701826115ac565b5060028401549050611782816115f3565b61178f606087018261160c565b506003840185830360808701526117a6838261169a565b925050819250505092915050565b5f6020820190508181035f8301526117cc818461171b565b905092915050565b5f6020601f8301049050919050565b5f82821b905092915050565b5f6008830261181e7fffffffffffffffffffffffffffffffffffffffffffffffffffffffffffffffff826117e3565b61182886836117e3565b95508019841693508086168417925050509392505050565b5f819050919050565b5f61186361185e61185984610e1e565b611840565b610e1e565b9050919050565b5f819050919050565b61187c83611849565b6118906118888261186a565b8484546117ef565b825550505050565b5f5f905090565b6118a7611898565b6118b2818484611873565b505050565b5b818110156118d5576118ca5f8261189f565b6001810190506118b8565b5050565b601f82111561191a576118eb81611688565b6118f4846117d4565b81016020851015611903578190505b61191761190f856117d4565b8301826118b7565b50505b505050565b5f82821c905092915050565b5f61193a5f198460080261191f565b1980831691505092915050565b5f611952838361192b565b9150826002028217905092915050565b61196b82611003565b67ffffffffffffffff811115611984576119836110d3565b5b61198e8254611648565b6119998282856118d9565b5f60209050601f8311600181146119ca575f84156119b8578287015190505b6119c28582611947565b865550611a29565b601f1984166119d886611688565b5f5b828110156119ff578489015182556001820191506020850194506020810190506119da565b86831015611a1c5784890151611a18601f89168261192b565b8355505b6001600288020188555050505b505050505050565b7f4d696e696d756d20455448206e6f74206d65742e0000000000000000000000005f82015250565b5f611a6560148361100d565b9150611a7082611a31565b602082019050919050565b5f6020820190508181035f830152611a9281611a59565b9050919050565b7f4e487b71000000000000000000000000000000000000000000000000000000005f52601160045260245ffd5b5f611ad082610e1e565b91507fffffffffffffffffffffffffffffffffffffffffffffffffffffffffffffffff8203611b0257611b01611a99565b5b600182019050919050565b7f596f75277665206e6f7420636f6e74726962757465642e0000000000000000005f82015250565b5f611b4160178361100d565b9150611b4c82611b0d565b602082019050919050565b5f6020820190508181035f830152611b6e81611b35565b9050919050565b7f596f7527766520617070726f766564207468697320726571756573742e0000005f82015250565b5f611ba9601d8361100d565b9150611bb482611b75565b602082019050919050565b5f6020820190508181035f830152611bd681611b9d565b9050919050565b5f611be782610fb9565b91506fffffffffffffffffffffffffffffffff8203611c0957611c08611a99565b5b60018201905091905056fea26469706673582212207b070486030e6bbd383ef42660532524af843ba51f70a5e7a94f8b46a42886ed64736f6c634300081c0033","opcodes":"PUSH1 0x80 PUSH1 0x40 MSTORE CALLVALUE DUP1 ISZERO PUSH2 0xF JUMPI PUSH0 PUSH0 REVERT JUMPDEST POP PUSH1 0x40 MLOAD PUSH2 0x1E84 CODESIZE SUB DUP1 PUSH2 0x1E84 DUP4 CODECOPY DUP2 DUP2 ADD PUSH1 0x40 MSTORE DUP2 ADD SWAP1 PUSH2 0x31 SWAP2 SWAP1 PUSH2 0x151 JUMP JUMPDEST PUSH0 DUP3 GT PUSH2 0x73 JUMPI PUSH1 0x40 MLOAD PUSH32 0x8C379A000000000000000000000000000000000000000000000000000000000 DUP2 MSTORE PUSH1 0x4 ADD PUSH2 0x6A SWAP1 PUSH2 0x20F JUMP JUMPDEST PUSH1 0x40 MLOAD DUP1 SWAP2 SUB SWAP1 REVERT JUMPDEST DUP1 PUSH0 PUSH0 PUSH2 0x100 EXP DUP2 SLOAD DUP2 PUSH20 0xFFFFFFFFFFFFFFFFFFFFFFFFFFFFFFFFFFFFFFFF MUL NOT AND SWAP1 DUP4 PUSH20 0xFFFFFFFFFFFFFFFFFFFFFFFFFFFFFFFFFFFFFFFF AND MUL OR SWAP1 SSTORE POP DUP2 PUSH1 0x1 DUP2 SWAP1 SSTORE POP POP POP PUSH2 0x22D JUMP JUMPDEST PUSH0 PUSH0 REVERT JUMPDEST PUSH0 DUP2 SWAP1 POP SWAP2 SWAP1 POP JUMP JUMPDEST PUSH2 0xD6 DUP2 PUSH2 0xC4 JUMP JUMPDEST DUP2 EQ PUSH2 0xE0 JUMPI PUSH0 PUSH0 REVERT JUMPDEST POP JUMP JUMPDEST PUSH0 DUP2 MLOAD SWAP1 POP PUSH2 0xF1 DUP2 PUSH2 0xCD JUMP JUMPDEST SWAP3 SWAP2 POP POP JUMP JUMPDEST PUSH0 PUSH20 0xFFFFFFFFFFFFFFFFFFFFFFFFFFFFFFFFFFFFFFFF DUP3 AND SWAP1 POP SWAP2 SWAP1 POP JUMP JUMPDEST PUSH0 PUSH2 0x120 DUP3 PUSH2 0xF7 JUMP JUMPDEST SWAP1 POP SWAP2 SWAP1 POP JUMP JUMPDEST PUSH2 0x130 DUP2 PUSH2 0x116 JUMP JUMPDEST DUP2 EQ PUSH2 0x13A JUMPI PUSH0 PUSH0 REVERT JUMPDEST POP JUMP JUMPDEST PUSH0 DUP2 MLOAD SWAP1 POP PUSH2 0x14B DUP2 PUSH2 0x127 JUMP JUMPDEST SWAP3 SWAP2 POP POP JUMP JUMPDEST PUSH0 PUSH0 PUSH1 0x40 DUP4 DUP6 SUB SLT ISZERO PUSH2 0x167 JUMPI PUSH2 0x166 PUSH2 0xC0 JUMP JUMPDEST JUMPDEST PUSH0 PUSH2 0x174 DUP6 DUP3 DUP7 ADD PUSH2 0xE3 JUMP JUMPDEST SWAP3 POP POP PUSH1 0x20 PUSH2 0x185 DUP6 DUP3 DUP7 ADD PUSH2 0x13D JUMP JUMPDEST SWAP2 POP POP SWAP3 POP SWAP3 SWAP1 POP JUMP JUMPDEST PUSH0 DUP3 DUP3 MSTORE PUSH1 0x20 DUP3 ADD SWAP1 POP SWAP3 SWAP2 POP POP JUMP JUMPDEST PUSH32 0x4D696E696D756D20636F6E747269627574696F6E2076616C7565206D75737420 PUSH0 DUP3 ADD MSTORE PUSH32 0x62652067726561746572207468616E20302E0000000000000000000000000000 PUSH1 0x20 DUP3 ADD MSTORE POP JUMP JUMPDEST PUSH0 PUSH2 0x1F9 PUSH1 0x32 DUP4 PUSH2 0x18F JUMP JUMPDEST SWAP2 POP PUSH2 0x204 DUP3 PUSH2 0x19F JUMP JUMPDEST PUSH1 0x40 DUP3 ADD SWAP1 POP SWAP2 SWAP1 POP JUMP JUMPDEST PUSH0 PUSH1 0x20 DUP3 ADD SWAP1 POP DUP2 DUP2 SUB PUSH0 DUP4 ADD MSTORE PUSH2 0x226 DUP2 PUSH2 0x1ED JUMP JUMPDEST SWAP1 POP SWAP2 SWAP1 POP JUMP JUMPDEST PUSH2 0x1C4A DUP1 PUSH2 0x23A PUSH0 CODECOPY PUSH0 RETURN INVALID PUSH1 0x80 PUSH1 0x40 MSTORE PUSH1 0x4 CALLDATASIZE LT PUSH2 0xA6 JUMPI PUSH0 CALLDATALOAD PUSH1 0xE0 SHR DUP1 PUSH4 0x81D12C58 GT PUSH2 0x63 JUMPI DUP1 PUSH4 0x81D12C58 EQ PUSH2 0x1C0 JUMPI DUP1 PUSH4 0x937E09B1 EQ PUSH2 0x200 JUMPI DUP1 PUSH4 0xC3F58CE1 EQ PUSH2 0x22A JUMPI DUP1 PUSH4 0xD7BB99BA EQ PUSH2 0x252 JUMPI DUP1 PUSH4 0xD7D1BBDB EQ PUSH2 0x25C JUMPI DUP1 PUSH4 0xECFD8928 EQ PUSH2 0x284 JUMPI PUSH2 0xA6 JUMP JUMPDEST DUP1 PUSH4 0x24974B2 EQ PUSH2 0xAA JUMPI DUP1 PUSH4 0x3441006 EQ PUSH2 0xE6 JUMPI DUP1 PUSH4 0x1D0D35F5 EQ PUSH2 0x102 JUMPI DUP1 PUSH4 0x3410452A EQ PUSH2 0x13E JUMPI DUP1 PUSH4 0x4051DDAC EQ PUSH2 0x168 JUMPI DUP1 PUSH4 0x481C6A75 EQ PUSH2 0x196 JUMPI JUMPDEST PUSH0 PUSH0 REVERT JUMPDEST CALLVALUE DUP1 ISZERO PUSH2 0xB5 JUMPI PUSH0 PUSH0 REVERT JUMPDEST POP PUSH2 0xD0 PUSH1 0x4 DUP1 CALLDATASIZE SUB DUP2 ADD SWAP1 PUSH2 0xCB SWAP2 SWAP1 PUSH2 0xE51 JUMP JUMPDEST PUSH2 0x2AE JUMP JUMPDEST PUSH1 0x40 MLOAD PUSH2 0xDD SWAP2 SWAP1 PUSH2 0xEA9 JUMP JUMPDEST PUSH1 0x40 MLOAD DUP1 SWAP2 SUB SWAP1 RETURN JUMPDEST PUSH2 0x100 PUSH1 0x4 DUP1 CALLDATASIZE SUB DUP2 ADD SWAP1 PUSH2 0xFB SWAP2 SWAP1 PUSH2 0xEC2 JUMP JUMPDEST PUSH2 0x318 JUMP JUMPDEST STOP JUMPDEST CALLVALUE DUP1 ISZERO PUSH2 0x10D JUMPI PUSH0 PUSH0 REVERT JUMPDEST POP PUSH2 0x128 PUSH1 0x4 DUP1 CALLDATASIZE SUB DUP2 ADD SWAP1 PUSH2 0x123 SWAP2 SWAP1 PUSH2 0xEED JUMP JUMPDEST PUSH2 0x643 JUMP JUMPDEST PUSH1 0x40 MLOAD PUSH2 0x135 SWAP2 SWAP1 PUSH2 0xEA9 JUMP JUMPDEST PUSH1 0x40 MLOAD DUP1 SWAP2 SUB SWAP1 RETURN JUMPDEST CALLVALUE DUP1 ISZERO PUSH2 0x149 JUMPI PUSH0 PUSH0 REVERT JUMPDEST POP PUSH2 0x152 PUSH2 0x69C JUMP JUMPDEST PUSH1 0x40 MLOAD PUSH2 0x15F SWAP2 SWAP1 PUSH2 0xF27 JUMP JUMPDEST PUSH1 0x40 MLOAD DUP1 SWAP2 SUB SWAP1 RETURN JUMPDEST CALLVALUE DUP1 ISZERO PUSH2 0x173 JUMPI PUSH0 PUSH0 REVERT JUMPDEST POP PUSH2 0x17C PUSH2 0x6A8 JUMP JUMPDEST PUSH1 0x40 MLOAD PUSH2 0x18D SWAP6 SWAP5 SWAP4 SWAP3 SWAP2 SWAP1 PUSH2 0xF4F JUMP JUMPDEST PUSH1 0x40 MLOAD DUP1 SWAP2 SUB SWAP1 RETURN JUMPDEST CALLVALUE DUP1 ISZERO PUSH2 0x1A1 JUMPI PUSH0 PUSH0 REVERT JUMPDEST POP PUSH2 0x1AA PUSH2 0x6EC JUMP JUMPDEST PUSH1 0x40 MLOAD PUSH2 0x1B7 SWAP2 SWAP1 PUSH2 0xFA0 JUMP JUMPDEST PUSH1 0x40 MLOAD DUP1 SWAP2 SUB SWAP1 RETURN JUMPDEST CALLVALUE DUP1 ISZERO PUSH2 0x1CB JUMPI PUSH0 PUSH0 REVERT JUMPDEST POP PUSH2 0x1E6 PUSH1 0x4 DUP1 CALLDATASIZE SUB DUP2 ADD SWAP1 PUSH2 0x1E1 SWAP2 SWAP1 PUSH2 0xEC2 JUMP JUMPDEST PUSH2 0x710 JUMP JUMPDEST PUSH1 0x40 MLOAD PUSH2 0x1F7 SWAP6 SWAP5 SWAP4 SWAP3 SWAP2 SWAP1 PUSH2 0x1073 JUMP JUMPDEST PUSH1 0x40 MLOAD DUP1 SWAP2 SUB SWAP1 RETURN JUMPDEST CALLVALUE DUP1 ISZERO PUSH2 0x20B JUMPI PUSH0 PUSH0 REVERT JUMPDEST POP PUSH2 0x214 PUSH2 0x838 JUMP JUMPDEST PUSH1 0x40 MLOAD PUSH2 0x221 SWAP2 SWAP1 PUSH2 0xF27 JUMP JUMPDEST PUSH1 0x40 MLOAD DUP1 SWAP2 SUB SWAP1 RETURN JUMPDEST CALLVALUE DUP1 ISZERO PUSH2 0x235 JUMPI PUSH0 PUSH0 REVERT JUMPDEST POP PUSH2 0x250 PUSH1 0x4 DUP1 CALLDATASIZE SUB DUP2 ADD SWAP1 PUSH2 0x24B SWAP2 SWAP1 PUSH2 0x124B JUMP JUMPDEST PUSH2 0x83E JUMP JUMPDEST STOP JUMPDEST PUSH2 0x25A PUSH2 0xA9B JUMP JUMPDEST STOP JUMPDEST CALLVALUE DUP1 ISZERO PUSH2 0x267 JUMPI PUSH0 PUSH0 REVERT JUMPDEST POP PUSH2 0x282 PUSH1 0x4 DUP1 CALLDATASIZE SUB DUP2 ADD SWAP1 PUSH2 0x27D SWAP2 SWAP1 PUSH2 0xEC2 JUMP JUMPDEST PUSH2 0xBB7 JUMP JUMPDEST STOP JUMPDEST CALLVALUE DUP1 ISZERO PUSH2 0x28F JUMPI PUSH0 PUSH0 REVERT JUMPDEST POP PUSH2 0x298 PUSH2 0xDAD JUMP JUMPDEST PUSH1 0x40 MLOAD PUSH2 0x2A5 SWAP2 SWAP1 PUSH2 0xF27 JUMP JUMPDEST PUSH1 0x40 MLOAD DUP1 SWAP2 SUB SWAP1 RETURN JUMPDEST PUSH0 PUSH0 PUSH1 0x4 PUSH0 DUP6 PUSH20 0xFFFFFFFFFFFFFFFFFFFFFFFFFFFFFFFFFFFFFFFF AND PUSH20 0xFFFFFFFFFFFFFFFFFFFFFFFFFFFFFFFFFFFFFFFF AND DUP2 MSTORE PUSH1 0x20 ADD SWAP1 DUP2 MSTORE PUSH1 0x20 ADD PUSH0 KECCAK256 SWAP1 POP DUP1 PUSH1 0x1 ADD PUSH0 DUP5 DUP2 MSTORE PUSH1 0x20 ADD SWAP1 DUP2 MSTORE PUSH1 0x20 ADD PUSH0 KECCAK256 PUSH0 SWAP1 SLOAD SWAP1 PUSH2 0x100 EXP SWAP1 DIV PUSH1 0xFF AND SWAP2 POP POP SWAP3 SWAP2 POP POP JUMP JUMPDEST PUSH0 PUSH0 SWAP1 SLOAD SWAP1 PUSH2 0x100 EXP SWAP1 DIV PUSH20 0xFFFFFFFFFFFFFFFFFFFFFFFFFFFFFFFFFFFFFFFF AND PUSH20 0xFFFFFFFFFFFFFFFFFFFFFFFFFFFFFFFFFFFFFFFF AND CALLER PUSH20 0xFFFFFFFFFFFFFFFFFFFFFFFFFFFFFFFFFFFFFFFF AND EQ PUSH2 0x3A6 JUMPI PUSH1 0x40 MLOAD PUSH32 0x8C379A000000000000000000000000000000000000000000000000000000000 DUP2 MSTORE PUSH1 0x4 ADD PUSH2 0x39D SWAP1 PUSH2 0x1301 JUMP JUMPDEST PUSH1 0x40 MLOAD DUP1 SWAP2 SUB SWAP1 REVERT JUMPDEST CALLVALUE SELFBALANCE GT PUSH2 0x3E8 JUMPI PUSH1 0x40 MLOAD PUSH32 0x8C379A000000000000000000000000000000000000000000000000000000000 DUP2 MSTORE PUSH1 0x4 ADD PUSH2 0x3DF SWAP1 PUSH2 0x1369 JUMP JUMPDEST PUSH1 0x40 MLOAD DUP1 SWAP2 SUB SWAP1 REVERT JUMPDEST PUSH0 PUSH1 0x3 DUP3 DUP2 SLOAD DUP2 LT PUSH2 0x3FD JUMPI PUSH2 0x3FC PUSH2 0x1387 JUMP JUMPDEST JUMPDEST SWAP1 PUSH0 MSTORE PUSH1 0x20 PUSH0 KECCAK256 SWAP1 PUSH1 0x4 MUL ADD SWAP1 POP PUSH0 PUSH1 0x2 SLOAD SWAP1 POP PUSH1 0x2 DUP2 SWAP1 SHR DUP3 PUSH0 ADD PUSH1 0x1 SWAP1 SLOAD SWAP1 PUSH2 0x100 EXP SWAP1 DIV PUSH16 0xFFFFFFFFFFFFFFFFFFFFFFFFFFFFFFFF AND PUSH16 0xFFFFFFFFFFFFFFFFFFFFFFFFFFFFFFFF AND GT PUSH2 0x488 JUMPI PUSH1 0x40 MLOAD PUSH32 0x8C379A000000000000000000000000000000000000000000000000000000000 DUP2 MSTORE PUSH1 0x4 ADD PUSH2 0x47F SWAP1 PUSH2 0x13FE JUMP JUMPDEST PUSH1 0x40 MLOAD DUP1 SWAP2 SUB SWAP1 REVERT JUMPDEST DUP2 PUSH0 ADD PUSH0 SWAP1 SLOAD SWAP1 PUSH2 0x100 EXP SWAP1 DIV PUSH1 0xFF AND ISZERO PUSH2 0x4D8 JUMPI PUSH1 0x40 MLOAD PUSH32 0x8C379A000000000000000000000000000000000000000000000000000000000 DUP2 MSTORE PUSH1 0x4 ADD PUSH2 0x4CF SWAP1 PUSH2 0x1466 JUMP JUMPDEST PUSH1 0x40 MLOAD DUP1 SWAP2 SUB SWAP1 REVERT JUMPDEST PUSH1 0x1 DUP3 PUSH0 ADD PUSH0 PUSH2 0x100 EXP DUP2 SLOAD DUP2 PUSH1 0xFF MUL NOT AND SWAP1 DUP4 ISZERO ISZERO MUL OR SWAP1 SSTORE POP PUSH0 DUP3 PUSH1 0x2 ADD PUSH0 SWAP1 SLOAD SWAP1 PUSH2 0x100 EXP SWAP1 DIV PUSH20 0xFFFFFFFFFFFFFFFFFFFFFFFFFFFFFFFFFFFFFFFF AND PUSH20 0xFFFFFFFFFFFFFFFFFFFFFFFFFFFFFFFFFFFFFFFF AND DUP4 PUSH1 0x1 ADD PUSH0 SWAP1 SLOAD SWAP1 PUSH2 0x100 EXP SWAP1 DIV PUSH16 0xFFFFFFFFFFFFFFFFFFFFFFFFFFFFFFFF AND PUSH16 0xFFFFFFFFFFFFFFFFFFFFFFFFFFFFFFFF AND PUSH1 0x40 MLOAD PUSH2 0x56C SWAP1 PUSH2 0x14B1 JUMP JUMPDEST PUSH0 PUSH1 0x40 MLOAD DUP1 DUP4 SUB DUP2 DUP6 DUP8 GAS CALL SWAP3 POP POP POP RETURNDATASIZE DUP1 PUSH0 DUP2 EQ PUSH2 0x5A6 JUMPI PUSH1 0x40 MLOAD SWAP2 POP PUSH1 0x1F NOT PUSH1 0x3F RETURNDATASIZE ADD AND DUP3 ADD PUSH1 0x40 MSTORE RETURNDATASIZE DUP3 MSTORE RETURNDATASIZE PUSH0 PUSH1 0x20 DUP5 ADD RETURNDATACOPY PUSH2 0x5AB JUMP JUMPDEST PUSH1 0x60 SWAP2 POP JUMPDEST POP POP SWAP1 POP DUP1 PUSH2 0x5EF JUMPI PUSH1 0x40 MLOAD PUSH32 0x8C379A000000000000000000000000000000000000000000000000000000000 DUP2 MSTORE PUSH1 0x4 ADD PUSH2 0x5E6 SWAP1 PUSH2 0x150F JUMP JUMPDEST PUSH1 0x40 MLOAD DUP1 SWAP2 SUB SWAP1 REVERT JUMPDEST CALLER PUSH20 0xFFFFFFFFFFFFFFFFFFFFFFFFFFFFFFFFFFFFFFFF AND PUSH32 0x6482699891199DC38768A11C7FB6DBD662E0E25B4D437301946C92BD4846F78D DUP5 PUSH1 0x40 MLOAD PUSH2 0x635 SWAP2 SWAP1 PUSH2 0x17B4 JUMP JUMPDEST PUSH1 0x40 MLOAD DUP1 SWAP2 SUB SWAP1 LOG2 POP POP POP POP JUMP JUMPDEST PUSH0 PUSH0 PUSH1 0x4 PUSH0 DUP5 PUSH20 0xFFFFFFFFFFFFFFFFFFFFFFFFFFFFFFFFFFFFFFFF AND PUSH20 0xFFFFFFFFFFFFFFFFFFFFFFFFFFFFFFFFFFFFFFFF AND DUP2 MSTORE PUSH1 0x20 ADD SWAP1 DUP2 MSTORE PUSH1 0x20 ADD PUSH0 KECCAK256 SWAP1 POP DUP1 PUSH0 ADD PUSH0 SWAP1 SLOAD SWAP1 PUSH2 0x100 EXP SWAP1 DIV PUSH1 0xFF AND SWAP2 POP POP SWAP2 SWAP1 POP JUMP JUMPDEST PUSH0 PUSH1 0x3 DUP1 SLOAD SWAP1 POP SWAP1 POP SWAP1 JUMP JUMPDEST PUSH0 PUSH0 PUSH0 PUSH0 PUSH0 PUSH1 0x1 SLOAD SELFBALANCE PUSH1 0x3 DUP1 SLOAD SWAP1 POP PUSH1 0x2 SLOAD PUSH0 PUSH0 SWAP1 SLOAD SWAP1 PUSH2 0x100 EXP SWAP1 DIV PUSH20 0xFFFFFFFFFFFFFFFFFFFFFFFFFFFFFFFFFFFFFFFF AND SWAP5 POP SWAP5 POP SWAP5 POP SWAP5 POP SWAP5 POP SWAP1 SWAP2 SWAP3 SWAP4 SWAP5 JUMP JUMPDEST PUSH0 PUSH0 SWAP1 SLOAD SWAP1 PUSH2 0x100 EXP SWAP1 DIV PUSH20 0xFFFFFFFFFFFFFFFFFFFFFFFFFFFFFFFFFFFFFFFF AND DUP2 JUMP JUMPDEST PUSH1 0x3 DUP2 DUP2 SLOAD DUP2 LT PUSH2 0x71F JUMPI PUSH0 DUP1 REVERT JUMPDEST SWAP1 PUSH0 MSTORE PUSH1 0x20 PUSH0 KECCAK256 SWAP1 PUSH1 0x4 MUL ADD PUSH0 SWAP2 POP SWAP1 POP DUP1 PUSH0 ADD PUSH0 SWAP1 SLOAD SWAP1 PUSH2 0x100 EXP SWAP1 DIV PUSH1 0xFF AND SWAP1 DUP1 PUSH0 ADD PUSH1 0x1 SWAP1 SLOAD SWAP1 PUSH2 0x100 EXP SWAP1 DIV PUSH16 0xFFFFFFFFFFFFFFFFFFFFFFFFFFFFFFFF AND SWAP1 DUP1 PUSH1 0x1 ADD PUSH0 SWAP1 SLOAD SWAP1 PUSH2 0x100 EXP SWAP1 DIV PUSH16 0xFFFFFFFFFFFFFFFFFFFFFFFFFFFFFFFF AND SWAP1 DUP1 PUSH1 0x2 ADD PUSH0 SWAP1 SLOAD SWAP1 PUSH2 0x100 EXP SWAP1 DIV PUSH20 0xFFFFFFFFFFFFFFFFFFFFFFFFFFFFFFFFFFFFFFFF AND SWAP1 DUP1 PUSH1 0x3 ADD DUP1 SLOAD PUSH2 0x7B7 SWAP1 PUSH2 0x1648 JUMP JUMPDEST DUP1 PUSH1 0x1F ADD PUSH1 0x20 DUP1 SWAP2 DIV MUL PUSH1 0x20 ADD PUSH1 0x40 MLOAD SWAP1 DUP2 ADD PUSH1 0x40 MSTORE DUP1 SWAP3 SWAP2 SWAP1 DUP2 DUP2 MSTORE PUSH1 0x20 ADD DUP3 DUP1 SLOAD PUSH2 0x7E3 SWAP1 PUSH2 0x1648 JUMP JUMPDEST DUP1 ISZERO PUSH2 0x82E JUMPI DUP1 PUSH1 0x1F LT PUSH2 0x805 JUMPI PUSH2 0x100 DUP1 DUP4 SLOAD DIV MUL DUP4 MSTORE SWAP2 PUSH1 0x20 ADD SWAP2 PUSH2 0x82E JUMP JUMPDEST DUP3 ADD SWAP2 SWAP1 PUSH0 MSTORE PUSH1 0x20 PUSH0 KECCAK256 SWAP1 JUMPDEST DUP2 SLOAD DUP2 MSTORE SWAP1 PUSH1 0x1 ADD SWAP1 PUSH1 0x20 ADD DUP1 DUP4 GT PUSH2 0x811 JUMPI DUP3 SWAP1 SUB PUSH1 0x1F AND DUP3 ADD SWAP2 JUMPDEST POP POP POP POP POP SWAP1 POP DUP6 JUMP JUMPDEST PUSH1 0x1 SLOAD DUP2 JUMP JUMPDEST PUSH0 PUSH0 SWAP1 SLOAD SWAP1 PUSH2 0x100 EXP SWAP1 DIV PUSH20 0xFFFFFFFFFFFFFFFFFFFFFFFFFFFFFFFFFFFFFFFF AND PUSH20 0xFFFFFFFFFFFFFFFFFFFFFFFFFFFFFFFFFFFFFFFF AND CALLER PUSH20 0xFFFFFFFFFFFFFFFFFFFFFFFFFFFFFFFFFFFFFFFF AND EQ PUSH2 0x8CC JUMPI PUSH1 0x40 MLOAD PUSH32 0x8C379A000000000000000000000000000000000000000000000000000000000 DUP2 MSTORE PUSH1 0x4 ADD PUSH2 0x8C3 SWAP1 PUSH2 0x1301 JUMP JUMPDEST PUSH1 0x40 MLOAD DUP1 SWAP2 SUB SWAP1 REVERT JUMPDEST PUSH0 PUSH1 0x40 MLOAD DUP1 PUSH1 0xA0 ADD PUSH1 0x40 MSTORE DUP1 PUSH0 ISZERO ISZERO DUP2 MSTORE PUSH1 0x20 ADD PUSH0 PUSH16 0xFFFFFFFFFFFFFFFFFFFFFFFFFFFFFFFF AND DUP2 MSTORE PUSH1 0x20 ADD DUP5 PUSH16 0xFFFFFFFFFFFFFFFFFFFFFFFFFFFFFFFF AND DUP2 MSTORE PUSH1 0x20 ADD DUP4 PUSH20 0xFFFFFFFFFFFFFFFFFFFFFFFFFFFFFFFFFFFFFFFF AND DUP2 MSTORE PUSH1 0x20 ADD DUP6 DUP2 MSTORE POP SWAP1 POP PUSH1 0x3 DUP2 SWAP1 DUP1 PUSH1 0x1 DUP2 SLOAD ADD DUP1 DUP3 SSTORE DUP1 SWAP2 POP POP PUSH1 0x1 SWAP1 SUB SWAP1 PUSH0 MSTORE PUSH1 0x20 PUSH0 KECCAK256 SWAP1 PUSH1 0x4 MUL ADD PUSH0 SWAP1 SWAP2 SWAP1 SWAP2 SWAP1 SWAP2 POP PUSH0 DUP3 ADD MLOAD DUP2 PUSH0 ADD PUSH0 PUSH2 0x100 EXP DUP2 SLOAD DUP2 PUSH1 0xFF MUL NOT AND SWAP1 DUP4 ISZERO ISZERO MUL OR SWAP1 SSTORE POP PUSH1 0x20 DUP3 ADD MLOAD DUP2 PUSH0 ADD PUSH1 0x1 PUSH2 0x100 EXP DUP2 SLOAD DUP2 PUSH16 0xFFFFFFFFFFFFFFFFFFFFFFFFFFFFFFFF MUL NOT AND SWAP1 DUP4 PUSH16 0xFFFFFFFFFFFFFFFFFFFFFFFFFFFFFFFF AND MUL OR SWAP1 SSTORE POP PUSH1 0x40 DUP3 ADD MLOAD DUP2 PUSH1 0x1 ADD PUSH0 PUSH2 0x100 EXP DUP2 SLOAD DUP2 PUSH16 0xFFFFFFFFFFFFFFFFFFFFFFFFFFFFFFFF MUL NOT AND SWAP1 DUP4 PUSH16 0xFFFFFFFFFFFFFFFFFFFFFFFFFFFFFFFF AND MUL OR SWAP1 SSTORE POP PUSH1 0x60 DUP3 ADD MLOAD DUP2 PUSH1 0x2 ADD PUSH0 PUSH2 0x100 EXP DUP2 SLOAD DUP2 PUSH20 0xFFFFFFFFFFFFFFFFFFFFFFFFFFFFFFFFFFFFFFFF MUL NOT AND SWAP1 DUP4 PUSH20 0xFFFFFFFFFFFFFFFFFFFFFFFFFFFFFFFFFFFFFFFF AND MUL OR SWAP1 SSTORE POP PUSH1 0x80 DUP3 ADD MLOAD DUP2 PUSH1 0x3 ADD SWAP1 DUP2 PUSH2 0xA4F SWAP2 SWAP1 PUSH2 0x1962 JUMP JUMPDEST POP POP POP CALLER PUSH20 0xFFFFFFFFFFFFFFFFFFFFFFFFFFFFFFFFFFFFFFFF AND PUSH32 0x60DC38BED424A87163B4220B98EDB283977533B0A85A5743F8D35C28FD495E47 PUSH1 0x40 MLOAD PUSH1 0x40 MLOAD DUP1 SWAP2 SUB SWAP1 LOG2 POP POP POP POP JUMP JUMPDEST PUSH1 0x1 SLOAD CALLVALUE GT PUSH2 0xADF JUMPI PUSH1 0x40 MLOAD PUSH32 0x8C379A000000000000000000000000000000000000000000000000000000000 DUP2 MSTORE PUSH1 0x4 ADD PUSH2 0xAD6 SWAP1 PUSH2 0x1A7B JUMP JUMPDEST PUSH1 0x40 MLOAD DUP1 SWAP2 SUB SWAP1 REVERT JUMPDEST PUSH0 PUSH1 0x4 PUSH0 CALLER PUSH20 0xFFFFFFFFFFFFFFFFFFFFFFFFFFFFFFFFFFFFFFFF AND PUSH20 0xFFFFFFFFFFFFFFFFFFFFFFFFFFFFFFFFFFFFFFFF AND DUP2 MSTORE PUSH1 0x20 ADD SWAP1 DUP2 MSTORE PUSH1 0x20 ADD PUSH0 KECCAK256 SWAP1 POP DUP1 PUSH0 ADD PUSH0 SWAP1 SLOAD SWAP1 PUSH2 0x100 EXP SWAP1 DIV PUSH1 0xFF AND PUSH2 0xB66 JUMPI PUSH1 0x2 PUSH0 DUP2 SLOAD DUP1 SWAP3 SWAP2 SWAP1 PUSH2 0xB45 SWAP1 PUSH2 0x1AC6 JUMP JUMPDEST SWAP2 SWAP1 POP SSTORE POP PUSH1 0x1 DUP2 PUSH0 ADD PUSH0 PUSH2 0x100 EXP DUP2 SLOAD DUP2 PUSH1 0xFF MUL NOT AND SWAP1 DUP4 ISZERO ISZERO MUL OR SWAP1 SSTORE POP JUMPDEST CALLER PUSH20 0xFFFFFFFFFFFFFFFFFFFFFFFFFFFFFFFFFFFFFFFF AND PUSH32 0x1BB460CCAAF70FBACFEC17A376F8ACBD278C1405590FFCC8EBE4B88DAF4F64AD CALLVALUE PUSH1 0x40 MLOAD PUSH2 0xBAC SWAP2 SWAP1 PUSH2 0xF27 JUMP JUMPDEST PUSH1 0x40 MLOAD DUP1 SWAP2 SUB SWAP1 LOG2 POP JUMP JUMPDEST PUSH0 PUSH1 0x3 DUP3 DUP2 SLOAD DUP2 LT PUSH2 0xBCC JUMPI PUSH2 0xBCB PUSH2 0x1387 JUMP JUMPDEST JUMPDEST SWAP1 PUSH0 MSTORE PUSH1 0x20 PUSH0 KECCAK256 SWAP1 PUSH1 0x4 MUL ADD SWAP1 POP PUSH0 PUSH1 0x4 PUSH0 CALLER PUSH20 0xFFFFFFFFFFFFFFFFFFFFFFFFFFFFFFFFFFFFFFFF AND PUSH20 0xFFFFFFFFFFFFFFFFFFFFFFFFFFFFFFFFFFFFFFFF AND DUP2 MSTORE PUSH1 0x20 ADD SWAP1 DUP2 MSTORE PUSH1 0x20 ADD PUSH0 KECCAK256 SWAP1 POP DUP1 PUSH0 ADD PUSH0 SWAP1 SLOAD SWAP1 PUSH2 0x100 EXP SWAP1 DIV PUSH1 0xFF AND PUSH2 0xC69 JUMPI PUSH1 0x40 MLOAD PUSH32 0x8C379A000000000000000000000000000000000000000000000000000000000 DUP2 MSTORE PUSH1 0x4 ADD PUSH2 0xC60 SWAP1 PUSH2 0x1B57 JUMP JUMPDEST PUSH1 0x40 MLOAD DUP1 SWAP2 SUB SWAP1 REVERT JUMPDEST DUP1 PUSH1 0x1 ADD PUSH0 DUP5 DUP2 MSTORE PUSH1 0x20 ADD SWAP1 DUP2 MSTORE PUSH1 0x20 ADD PUSH0 KECCAK256 PUSH0 SWAP1 SLOAD SWAP1 PUSH2 0x100 EXP SWAP1 DIV PUSH1 0xFF AND ISZERO PUSH2 0xCC9 JUMPI PUSH1 0x40 MLOAD PUSH32 0x8C379A000000000000000000000000000000000000000000000000000000000 DUP2 MSTORE PUSH1 0x4 ADD PUSH2 0xCC0 SWAP1 PUSH2 0x1BBF JUMP JUMPDEST PUSH1 0x40 MLOAD DUP1 SWAP2 SUB SWAP1 REVERT JUMPDEST PUSH1 0x1 DUP2 PUSH1 0x1 ADD PUSH0 DUP6 DUP2 MSTORE PUSH1 0x20 ADD SWAP1 DUP2 MSTORE PUSH1 0x20 ADD PUSH0 KECCAK256 PUSH0 PUSH2 0x100 EXP DUP2 SLOAD DUP2 PUSH1 0xFF MUL NOT AND SWAP1 DUP4 ISZERO ISZERO MUL OR SWAP1 SSTORE POP DUP2 PUSH0 ADD PUSH1 0x1 DUP2 DUP2 SWAP1 SLOAD SWAP1 PUSH2 0x100 EXP SWAP1 DIV PUSH16 0xFFFFFFFFFFFFFFFFFFFFFFFFFFFFFFFF AND DUP1 SWAP3 SWAP2 SWAP1 PUSH2 0xD23 SWAP1 PUSH2 0x1BDD JUMP JUMPDEST SWAP2 SWAP1 PUSH2 0x100 EXP DUP2 SLOAD DUP2 PUSH16 0xFFFFFFFFFFFFFFFFFFFFFFFFFFFFFFFF MUL NOT AND SWAP1 DUP4 PUSH16 0xFFFFFFFFFFFFFFFFFFFFFFFFFFFFFFFF AND MUL OR SWAP1 SSTORE POP POP CALLER PUSH20 0xFFFFFFFFFFFFFFFFFFFFFFFFFFFFFFFFFFFFFFFF AND PUSH32 0x27F12316D57CC5DFAF0C80128F1EC8290F7D29CE06DF240B688CCDF492091FB2 DUP4 PUSH1 0x40 MLOAD PUSH2 0xDA0 SWAP2 SWAP1 PUSH2 0x17B4 JUMP JUMPDEST PUSH1 0x40 MLOAD DUP1 SWAP2 SUB SWAP1 LOG2 POP POP POP JUMP JUMPDEST PUSH1 0x2 SLOAD DUP2 JUMP JUMPDEST PUSH0 PUSH1 0x40 MLOAD SWAP1 POP SWAP1 JUMP JUMPDEST PUSH0 PUSH0 REVERT JUMPDEST PUSH0 PUSH0 REVERT JUMPDEST PUSH0 PUSH20 0xFFFFFFFFFFFFFFFFFFFFFFFFFFFFFFFFFFFFFFFF DUP3 AND SWAP1 POP SWAP2 SWAP1 POP JUMP JUMPDEST PUSH0 PUSH2 0xDED DUP3 PUSH2 0xDC4 JUMP JUMPDEST SWAP1 POP SWAP2 SWAP1 POP JUMP JUMPDEST PUSH2 0xDFD DUP2 PUSH2 0xDE3 JUMP JUMPDEST DUP2 EQ PUSH2 0xE07 JUMPI PUSH0 PUSH0 REVERT JUMPDEST POP JUMP JUMPDEST PUSH0 DUP2 CALLDATALOAD SWAP1 POP PUSH2 0xE18 DUP2 PUSH2 0xDF4 JUMP JUMPDEST SWAP3 SWAP2 POP POP JUMP JUMPDEST PUSH0 DUP2 SWAP1 POP SWAP2 SWAP1 POP JUMP JUMPDEST PUSH2 0xE30 DUP2 PUSH2 0xE1E JUMP JUMPDEST DUP2 EQ PUSH2 0xE3A JUMPI PUSH0 PUSH0 REVERT JUMPDEST POP JUMP JUMPDEST PUSH0 DUP2 CALLDATALOAD SWAP1 POP PUSH2 0xE4B DUP2 PUSH2 0xE27 JUMP JUMPDEST SWAP3 SWAP2 POP POP JUMP JUMPDEST PUSH0 PUSH0 PUSH1 0x40 DUP4 DUP6 SUB SLT ISZERO PUSH2 0xE67 JUMPI PUSH2 0xE66 PUSH2 0xDBC JUMP JUMPDEST JUMPDEST PUSH0 PUSH2 0xE74 DUP6 DUP3 DUP7 ADD PUSH2 0xE0A JUMP JUMPDEST SWAP3 POP POP PUSH1 0x20 PUSH2 0xE85 DUP6 DUP3 DUP7 ADD PUSH2 0xE3D JUMP JUMPDEST SWAP2 POP POP SWAP3 POP SWAP3 SWAP1 POP JUMP JUMPDEST PUSH0 DUP2 ISZERO ISZERO SWAP1 POP SWAP2 SWAP1 POP JUMP JUMPDEST PUSH2 0xEA3 DUP2 PUSH2 0xE8F JUMP JUMPDEST DUP3 MSTORE POP POP JUMP JUMPDEST PUSH0 PUSH1 0x20 DUP3 ADD SWAP1 POP PUSH2 0xEBC PUSH0 DUP4 ADD DUP5 PUSH2 0xE9A JUMP JUMPDEST SWAP3 SWAP2 POP POP JUMP JUMPDEST PUSH0 PUSH1 0x20 DUP3 DUP5 SUB SLT ISZERO PUSH2 0xED7 JUMPI PUSH2 0xED6 PUSH2 0xDBC JUMP JUMPDEST JUMPDEST PUSH0 PUSH2 0xEE4 DUP5 DUP3 DUP6 ADD PUSH2 0xE3D JUMP JUMPDEST SWAP2 POP POP SWAP3 SWAP2 POP POP JUMP JUMPDEST PUSH0 PUSH1 0x20 DUP3 DUP5 SUB SLT ISZERO PUSH2 0xF02 JUMPI PUSH2 0xF01 PUSH2 0xDBC JUMP JUMPDEST JUMPDEST PUSH0 PUSH2 0xF0F DUP5 DUP3 DUP6 ADD PUSH2 0xE0A JUMP JUMPDEST SWAP2 POP POP SWAP3 SWAP2 POP POP JUMP JUMPDEST PUSH2 0xF21 DUP2 PUSH2 0xE1E JUMP JUMPDEST DUP3 MSTORE POP POP JUMP JUMPDEST PUSH0 PUSH1 0x20 DUP3 ADD SWAP1 POP PUSH2 0xF3A PUSH0 DUP4 ADD DUP5 PUSH2 0xF18 JUMP JUMPDEST SWAP3 SWAP2 POP POP JUMP JUMPDEST PUSH2 0xF49 DUP2 PUSH2 0xDE3 JUMP JUMPDEST DUP3 MSTORE POP POP JUMP JUMPDEST PUSH0 PUSH1 0xA0 DUP3 ADD SWAP1 POP PUSH2 0xF62 PUSH0 DUP4 ADD DUP9 PUSH2 0xF18 JUMP JUMPDEST PUSH2 0xF6F PUSH1 0x20 DUP4 ADD DUP8 PUSH2 0xF18 JUMP JUMPDEST PUSH2 0xF7C PUSH1 0x40 DUP4 ADD DUP7 PUSH2 0xF18 JUMP JUMPDEST PUSH2 0xF89 PUSH1 0x60 DUP4 ADD DUP6 PUSH2 0xF18 JUMP JUMPDEST PUSH2 0xF96 PUSH1 0x80 DUP4 ADD DUP5 PUSH2 0xF40 JUMP JUMPDEST SWAP7 SWAP6 POP POP POP POP POP POP JUMP JUMPDEST PUSH0 PUSH1 0x20 DUP3 ADD SWAP1 POP PUSH2 0xFB3 PUSH0 DUP4 ADD DUP5 PUSH2 0xF40 JUMP JUMPDEST SWAP3 SWAP2 POP POP JUMP JUMPDEST PUSH0 PUSH16 0xFFFFFFFFFFFFFFFFFFFFFFFFFFFFFFFF DUP3 AND SWAP1 POP SWAP2 SWAP1 POP JUMP JUMPDEST PUSH2 0xFDD DUP2 PUSH2 0xFB9 JUMP JUMPDEST DUP3 MSTORE POP POP JUMP JUMPDEST PUSH0 PUSH2 0xFED DUP3 PUSH2 0xDC4 JUMP JUMPDEST SWAP1 POP SWAP2 SWAP1 POP JUMP JUMPDEST PUSH2 0xFFD DUP2 PUSH2 0xFE3 JUMP JUMPDEST DUP3 MSTORE POP POP JUMP JUMPDEST PUSH0 DUP2 MLOAD SWAP1 POP SWAP2 SWAP1 POP JUMP JUMPDEST PUSH0 DUP3 DUP3 MSTORE PUSH1 0x20 DUP3 ADD SWAP1 POP SWAP3 SWAP2 POP POP JUMP JUMPDEST DUP3 DUP2 DUP4 MCOPY PUSH0 DUP4 DUP4 ADD MSTORE POP POP POP JUMP JUMPDEST PUSH0 PUSH1 0x1F NOT PUSH1 0x1F DUP4 ADD AND SWAP1 POP SWAP2 SWAP1 POP JUMP JUMPDEST PUSH0 PUSH2 0x1045 DUP3 PUSH2 0x1003 JUMP JUMPDEST PUSH2 0x104F DUP2 DUP6 PUSH2 0x100D JUMP JUMPDEST SWAP4 POP PUSH2 0x105F DUP2 DUP6 PUSH1 0x20 DUP7 ADD PUSH2 0x101D JUMP JUMPDEST PUSH2 0x1068 DUP2 PUSH2 0x102B JUMP JUMPDEST DUP5 ADD SWAP2 POP POP SWAP3 SWAP2 POP POP JUMP JUMPDEST PUSH0 PUSH1 0xA0 DUP3 ADD SWAP1 POP PUSH2 0x1086 PUSH0 DUP4 ADD DUP9 PUSH2 0xE9A JUMP JUMPDEST PUSH2 0x1093 PUSH1 0x20 DUP4 ADD DUP8 PUSH2 0xFD4 JUMP JUMPDEST PUSH2 0x10A0 PUSH1 0x40 DUP4 ADD DUP7 PUSH2 0xFD4 JUMP JUMPDEST PUSH2 0x10AD PUSH1 0x60 DUP4 ADD DUP6 PUSH2 0xFF4 JUMP JUMPDEST DUP2 DUP2 SUB PUSH1 0x80 DUP4 ADD MSTORE PUSH2 0x10BF DUP2 DUP5 PUSH2 0x103B JUMP JUMPDEST SWAP1 POP SWAP7 SWAP6 POP POP POP POP POP POP JUMP JUMPDEST PUSH0 PUSH0 REVERT JUMPDEST PUSH0 PUSH0 REVERT JUMPDEST PUSH32 0x4E487B7100000000000000000000000000000000000000000000000000000000 PUSH0 MSTORE PUSH1 0x41 PUSH1 0x4 MSTORE PUSH1 0x24 PUSH0 REVERT JUMPDEST PUSH2 0x1109 DUP3 PUSH2 0x102B JUMP JUMPDEST DUP2 ADD DUP2 DUP2 LT PUSH8 0xFFFFFFFFFFFFFFFF DUP3 GT OR ISZERO PUSH2 0x1128 JUMPI PUSH2 0x1127 PUSH2 0x10D3 JUMP JUMPDEST JUMPDEST DUP1 PUSH1 0x40 MSTORE POP POP POP JUMP JUMPDEST PUSH0 PUSH2 0x113A PUSH2 0xDB3 JUMP JUMPDEST SWAP1 POP PUSH2 0x1146 DUP3 DUP3 PUSH2 0x1100 JUMP JUMPDEST SWAP2 SWAP1 POP JUMP JUMPDEST PUSH0 PUSH8 0xFFFFFFFFFFFFFFFF DUP3 GT ISZERO PUSH2 0x1165 JUMPI PUSH2 0x1164 PUSH2 0x10D3 JUMP JUMPDEST JUMPDEST PUSH2 0x116E DUP3 PUSH2 0x102B JUMP JUMPDEST SWAP1 POP PUSH1 0x20 DUP2 ADD SWAP1 POP SWAP2 SWAP1 POP JUMP JUMPDEST DUP3 DUP2 DUP4 CALLDATACOPY PUSH0 DUP4 DUP4 ADD MSTORE POP POP POP JUMP JUMPDEST PUSH0 PUSH2 0x119B PUSH2 0x1196 DUP5 PUSH2 0x114B JUMP JUMPDEST PUSH2 0x1131 JUMP JUMPDEST SWAP1 POP DUP3 DUP2 MSTORE PUSH1 0x20 DUP2 ADD DUP5 DUP5 DUP5 ADD GT ISZERO PUSH2 0x11B7 JUMPI PUSH2 0x11B6 PUSH2 0x10CF JUMP JUMPDEST JUMPDEST PUSH2 0x11C2 DUP5 DUP3 DUP6 PUSH2 0x117B JUMP JUMPDEST POP SWAP4 SWAP3 POP POP POP JUMP JUMPDEST PUSH0 DUP3 PUSH1 0x1F DUP4 ADD SLT PUSH2 0x11DE JUMPI PUSH2 0x11DD PUSH2 0x10CB JUMP JUMPDEST JUMPDEST DUP2 CALLDATALOAD PUSH2 0x11EE DUP5 DUP3 PUSH1 0x20 DUP7 ADD PUSH2 0x1189 JUMP JUMPDEST SWAP2 POP POP SWAP3 SWAP2 POP POP JUMP JUMPDEST PUSH2 0x1200 DUP2 PUSH2 0xFB9 JUMP JUMPDEST DUP2 EQ PUSH2 0x120A JUMPI PUSH0 PUSH0 REVERT JUMPDEST POP JUMP JUMPDEST PUSH0 DUP2 CALLDATALOAD SWAP1 POP PUSH2 0x121B DUP2 PUSH2 0x11F7 JUMP JUMPDEST SWAP3 SWAP2 POP POP JUMP JUMPDEST PUSH2 0x122A DUP2 PUSH2 0xFE3 JUMP JUMPDEST DUP2 EQ PUSH2 0x1234 JUMPI PUSH0 PUSH0 REVERT JUMPDEST POP JUMP JUMPDEST PUSH0 DUP2 CALLDATALOAD SWAP1 POP PUSH2 0x1245 DUP2 PUSH2 0x1221 JUMP JUMPDEST SWAP3 SWAP2 POP POP JUMP JUMPDEST PUSH0 PUSH0 PUSH0 PUSH1 0x60 DUP5 DUP7 SUB SLT ISZERO PUSH2 0x1262 JUMPI PUSH2 0x1261 PUSH2 0xDBC JUMP JUMPDEST JUMPDEST PUSH0 DUP5 ADD CALLDATALOAD PUSH8 0xFFFFFFFFFFFFFFFF DUP2 GT ISZERO PUSH2 0x127F JUMPI PUSH2 0x127E PUSH2 0xDC0 JUMP JUMPDEST JUMPDEST PUSH2 0x128B DUP7 DUP3 DUP8 ADD PUSH2 0x11CA JUMP JUMPDEST SWAP4 POP POP PUSH1 0x20 PUSH2 0x129C DUP7 DUP3 DUP8 ADD PUSH2 0x120D JUMP JUMPDEST SWAP3 POP POP PUSH1 0x40 PUSH2 0x12AD DUP7 DUP3 DUP8 ADD PUSH2 0x1237 JUMP JUMPDEST SWAP2 POP POP SWAP3 POP SWAP3 POP SWAP3 JUMP JUMPDEST PUSH32 0x4F6E6C7920746865206D616E616765722063616E20646F20746869732E000000 PUSH0 DUP3 ADD MSTORE POP JUMP JUMPDEST PUSH0 PUSH2 0x12EB PUSH1 0x1D DUP4 PUSH2 0x100D JUMP JUMPDEST SWAP2 POP PUSH2 0x12F6 DUP3 PUSH2 0x12B7 JUMP JUMPDEST PUSH1 0x20 DUP3 ADD SWAP1 POP SWAP2 SWAP1 POP JUMP JUMPDEST PUSH0 PUSH1 0x20 DUP3 ADD SWAP1 POP DUP2 DUP2 SUB PUSH0 DUP4 ADD MSTORE PUSH2 0x1318 DUP2 PUSH2 0x12DF JUMP JUMPDEST SWAP1 POP SWAP2 SWAP1 POP JUMP JUMPDEST PUSH32 0x496E73756666696369656E7420636F6E74726163742062616C616E63652E0000 PUSH0 DUP3 ADD MSTORE POP JUMP JUMPDEST PUSH0 PUSH2 0x1353 PUSH1 0x1E DUP4 PUSH2 0x100D JUMP JUMPDEST SWAP2 POP PUSH2 0x135E DUP3 PUSH2 0x131F JUMP JUMPDEST PUSH1 0x20 DUP3 ADD SWAP1 POP SWAP2 SWAP1 POP JUMP JUMPDEST PUSH0 PUSH1 0x20 DUP3 ADD SWAP1 POP DUP2 DUP2 SUB PUSH0 DUP4 ADD MSTORE PUSH2 0x1380 DUP2 PUSH2 0x1347 JUMP JUMPDEST SWAP1 POP SWAP2 SWAP1 POP JUMP JUMPDEST PUSH32 0x4E487B7100000000000000000000000000000000000000000000000000000000 PUSH0 MSTORE PUSH1 0x32 PUSH1 0x4 MSTORE PUSH1 0x24 PUSH0 REVERT JUMPDEST PUSH32 0x4E6F7420656E6F75676820617070726F76616C732E0000000000000000000000 PUSH0 DUP3 ADD MSTORE POP JUMP JUMPDEST PUSH0 PUSH2 0x13E8 PUSH1 0x15 DUP4 PUSH2 0x100D JUMP JUMPDEST SWAP2 POP PUSH2 0x13F3 DUP3 PUSH2 0x13B4 JUMP JUMPDEST PUSH1 0x20 DUP3 ADD SWAP1 POP SWAP2 SWAP1 POP JUMP JUMPDEST PUSH0 PUSH1 0x20 DUP3 ADD SWAP1 POP DUP2 DUP2 SUB PUSH0 DUP4 ADD MSTORE PUSH2 0x1415 DUP2 PUSH2 0x13DC JUMP JUMPDEST SWAP1 POP SWAP2 SWAP1 POP JUMP JUMPDEST PUSH32 0x5265717565737420636F6D706C6574656420616C72656164792E000000000000 PUSH0 DUP3 ADD MSTORE POP JUMP JUMPDEST PUSH0 PUSH2 0x1450 PUSH1 0x1A DUP4 PUSH2 0x100D JUMP JUMPDEST SWAP2 POP PUSH2 0x145B DUP3 PUSH2 0x141C JUMP JUMPDEST PUSH1 0x20 DUP3 ADD SWAP1 POP SWAP2 SWAP1 POP JUMP JUMPDEST PUSH0 PUSH1 0x20 DUP3 ADD SWAP1 POP DUP2 DUP2 SUB PUSH0 DUP4 ADD MSTORE PUSH2 0x147D DUP2 PUSH2 0x1444 JUMP JUMPDEST SWAP1 POP SWAP2 SWAP1 POP JUMP JUMPDEST PUSH0 DUP2 SWAP1 POP SWAP3 SWAP2 POP POP JUMP JUMPDEST POP JUMP JUMPDEST PUSH0 PUSH2 0x149C PUSH0 DUP4 PUSH2 0x1484 JUMP JUMPDEST SWAP2 POP PUSH2 0x14A7 DUP3 PUSH2 0x148E JUMP JUMPDEST PUSH0 DUP3 ADD SWAP1 POP SWAP2 SWAP1 POP JUMP JUMPDEST PUSH0 PUSH2 0x14BB DUP3 PUSH2 0x1491 JUMP JUMPDEST SWAP2 POP DUP2 SWAP1 POP SWAP2 SWAP1 POP JUMP JUMPDEST PUSH32 0x5472616E73666572206661696C65642E00000000000000000000000000000000 PUSH0 DUP3 ADD MSTORE POP JUMP JUMPDEST PUSH0 PUSH2 0x14F9 PUSH1 0x10 DUP4 PUSH2 0x100D JUMP JUMPDEST SWAP2 POP PUSH2 0x1504 DUP3 PUSH2 0x14C5 JUMP JUMPDEST PUSH1 0x20 DUP3 ADD SWAP1 POP SWAP2 SWAP1 POP JUMP JUMPDEST PUSH0 PUSH1 0x20 DUP3 ADD SWAP1 POP DUP2 DUP2 SUB PUSH0 DUP4 ADD MSTORE PUSH2 0x1526 DUP2 PUSH2 0x14ED JUMP JUMPDEST SWAP1 POP SWAP2 SWAP1 POP JUMP JUMPDEST PUSH0 DUP2 PUSH0 SHR SWAP1 POP SWAP2 SWAP1 POP JUMP JUMPDEST PUSH0 PUSH1 0xFF DUP3 AND SWAP1 POP SWAP2 SWAP1 POP JUMP JUMPDEST PUSH0 PUSH2 0x1556 PUSH2 0x1551 DUP4 PUSH2 0x152D JUMP JUMPDEST PUSH2 0x1538 JUMP JUMPDEST SWAP1 POP SWAP2 SWAP1 POP JUMP JUMPDEST PUSH2 0x1566 DUP2 PUSH2 0xE8F JUMP JUMPDEST DUP3 MSTORE POP POP JUMP JUMPDEST PUSH0 DUP2 PUSH1 0x8 SHR SWAP1 POP SWAP2 SWAP1 POP JUMP JUMPDEST PUSH0 PUSH16 0xFFFFFFFFFFFFFFFFFFFFFFFFFFFFFFFF DUP3 AND SWAP1 POP SWAP2 SWAP1 POP JUMP JUMPDEST PUSH0 PUSH2 0x15A5 PUSH2 0x15A0 DUP4 PUSH2 0x156C JUMP JUMPDEST PUSH2 0x1578 JUMP JUMPDEST SWAP1 POP SWAP2 SWAP1 POP JUMP JUMPDEST PUSH2 0x15B5 DUP2 PUSH2 0xFB9 JUMP JUMPDEST DUP3 MSTORE POP POP JUMP JUMPDEST PUSH0 PUSH2 0x15CD PUSH2 0x15C8 DUP4 PUSH2 0x152D JUMP JUMPDEST PUSH2 0x1578 JUMP JUMPDEST SWAP1 POP SWAP2 SWAP1 POP JUMP JUMPDEST PUSH0 PUSH20 0xFFFFFFFFFFFFFFFFFFFFFFFFFFFFFFFFFFFFFFFF DUP3 AND SWAP1 POP SWAP2 SWAP1 POP JUMP JUMPDEST PUSH0 PUSH2 0x1605 PUSH2 0x1600 DUP4 PUSH2 0x152D JUMP JUMPDEST PUSH2 0x15D4 JUMP JUMPDEST SWAP1 POP SWAP2 SWAP1 POP JUMP JUMPDEST PUSH2 0x1615 DUP2 PUSH2 0xFE3 JUMP JUMPDEST DUP3 MSTORE POP POP JUMP JUMPDEST PUSH32 0x4E487B7100000000000000000000000000000000000000000000000000000000 PUSH0 MSTORE PUSH1 0x22 PUSH1 0x4 MSTORE PUSH1 0x24 PUSH0 REVERT JUMPDEST PUSH0 PUSH1 0x2 DUP3 DIV SWAP1 POP PUSH1 0x1 DUP3 AND DUP1 PUSH2 0x165F JUMPI PUSH1 0x7F DUP3 AND SWAP2 POP JUMPDEST PUSH1 0x20 DUP3 LT DUP2 SUB PUSH2 0x1672 JUMPI PUSH2 0x1671 PUSH2 0x161B JUMP JUMPDEST JUMPDEST POP SWAP2 SWAP1 POP JUMP JUMPDEST PUSH0 DUP3 DUP3 MSTORE PUSH1 0x20 DUP3 ADD SWAP1 POP SWAP3 SWAP2 POP POP JUMP JUMPDEST PUSH0 DUP2 SWAP1 POP DUP2 PUSH0 MSTORE PUSH1 0x20 PUSH0 KECCAK256 SWAP1 POP SWAP2 SWAP1 POP JUMP JUMPDEST PUSH0 DUP2 SLOAD PUSH2 0x16A6 DUP2 PUSH2 0x1648 JUMP JUMPDEST PUSH2 0x16B0 DUP2 DUP7 PUSH2 0x1678 JUMP JUMPDEST SWAP5 POP PUSH1 0x1 DUP3 AND PUSH0 DUP2 EQ PUSH2 0x16CA JUMPI PUSH1 0x1 DUP2 EQ PUSH2 0x16E0 JUMPI PUSH2 0x1712 JUMP JUMPDEST PUSH1 0xFF NOT DUP4 AND DUP7 MSTORE DUP2 ISZERO ISZERO PUSH1 0x20 MUL DUP7 ADD SWAP4 POP PUSH2 0x1712 JUMP JUMPDEST PUSH2 0x16E9 DUP6 PUSH2 0x1688 JUMP JUMPDEST PUSH0 JUMPDEST DUP4 DUP2 LT ISZERO PUSH2 0x170A JUMPI DUP2 SLOAD DUP2 DUP10 ADD MSTORE PUSH1 0x1 DUP3 ADD SWAP2 POP PUSH1 0x20 DUP2 ADD SWAP1 POP PUSH2 0x16EB JUMP JUMPDEST DUP1 DUP9 ADD SWAP6 POP POP POP JUMPDEST POP POP POP SWAP3 SWAP2 POP POP JUMP JUMPDEST PUSH0 PUSH1 0xA0 DUP4 ADD PUSH0 PUSH0 DUP5 ADD SLOAD SWAP1 POP PUSH2 0x1730 DUP2 PUSH2 0x1544 JUMP JUMPDEST PUSH2 0x173C PUSH0 DUP8 ADD DUP3 PUSH2 0x155D JUMP JUMPDEST POP PUSH2 0x1746 DUP2 PUSH2 0x1593 JUMP JUMPDEST PUSH2 0x1753 PUSH1 0x20 DUP8 ADD DUP3 PUSH2 0x15AC JUMP JUMPDEST POP PUSH1 0x1 DUP5 ADD SLOAD SWAP1 POP PUSH2 0x1764 DUP2 PUSH2 0x15BB JUMP JUMPDEST PUSH2 0x1771 PUSH1 0x40 DUP8 ADD DUP3 PUSH2 0x15AC JUMP JUMPDEST POP PUSH1 0x2 DUP5 ADD SLOAD SWAP1 POP PUSH2 0x1782 DUP2 PUSH2 0x15F3 JUMP JUMPDEST PUSH2 0x178F PUSH1 0x60 DUP8 ADD DUP3 PUSH2 0x160C JUMP JUMPDEST POP PUSH1 0x3 DUP5 ADD DUP6 DUP4 SUB PUSH1 0x80 DUP8 ADD MSTORE PUSH2 0x17A6 DUP4 DUP3 PUSH2 0x169A JUMP JUMPDEST SWAP3 POP POP DUP2 SWAP3 POP POP POP SWAP3 SWAP2 POP POP JUMP JUMPDEST PUSH0 PUSH1 0x20 DUP3 ADD SWAP1 POP DUP2 DUP2 SUB PUSH0 DUP4 ADD MSTORE PUSH2 0x17CC DUP2 DUP5 PUSH2 0x171B JUMP JUMPDEST SWAP1 POP SWAP3 SWAP2 POP POP JUMP JUMPDEST PUSH0 PUSH1 0x20 PUSH1 0x1F DUP4 ADD DIV SWAP1 POP SWAP2 SWAP1 POP JUMP JUMPDEST PUSH0 DUP3 DUP3 SHL SWAP1 POP SWAP3 SWAP2 POP POP JUMP JUMPDEST PUSH0 PUSH1 0x8 DUP4 MUL PUSH2 0x181E PUSH32 0xFFFFFFFFFFFFFFFFFFFFFFFFFFFFFFFFFFFFFFFFFFFFFFFFFFFFFFFFFFFFFFFF DUP3 PUSH2 0x17E3 JUMP JUMPDEST PUSH2 0x1828 DUP7 DUP4 PUSH2 0x17E3 JUMP JUMPDEST SWAP6 POP DUP1 NOT DUP5 AND SWAP4 POP DUP1 DUP7 AND DUP5 OR SWAP3 POP POP POP SWAP4 SWAP3 POP POP POP JUMP JUMPDEST PUSH0 DUP2 SWAP1 POP SWAP2 SWAP1 POP JUMP JUMPDEST PUSH0 PUSH2 0x1863 PUSH2 0x185E PUSH2 0x1859 DUP5 PUSH2 0xE1E JUMP JUMPDEST PUSH2 0x1840 JUMP JUMPDEST PUSH2 0xE1E JUMP JUMPDEST SWAP1 POP SWAP2 SWAP1 POP JUMP JUMPDEST PUSH0 DUP2 SWAP1 POP SWAP2 SWAP1 POP JUMP JUMPDEST PUSH2 0x187C DUP4 PUSH2 0x1849 JUMP JUMPDEST PUSH2 0x1890 PUSH2 0x1888 DUP3 PUSH2 0x186A JUMP JUMPDEST DUP5 DUP5 SLOAD PUSH2 0x17EF JUMP JUMPDEST DUP3 SSTORE POP POP POP POP JUMP JUMPDEST PUSH0 PUSH0 SWAP1 POP SWAP1 JUMP JUMPDEST PUSH2 0x18A7 PUSH2 0x1898 JUMP JUMPDEST PUSH2 0x18B2 DUP2 DUP5 DUP5 PUSH2 0x1873 JUMP JUMPDEST POP POP POP JUMP JUMPDEST JUMPDEST DUP2 DUP2 LT ISZERO PUSH2 0x18D5 JUMPI PUSH2 0x18CA PUSH0 DUP3 PUSH2 0x189F JUMP JUMPDEST PUSH1 0x1 DUP2 ADD SWAP1 POP PUSH2 0x18B8 JUMP JUMPDEST POP POP JUMP JUMPDEST PUSH1 0x1F DUP3 GT ISZERO PUSH2 0x191A JUMPI PUSH2 0x18EB DUP2 PUSH2 0x1688 JUMP JUMPDEST PUSH2 0x18F4 DUP5 PUSH2 0x17D4 JUMP JUMPDEST DUP2 ADD PUSH1 0x20 DUP6 LT ISZERO PUSH2 0x1903 JUMPI DUP2 SWAP1 POP JUMPDEST PUSH2 0x1917 PUSH2 0x190F DUP6 PUSH2 0x17D4 JUMP JUMPDEST DUP4 ADD DUP3 PUSH2 0x18B7 JUMP JUMPDEST POP POP JUMPDEST POP POP POP JUMP JUMPDEST PUSH0 DUP3 DUP3 SHR SWAP1 POP SWAP3 SWAP2 POP POP JUMP JUMPDEST PUSH0 PUSH2 0x193A PUSH0 NOT DUP5 PUSH1 0x8 MUL PUSH2 0x191F JUMP JUMPDEST NOT DUP1 DUP4 AND SWAP2 POP POP SWAP3 SWAP2 POP POP JUMP JUMPDEST PUSH0 PUSH2 0x1952 DUP4 DUP4 PUSH2 0x192B JUMP JUMPDEST SWAP2 POP DUP3 PUSH1 0x2 MUL DUP3 OR SWAP1 POP SWAP3 SWAP2 POP POP JUMP JUMPDEST PUSH2 0x196B DUP3 PUSH2 0x1003 JUMP JUMPDEST PUSH8 0xFFFFFFFFFFFFFFFF DUP2 GT ISZERO PUSH2 0x1984 JUMPI PUSH2 0x1983 PUSH2 0x10D3 JUMP JUMPDEST JUMPDEST PUSH2 0x198E DUP3 SLOAD PUSH2 0x1648 JUMP JUMPDEST PUSH2 0x1999 DUP3 DUP3 DUP6 PUSH2 0x18D9 JUMP JUMPDEST PUSH0 PUSH1 0x20 SWAP1 POP PUSH1 0x1F DUP4 GT PUSH1 0x1 DUP2 EQ PUSH2 0x19CA JUMPI PUSH0 DUP5 ISZERO PUSH2 0x19B8 JUMPI DUP3 DUP8 ADD MLOAD SWAP1 POP JUMPDEST PUSH2 0x19C2 DUP6 DUP3 PUSH2 0x1947 JUMP JUMPDEST DUP7 SSTORE POP PUSH2 0x1A29 JUMP JUMPDEST PUSH1 0x1F NOT DUP5 AND PUSH2 0x19D8 DUP7 PUSH2 0x1688 JUMP JUMPDEST PUSH0 JUMPDEST DUP3 DUP2 LT ISZERO PUSH2 0x19FF JUMPI DUP5 DUP10 ADD MLOAD DUP3 SSTORE PUSH1 0x1 DUP3 ADD SWAP2 POP PUSH1 0x20 DUP6 ADD SWAP5 POP PUSH1 0x20 DUP2 ADD SWAP1 POP PUSH2 0x19DA JUMP JUMPDEST DUP7 DUP4 LT ISZERO PUSH2 0x1A1C JUMPI DUP5 DUP10 ADD MLOAD PUSH2 0x1A18 PUSH1 0x1F DUP10 AND DUP3 PUSH2 0x192B JUMP JUMPDEST DUP4 SSTORE POP JUMPDEST PUSH1 0x1 PUSH1 0x2 DUP9 MUL ADD DUP9 SSTORE POP POP POP JUMPDEST POP POP POP POP POP POP JUMP JUMPDEST PUSH32 0x4D696E696D756D20455448206E6F74206D65742E000000000000000000000000 PUSH0 DUP3 ADD MSTORE POP JUMP JUMPDEST PUSH0 PUSH2 0x1A65 PUSH1 0x14 DUP4 PUSH2 0x100D JUMP JUMPDEST SWAP2 POP PUSH2 0x1A70 DUP3 PUSH2 0x1A31 JUMP JUMPDEST PUSH1 0x20 DUP3 ADD SWAP1 POP SWAP2 SWAP1 POP JUMP JUMPDEST PUSH0 PUSH1 0x20 DUP3 ADD SWAP1 POP DUP2 DUP2 SUB PUSH0 DUP4 ADD MSTORE PUSH2 0x1A92 DUP2 PUSH2 0x1A59 JUMP JUMPDEST SWAP1 POP SWAP2 SWAP1 POP JUMP JUMPDEST PUSH32 0x4E487B7100000000000000000000000000000000000000000000000000000000 PUSH0 MSTORE PUSH1 0x11 PUSH1 0x4 MSTORE PUSH1 0x24 PUSH0 REVERT JUMPDEST PUSH0 PUSH2 0x1AD0 DUP3 PUSH2 0xE1E JUMP JUMPDEST SWAP2 POP PUSH32 0xFFFFFFFFFFFFFFFFFFFFFFFFFFFFFFFFFFFFFFFFFFFFFFFFFFFFFFFFFFFFFFFF DUP3 SUB PUSH2 0x1B02 JUMPI PUSH2 0x1B01 PUSH2 0x1A99 JUMP JUMPDEST JUMPDEST PUSH1 0x1 DUP3 ADD SWAP1 POP SWAP2 SWAP1 POP JUMP JUMPDEST PUSH32 0x596F75277665206E6F7420636F6E74726962757465642E000000000000000000 PUSH0 DUP3 ADD MSTORE POP JUMP JUMPDEST PUSH0 PUSH2 0x1B41 PUSH1 0x17 DUP4 PUSH2 0x100D JUMP JUMPDEST SWAP2 POP PUSH2 0x1B4C DUP3 PUSH2 0x1B0D JUMP JUMPDEST PUSH1 0x20 DUP3 ADD SWAP1 POP SWAP2 SWAP1 POP JUMP JUMPDEST PUSH0 PUSH1 0x20 DUP3 ADD SWAP1 POP DUP2 DUP2 SUB PUSH0 DUP4 ADD MSTORE PUSH2 0x1B6E DUP2 PUSH2 0x1B35 JUMP JUMPDEST SWAP1 POP SWAP2 SWAP1 POP JUMP JUMPDEST PUSH32 0x596F7527766520617070726F766564207468697320726571756573742E000000 PUSH0 DUP3 ADD MSTORE POP JUMP JUMPDEST PUSH0 PUSH2 0x1BA9 PUSH1 0x1D DUP4 PUSH2 0x100D JUMP JUMPDEST SWAP2 POP PUSH2 0x1BB4 DUP3 PUSH2 0x1B75 JUMP JUMPDEST PUSH1 0x20 DUP3 ADD SWAP1 POP SWAP2 SWAP1 POP JUMP JUMPDEST PUSH0 PUSH1 0x20 DUP3 ADD SWAP1 POP DUP2 DUP2 SUB PUSH0 DUP4 ADD MSTORE PUSH2 0x1BD6 DUP2 PUSH2 0x1B9D JUMP JUMPDEST SWAP1 POP SWAP2 SWAP1 POP JUMP JUMPDEST PUSH0 PUSH2 0x1BE7 DUP3 PUSH2 0xFB9 JUMP JUMPDEST SWAP2 POP PUSH16 0xFFFFFFFFFFFFFFFFFFFFFFFFFFFFFFFF DUP3 SUB PUSH2 0x1C09 JUMPI PUSH2 0x1C08 PUSH2 0x1A99 JUMP JUMPDEST JUMPDEST PUSH1 0x1 DUP3 ADD SWAP1 POP SWAP2 SWAP1 POP JUMP INVALID LOG2 PUSH5 0x6970667358 0x22 SLT KECCAK256 PUSH28 0x70486030E6BBD383EF42660532524AF843BA51F70A5E7A94F8B46A4 0x28 DUP7 0xED PUSH5 0x736F6C6343 STOP ADDMOD SHR STOP CALLER "},"gasEstimates":{"creation":{"codeDepositCost":"1448400","executionCost":"infinite","totalCost":"infinite"},"external":{"approveRequest(uint256)":"infinite","contribute()":"infinite","contributorCount()":"2535","contributorHasApproved(address,uint256)":"3135","createRequest(string,uint128,address)":"infinite","finalizeRequest(uint256)":"infinite","getRequestsCount()":"2507","getSummary()":"infinite","isContributor(address)":"2932","manager()":"2618","minimumContribution()":"2447","requests(uint256)":"infinite"}},"methodIdentifiers":{"approveRequest(uint256)":"d7d1bbdb","contribute()":"d7bb99ba","contributorCount()":"ecfd8928","contributorHasApproved(address,uint256)":"024974b2","createRequest(string,uint128,address)":"c3f58ce1","finalizeRequest(uint256)":"03441006","getRequestsCount()":"3410452a","getSummary()":"4051ddac","isContributor(address)":"1d0d35f5","manager()":"481c6a75","minimumContribution()":"937e09b1","requests(uint256)":"81d12c58"}},"storageLayout":{"storage":[{"astId":57,"contract":"Campaign.sol:Campaign","label":"manager","offset":0,"slot":"0","type":"t_address"},{"astId":59,"contract":"Campaign.sol:Campaign","label":"minimumContribution","offset":0,"slot":"1","type":"t_uint256"},{"astId":61,"contract":"Campaign.sol:Campaign","label":"contributorCount","offset":0,"slot":"2","type":"t_uint256"},{"astId":65,"contract":"Campaign.sol:Campaign","label":"requests","offset":0,"slot":"3","type":"t_array(t_struct(Request)81_storage)dyn_storage"},{"astId":70,"contract":"Campaign.sol:Campaign","label":"contributorsData","offset":0,"slot":"4","type":"t_mapping(t_address,t_struct(ContributorData)88_storage)"}],"types":{"t_address":{"encoding":"inplace","label":"address","numberOfBytes":"20"},"t_address_payable":{"encoding":"inplace","label":"address payable","numberOfBytes":"20"},"t_array(t_struct(Request)81_storage)dyn_storage":{"base":"t_struct(Request)81_storage","encoding":"dynamic_array","label":"struct Campaign.Request[]","numberOfBytes":"32"},"t_bool":{"encoding":"inplace","label":"bool","numberOfBytes":"1"},"t_mapping(t_address,t_struct(ContributorData)88_storage)":{"encoding":"mapping","key":"t_address","label":"mapping(address => struct Campaign.ContributorData)","numberOfBytes":"32","value":"t_struct(ContributorData)88_storage"},"t_mapping(t_uint256,t_bool)":{"encoding":"mapping","key":"t_uint256","label":"mapping(uint256 => bool)","numberOfBytes":"32","value":"t_bool"},"t_string_storage":{"encoding":"bytes","label":"string","numberOfBytes":"32"},"t_struct(ContributorData)88_storage":{"encoding":"inplace","label":"struct Campaign.ContributorData","members":[{"astId":83,"contract":"Campaign.sol:Campaign","label":"isContributor","offset":0,"slot":"0","type":"t_bool"},{"astId":87,"contract":"Campaign.sol:Campaign","label":"approvals","offset":0,"slot":"1","type":"t_mapping(t_uint256,t_bool)"}],"numberOfBytes":"64"},"t_struct(Request)81_storage":{"encoding":"inplace","label":"struct Campaign.Request","members":[{"astId":72,"contract":"Campaign.sol:Campaign","label":"complete","offset":0,"slot":"0","type":"t_bool"},{"astId":74,"contract":"Campaign.sol:Campaign","label":"approvalCount","offset":1,"slot":"0","type":"t_uint128"},{"astId":76,"contract":"Campaign.sol:Campaign","label":"value","offset":0,"slot":"1","type":"t_uint128"},{"astId":78,"contract":"Campaign.sol:Campaign","label":"recipient","offset":0,"slot":"2","type":"t_address_payable"},{"astId":80,"contract":"Campaign.sol:Campaign","label":"description","offset":0,"slot":"3","type":"t_string_storage"}],"numberOfBytes":"128"},"t_uint128":{"encoding":"inplace","label":"uint128","numberOfBytes":"16"},"t_uint256":{"encoding":"inplace","label":"uint256","numberOfBytes":"32"}}},"transientStorageLayout":{"storage":[],"types":null},"userdoc":{"kind":"user","methods":{},"version":1}}